:100000000C9472000C948B000C948B000C948B005D
:100010000C948B000C948B000C948B000C948B0034
:100020000C948B000C948B000C948B000C948B0024
:100030000C948B000C948B000C948B000C948B0014
:100040000C948B000C948B000C948B000C948B0004
:100050000C948B000C948B000C948B000C948B00F4
:100060000C948B000C948B000C948B000C948B00E4
:100070000C948B000C948B000C948B000C948B00D4
:100080000C948B000C948B000C948B000C948B00C4
:100090000C948B000C948B000C948B000C948B00B4
:1000A0000C948B000C948B000C948B000C948B00A4
:1000B0000C948B000C948B000C948B000C948B0094
:1000C0000C948B000C948B000C948B000C948B0084
:1000D0000C948B000C948B000C948B000C948B0074
:1000E0000C948B0011241FBECFEFD1E2DEBFCDBF39
:1000F00000E00CBF12E0A0E0B2E0E4E3F4E000E0D6
:100100000BBF02C007900D92A030B107D9F70E9433
:100110008D000C9418020C940000CF93DF9387E6B7
:1001200090E00E94D700C0E9D1E00E94EF0020E1FA
:1001300037E2FE013197F1F721503040D1F7682FB7
:1001400070E080E090E00E948A0120E030E040E230
:1001500051EC0E94F6000E94E200E7CF91E894BDC6
:1001600023E025BD87BD90E894B916BC99EA909329
:10017000A0002093A1008093A8008093AA00809300
:10018000AC001092A9001092AB001092AD0088E371
:10019000809301011092A4001092A500089587BDDC
:1001A0006093A8004093AA002093AC000895909318
:1001B000C5008093C40088E18093C1008EE08093E5
:1001C000C20008959B01AC018091C00085FFFCCF67
:1001D000CA01B9010E945E016093C6000895809132
:1001E000C00087FFFCCF8091C60008950CD0E6C008
:1001F000DED040F0D5D030F021F45F3F19F0C7C019
:10020000511110C1CAC0EBD098F39923C9F35523FB
:10021000B1F3951B550BBB27AA27621773078407F9
:1002200038F09F5F5F4F220F331F441FAA1FA9F3AF
:1002300033D00E2E3AF0E0E830D091505040E695A1
:10024000001CCAF729D0FE2F27D0660F771F881F02
:10025000BB1F261737074807AB07B0E809F0BB0BF1
:10026000802DBF01FF2793585F4F2AF09E3F510515
:1002700068F08DC0D7C05F3FECF3983EDCF3869505
:1002800077956795B795F7959F5FC9F7880F911D8B
:100290009695879597F90895E1E0660F771F881F77
:1002A000BB1F621773078407BA0720F0621B730B2A
:1002B000840BBA0BEE1F88F7E095089598D088F06C
:1002C0009F5790F0B92F9927B751A0F0D1F0660F42
:1002D000771F881F991F1AF0BA95C9F712C0B1305D
:1002E00081F09FD0B1E008959CC0672F782F8827B8
:1002F000B85F39F0B93FCCF3869577956795B3959C
:10030000D9F73EF490958095709561957F4F8F4F0A
:100310009F4F0895E89409C097FB3EF4909580950F
:10032000709561957F4F8F4F9F4F9923A9F0F92FBB
:1003300096E9BB279395F695879577956795B79539
:10034000F111F8CFFAF4BB0F11F460FF1BC06F5F1F
:100350007F4F8F4F9F4F16C0882311F096E911C031
:10036000772321F09EE8872F762F05C0662371F052
:1003700096E8862F70E060E02AF09A95660F771F66
:10038000881FDAF7880F9695879597F9089597F95A
:100390009F6780E870E060E008959FEF80EC08952B
:1003A00000240A9416161706180609060895002454
:1003B0000A9412161306140605060895092E0394CE
:1003C000000C11F4882352F0BB0F40F4BF2B11F442
:1003D00060FF04C06F5F7F4F8F4F9F4F089557FDA1
:1003E0009058440F551F59F05F3F71F04795880FA3
:1003F00097FB991F61F09F3F79F08795089512163A
:1004000013061406551FF2CF4695F1DF08C01616E5
:1004100017061806991FF1CF869571056105089496
:100420000895E894BB2766277727CB0197F90895AD
:04043000F894FFCF6E
:00000001FF
