:100000000C9472000C948B000C948B000C948B005D
:100010000C948B000C948B000C948B000C948B0034
:100020000C948B000C948B000C948B000C948B0024
:100030000C948B000C948B000C948B000C948B0014
:100040000C948B000C948B000C948B000C948B0004
:100050000C948B000C948B000C948B000C948B00F4
:100060000C948B000C948B000C948B000C948B00E4
:100070000C948B000C948B000C948B000C948B00D4
:100080000C948B000C948B000C948B000C948B00C4
:100090000C948B000C948B000C948B000C948B00B4
:1000A0000C948B000C948B000C948B000C948B00A4
:1000B0000C948B000C948B000C948B000C948B0094
:1000C0000C948B000C948B000C948B000C948B0084
:1000D0000C948B000C948B000C948B000C948B0074
:1000E0000C948B0011241FBECFEFD1E2DEBFCDBF39
:1000F00000E00CBF12E0A0E0B2E0E0EDF1E000E0D3
:100100000BBF02C007900D92A030B107D9F70E9433
:100110008D000C94E6000C940000CF93DF9387E6EB
:1001200090E00E94CC00C0E9D1E00E94DF0020E115
:1001300037E2FE013197F1F721503040D1F780527C
:100140000E94D700F2CF91E894BD23E025BD87BD82
:1001500090E894B916BC99EA9093A0002093A1006E
:100160008093A8008093AA008093AC001092A9000D
:100170001092AB001092AD0088E3809301011092C1
:10018000A4001092A500089587BD6093A800409335
:10019000AA002093AC0008959093C5008093C400FA
:1001A00088E18093C1008EE08093C2000895982F6B
:1001B0008091C00085FFFCCF9093C6000895809188
:1001C000C00087FFFCCF8091C6000895F894FFCF50
:00000001FF
