:10000000F9C000001CC100001AC1000018C10000A6
:1000100016C1000014C1000012C1000010C1000090
:100020000EC100000CC100000AC100000C94B11206
:1000300006C1000004C1000002C100000C94390890
:10004000FEC00000FCC00000FAC0000007C20000B3
:10005000F6C00000F4C00000F2C00000F0C00000D4
:10006000EEC00000ECC00000EAC00000E8C00000E4
:10007000E6C0000012011001FF000010EB03042194
:10008000000201020301040309040C0341005400AF
:100090004D0045004C00000018034100560052007E
:1000A00049005300500020006D006B0049004900DA
:1000B000000009000A000A000B000C000D000D00F2
:1000C0000E000F00100010001200130013001400A7
:1000D00016001600180019001A001C001D001F0051
:1000E0002000220023002500270029002B002E00DD
:1000F00030003200340037003A003D004000430039
:1001000046004A004E00520055005A005E0063004F
:1001100068006D00730078007E0084008B00910001
:100120009900A000A900B100B900C300CC00D6001E
:10013000E100EC00F700040111011E012D013B015B
:100140004B015B016C017D019101A501BA01CF0159
:10015000E601FE01160231024C026A028802A80280
:10016000CA02ED021103380360038B03B803E703EF
:1001700018044B048104B904F50434057505B90568
:1001800001064E069D06EF064807A307040865080A
:10019000D0084009B6092B0AAB0A300BC30B510C2F
:1001A000EE0C8F0D400EF60EAF0F681047111412B3
:1001B000F512ED13E214F015F9161B185C19911ADB
:1001C000E51B251D831E0320AB21302332250F277D
:1001D000F128F82A1A2D492FA1311434A1364539B6
:1001E000173C1A3F34426045DF48704C40004101E3
:1001F0004243030011241FBECFEFD2E0DEBFCDBFCC
:1002000084B710929401823019F481E080939401B4
:1002100014BE11E0A0E0B1E0ECE2F9E202C005900A
:100220000D92A038B107D9F711E0A0E8B1E001C004
:100230001D92A439B107E1F770D00C949414E0CE6C
:1002400085B18F71806685B9089585B18F7180629F
:1002500085B908956DC008958EB3843089F43ED277
:1002600082E08093E9008091E80082FF09C085B1B7
:100270008F71806685B907D185B18F71806485B92A
:1002800008951F9382E060E842E30E940A12182F4B
:10029000117060918301862F8F708230A9F0862FB4
:1002A0008F70853010F080E007C0661F6627661FDC
:1002B000606842E30E940A1290E0212F30E082231E
:1002C0009323892B19F004C0112311F490E201C08B
:1002D00090E485B18F71982B95B91F91089584B7DB
:1002E000877F84BF88E10FB6F894809360001092F6
:1002F00060000FBE80E090E020E80FB6F8942093F5
:100300006100809361000FBE84B1806E84B985B1B5
:100310008F7185B958D00C94A212E1DFD7D185B185
:100320008F71806285B9789497DF0E946614FCCF44
:10033000DA01F9011082923051F0933091F091304E
:1003400009F039C0E4E7F0E022E130E038C0908302
:100350008091830180931401E0E0F1E020E230E03D
:100360002EC0813059F0813028F0823059F083302E
:1003700011F50EC0E6E8F0E0849107C0EAE8F0E08D
:10038000849103C0E8E9F0E08491282F30E017C0A1
:1003900080912001282F30E08091830190E08F70C0
:1003A0009070C09690932F0180932E0182E08083FD
:1003B000E0E2F1E004C0E0E0F0E020E030E0ED93C6
:1003C000FC93C901089580E090E00E947A14982F70
:1003D0008093830180919401882359F0933811F020
:1003E00063E801C062E86093830180E090E00E94CE
:1003F000821485B18F7185B980918301823829F08B
:10040000833899F082E88093830120E030EE40E960
:1004100051E033B988EE93E0FA013197F1F7019793
:10042000D9F72F5F2430A9F70FC020E030EE40E964
:1004300051E033B988EE93E0FA013197F1F7019773
:10044000D9F72F5F2A30A9F788E893E120E931E056
:10045000F9013197F1F70197D9F7089578941F9230
:100460000F920FB60F9211248F938AB5882321F033
:100470008AB581508ABD01C015BC8F910F900FBE07
:100480000F901F901895FF920F931F931091F100FA
:1004900084E68ABD85E085BD143109F4D3C01531E9
:1004A00010F51A3009F4B3C01B3068F4143038F476
:1004B000123008F056C0113009F0DCC033C01630DD
:1004C00009F0D8C07CC0113109F4B7C0123120F452
:1004D000103109F0CFC0AFC0123109F4B6C01331EA
:1004E00009F0C8C0ACC0193109F4B4C01A3168F4BD
:1004F000163109F4A7C0163108F4A1C0173109F468
:10050000A9C0183109F0B6C0A2C01D3109F4A5C0B8
:100510001D3108F49CC0103509F4A3C0113509F051
:10052000A9C09DC08091E8008B778093E8008091FE
:1005300083018F708093E9008091EC00816080934B
:10054000EC001093F1001092F1008AE08093F1002A
:100550008EE391E06AE070E040E050E00E94B81164
:10056000A1C00091F100123011F0FF2402C0F09000
:10057000F1008091E8008B778093E80080918301FF
:100580008F708093E9008091EC0081608093EC0093
:100590001093F100802FBBD0123041F481FF0DC0C9
:1005A0001092F100802F6F2DBAD07CC080FF05C063
:1005B0001092F100802FA3D073C080EC71C085E849
:1005C00091E064E070E040E050E00E9414118091FE
:1005D000E8008B778093E800809183018F7080938F
:1005E000E9008091EC0081608093EC0080918501AE
:1005F00090918601A0918701B0918801B7FF03C057
:1006000081E08093840186E08093F10011C08091A5
:10061000E8008B778093E800809183018F7080934E
:10062000E9008091EC0081608093EC001093F10070
:100630001092F10037C07FD43AC047D438C0812F20
:1006400010D335C0812F5DD232C00AD230C0812F85
:10065000FBD02DC0812FB0D02AC063D128C048D68E
:1006600026C086D724C08091E8008B778093E8006D
:100670000E943D128091F2008034A9F38091E8003D
:100680008B778093E800809183018F708093E900DD
:100690008091EC0081608093EC001093F10089EC74
:1006A0008093F1008091E8008E778093E80015BC7C
:1006B0000E943D1282E08093E9008091EC008E7FE1
:1006C0008093EC001F910F91FF9008958BE987BDF7
:1006D00082E084BD80936E003AD0FBC40895982FC9
:1006E000E9E4F1E08081981741F081E0E436F80711
:1006F00011F03396F7CFE0E0F0E0CF010895EFDF9F
:10070000FC01009711F480E0089582810895E7DFED
:10071000FC01009711F480E00895818108950F9302
:100720001F93182F062FDBDFFC01009769F002836F
:100730001E3919F481E090E004C0183929F482E0F0
:1007400090E0602F0E9482141F910F9108950F93E3
:100750001F9381E090E00E947A14182F82E090E0CD
:100760000E947A14082F1F3F21F08EE9B8DFFC01A8
:1007700012830F3F21F088E9B2DFFC0102831F9151
:100780000F910895282F40EA5FE003C0CA01019746
:10079000F1F7222321F08AB521508823B9F7089573
:1007A000982F80916701882329F09EBD0DB407FE24
:1007B000FDCF0895892FCDC4DF92EF92FF920F9362
:1007C0001F93DF93CF9300D000D0CDB7DEB7D82EE4
:1007D0008E010F5F1F4FC80164E070E040E050E001
:1007E0000E9466118091E8008B778093E8008091E9
:1007F00083018F708093E9008091EC008160809389
:10080000EC0085E0E82EF12CEC0EFD1EF801819144
:100810008F01C6DF0E151F05C9F7D092F1001092A7
:10082000F1001092F1008091E8008E778093E8004B
:100830000F900F900F900F90CF91DF911F910F911C
:10084000FF90EF90DF900895BF92CF92DF92EF92EA
:10085000FF920F931F93DF93CF93CDB7DEB7299706
:100860000FB6F894DEBF0FBECDBFB82ECE010596F1
:1008700065E070E040E050E00E9466118091E80081
:100880008B778093E800809183018F708093E900DB
:100890008091EC0081608093EC008E010A5F1F4F15
:1008A0007E010894E11CF11C9AE0C92ED12CCC0EDB
:1008B000DD1EF801908180916701882331F09EBD93
:1008C0000DB407FEFDCF8EB502C0892F42D4F701CB
:1008D00081937F010F5F1F4F0C151D0551F7B092DB
:1008E000F1001092F1008D81FE01E80FF11D808171
:1008F0008093F1001092F1008091E8008E77809350
:10090000E80029960FB6F894DEBF0FBECDBFCF9199
:10091000DF911F910F91FF90EF90DF90CF90BF90EC
:100920000895EF92FF920F931F93DF93CF93CDB76C
:10093000DEB7C250D1400FB6F894DEBF0FBECDBFB8
:10094000CE01019663E070E040E050E00E94661145
:1009500034E0E32EF12CEC0EFD1E6981C70170E03E
:1009600040E050E00E9466118091E8008B77809310
:10097000E800809183018F708093E9008091EC0002
:1009800081608093EC008DE18093F1001092F10082
:1009900000E00BC08981081728F4F701E00FF11D72
:1009A000808101C080E0FCDE0F5F8B81081790F32F
:1009B00010E024E0E22EF12CEC0EFD1E2CC089810B
:1009C00090916701081778F4F701E00FF11D80811D
:1009D000992331F08EBD0DB407FEFDCF8EB501C059
:1009E000B8D30F5F0AC0992331F01EBC0DB407FEC7
:1009F000FDCF8EB502C080E0ACD38093F100809132
:100A0000E80085FD07C08091E8008E778093E800BC
:100A10000E943D121F5F8A81181788F21092F10020
:100A20009091E8008091E8008E778093E80095FD32
:100A300009C00E943D128091E8008E778093E80003
:100A40000E943D12CE5FDE4F0FB6F894DEBF0FBEA0
:100A5000CDBFCF91DF911F910F91FF90EF9008953F
:100A6000EF92FF920F931F93DF93CF9300D000D0AC
:100A700000D0CDB7DEB7CE01019666E070E040E071
:100A800050E00E9466118091E8008B778093E80027
:100A9000809183018F708093E9008091EC008160E8
:100AA0008093EC008E010D5F1F4F47E0E42EF12C88
:100AB000EC0EFD1EF80181918F0172DE0E151F05EF
:100AC000C9F78A81882321F489815CDE90E002C025
:100AD0006BD3982F82E18093F1009093F100809185
:100AE000E8008E778093E80026960FB6F894DEBF74
:100AF0000FBECDBFCF91DF911F910F91FF90EF906F
:100B00000895DF92EF92FF920F931F93DF93CF939D
:100B100000D00F92CDB7DEB7F82ECE01019663E07C
:100B200070E040E050E00E94661199818A818983DB
:100B30009A838091E8008B778093E800809183010D
:100B40008F708093E9008091EC0081608093EC00CD
:100B5000F092F1001092F10000E010E068E0D62E73
:100B6000EE24E39459C080918401882319F03AD38C
:100B7000109284018B8114DE809185019091860111
:100B8000A0918701B0918801892F9A2FAB2FBB27A5
:100B900007DE8091850104DE80916701882331F0B2
:100BA0001EBC0DB407FEFDCF8EB502C080E0D1D2D1
:100BB0008093F1008091E80085FD07C08091E800F6
:100BC0008E778093E8000E943D1224E1F21619F41A
:100BD0008B818D258B8300FD03C086E1F816D1F44F
:100BE0008091850190918601A0918701B091880143
:100BF0000196A11DB11D8093850190938601A0935C
:100C00008701B093880126E1F21621F0892B11F4B7
:100C1000E09284010F5F1F4F89819A81081719079D
:100C200008F4A1CF1092F1009091E8008091E800C3
:100C30008E778093E80095FD09C00E943D12809157
:100C4000E8008E778093E8000E943D120F900F908D
:100C50000F90CF91DF911F910F91FF90EF90DF9058
:100C600008954F925F926F927F928F929F92AF9270
:100C7000BF92CF92DF92EF92FF920F931F93DF9379
:100C8000CF93CDB7DEB7C950D1400FB6F894DEBFD1
:100C90000FBECDBF182FCE01019669E070E040E095
:100CA00050E00E9466116A81798181E061307807A5
:100CB000A8F08091E8008B778093E8008091830111
:100CC0008F708093E9008091EC0081608093EC004C
:100CD0001093F10080EC8093F100DAC07A8369838D
:100CE000CE010A9640E050E00E94661189819A8107
:100CF0000A968F739070892B39F48091E8008B7776
:100D00008093E8000E943D128091E8008B778093E9
:100D1000E800809183018F708093E9008091EC005E
:100D200081608093EC00133111F4888401C08984C0
:100D30006090850170908601EE24FF24FAE0AF2ECA
:100D4000B12CAC0EBD1ECC24DD24E8E04E2E552483
:100D500053946DC0F50190800B81809184018823AC
:100D600019F040D2109284018D811ADD80918501A5
:100D700090918601A0918701B0918801892F9A2FC7
:100D8000AB2FBB270DDD809185010ADD892D08DDA4
:100D9000133119F48D8184258D83E114F10481F4DC
:100DA000981471F0C0FE05C0133119F48F8188606A
:100DB00002C08F81877F8F83E0908501F09086014C
:100DC00000FD12C0E114F10421F403FD02C0097F0B
:100DD0000260802FB701482D2C810F810CD2282F63
:100DE000882361F5EE24FF24C0FC02C01531C9F44C
:100DF0008091850190918601A0918701B091880131
:100E00000196A11DB11D8093850190938601A09349
:100E10008701B0938801133121F4892B11F450928A
:100E200084010894A11CB11C0894C11CD11C8981A7
:100E30009A81C816D90608F48DCF20E08B8187FFF0
:100E400023C08E81ADDC872DABDC862DA9DC80E054
:100E5000A7DC8B8185FF06C0E114F10419F48F7CB7
:100E600080618B838B81B701482D2C810F81C3D189
:100E7000282F133149F48091850190918601892BA7
:100E800019F481E0809384011093F1002093F10024
:100E90008091E8008E778093E800C75FDE4F0FB641
:100EA000F894DEBF0FBECDBFCF91DF911F910F91A0
:100EB000FF90EF90DF90CF90BF90AF909F908F907A
:100EC0007F906F905F904F9008950F931F93DF93E3
:100ED000CF9300D0CDB7DEB7CE01019662E070E0CF
:100EE00040E050E00E94661108EE10E0F8018081B9
:100EF0008B778083809183018F708093E900ECEE83
:100F0000F0E080818160808389813CDC80E0BAD11F
:100F1000F4D08A8137DCE1EFF0E081E18083108258
:100F2000F80180818E7780830F900F90CF91DF91B1
:100F30001F910F9108958F929F92AF92BF92CF927F
:100F4000DF92EF92FF920F931F93DF93CF93CDB772
:100F5000DEB72F970FB6F894DEBF0FBECDBFCE0120
:100F600005966BE070E040E050E00E9466118091D1
:100F7000E8008B778093E800809183018F708093E5
:100F8000E9008091EC0081608093EC001092850173
:100F90001092860110928701109288018F81F2DBF6
:100FA0007DD181E06FD18E81EDDBBCE08B2E912C69
:100FB0008C0E9D1E5E010894A11CB11CA0E1CA2EDE
:100FC000D12CCC0EDD1E2AC08985DCDBF801908196
:100FD00080916701882331F09EBD0DB407FEFDCFDF
:100FE0008EB502C0892FB5D0F70181937F010F5FC5
:100FF0001F4F0C151D0541F78B858823D1F0FE018D
:10100000E80FF11D90818A85981799F080E03AD118
:101010008E81B8DB81E036D18E81B4DB988599234F
:1010200051F08AB5882339F0915098878401750171
:10103000CBCF90E001C090EC80E18093F1009093E1
:10104000F1008091E8008E778093E8002F960FB62C
:10105000F894DEBF0FBECDBFCF91DF911F910F91EE
:10106000FF90EF90DF90CF90BF90AF909F908F90C8
:1010700008951F920F920FB60F9211248F93199912
:1010800008C08091800187FF02C02A9A1BC02A985D
:1010900019C080918001880F809380018091810127
:1010A00081508093810180918101882321F41092E5
:1010B000810082E086BB1B9B05C08091800181601E
:1010C00080938001199A8F910F900FBE0F901F90FF
:1010D00018953E9A10926F0010928500109284002D
:1010E00081E090E0909389008093880080E4809371
:1010F000800089E0809381000895809167018823B2
:1011000049F084B1897F84B985B1867F85B91CBCDB
:101110001DBC089584B1897F84B985B1867F85B966
:10112000D8CF92E090936F001092850010928400C7
:10113000E82FF0E0EE0FFF1FEC55FF4F85919491E3
:101140009093890080938800109280001092810013
:1011500008958093800188E08093810180918001CF
:1011600087FF02C02A9A01C02A9810928500109227
:1011700084008AE08093810080918101882319F0A6
:101180008AB58823C9F71092810080918001089563
:10119000982F80916701882329F09EBD0DB407FE2A
:1011A000FDCF0895892FD5CF80EFF2DF80E0F0DF0B
:1011B00080E0EEDF80916701882331F01EBC0DB422
:1011C00007FEFDCF8EB502C080E0C3DF80FF03C005
:1011D0008AB5882349F78AB5882311F481E80895F0
:1011E00080E008958DE4D4DF80E0D2DF8091870134
:1011F000CFDF80E0CDCFEF92FF920F931F937B0163
:10120000142F90E08E778830910581F18930910517
:1012100034F48230910559F0049759F50BC08032AF
:10122000910541F08034910509F1409711F5822F25
:10123000A9DA1FC0802FACDF8F2DAADF8E2DA8DF8B
:1012400080916701882331F01EBC0DB407FEFDCFED
:101250008EB502C080E07DDF811719F48AB588233E
:1012600049F78AB5882329F490E804C09DDF982FB8
:1012700001C090E084E68ABD892F1F910F91FF90F5
:10128000EF900895882339F0249A8EE938DA88237C
:1012900019F42C9A089524982C98089588E92FDA47
:1012A000E82F8730D8F481E080936701F0E0E451C3
:1012B000FE4FE491E061209A289A84B1866084B957
:1012C00023982B9AE6FF03C08DB5816002C08DB5CF
:1012D0008E7F8DBD2098E064ECBD0895109267016B
:1012E00084B1866084B985B1896085B98E2F19CFA4
:1012F000DF93CF930F92CDB7DEB7CE01019661E0B9
:1013000070E040E050E0E2D78091E8008B77809376
:10131000E800809183018F708093E9008091EC0058
:1013200081608093EC0099819093820181E58093A4
:10133000F100913011F480EC01C080E08093F10065
:101340008091E8008E778093E8000F90CF91DF9135
:101350000895AF92BF92CF92DF92EF92FF920F93D8
:101360001F93DF93CF93CDB7DEB7C850D1400FB6F0
:10137000F894DEBF0FBECDBFCE01019668E070E0ED
:1013800040E050E0A3D73B812C819D818E817F81FD
:1013900068856F8378878B839C832D833E83CE0102
:1013A000099640E050E092D78F81988509968F7317
:1013B0009070892B39F48091E8008B778093E80056
:1013C0000E943D128091E8008B778093E800809125
:1013D00083018F708093E9008091EC00816080939D
:1013E000EC0080918201882379F589818330A9F00E
:1013F000843028F4813069F08230A9F40CC0853043
:1014000031F0853008F44CC0863069F40AC088E0B9
:1014100048C044E209C04CE207C045E383E366E309
:1014200005C04AE101C04EE283E266E2EB80FC8047
:101430000D811E81AF80B8842A8199E0C92ED12CFC
:10144000CC0EDD1EFAD208C04F8158858B819C815D
:10145000BE01675F7F4F01D5882311F090E001C086
:1014600093E080E58093F10084E08093F100909315
:10147000F1008091E8008E778093E800C85FDE4F2E
:101480000FB6F894DEBF0FBECDBFCF91DF911F9195
:101490000F91FF90EF90DF90CF90BF90AF900895A5
:1014A0008CE44B815C816D817E8129852DD3D4CFE5
:1014B000DF93CF93CDB7DEB7C750D1400FB6F894C6
:1014C000DEBF0FBECDBFCE01019667E070E040E009
:1014D00050E0FCD69A81EB817C816D816A837B83AD
:1014E000EC839D833E812F812E833F838091E80092
:1014F0008B778093E800809183018F708093E9005F
:101500008091EC0081608093EC0080918201AE01BB
:10151000485F5F4F882319F48E2F18D304C0CB0186
:10152000BA01A901D2D4882311F493E001C090E05C
:1015300080E58093F10085E08093F1009093F100C5
:10154000992339F46E817F81CE01089640E050E006
:101550000FD78091E8008E778093E800C95FDE4F57
:101560000FB6F894DEBF0FBECDBFCF91DF910895C7
:10157000DF93CF93CDB7DEB729970FB6F894DEBFD0
:101580000FBECDBF8091F100843009F4B4C0853026
:1015900048F48230B1F1833008F052C0813009F054
:1015A00048C10AC0863009F4AAC0863008F4A5C034
:1015B000873009F03EC1E7C08091E8008B778093C7
:1015C000E800809183018F708093E9008091EC00A6
:1015D00081608093EC0080918201882311F4B6D35E
:1015E00005C0823011F090E002C0AFD4982F80E5A2
:1015F0008093F10081E08093F10089278093F100CE
:1016000013C18091E8008B778093E800809183017B
:101610008F708093E9008091EC0081608093EC00F2
:1016200080918201882311F486D301C083D480E5A0
:101630008093F10082E08093F1001092F100F4C0F9
:10164000CE01059665E070E040E050E03FD6588559
:1016500049857E816F814E835F836887798780911A
:10166000E8008B778093E800809183018F708093EE
:10167000E9008091EC0081608093EC008091820110
:101680009D81882339F59430C1F0953038F492303B
:1016900071F0933080F49130D1F40BC0963089F022
:1016A000963068F0973079F0983089F40EC080E277
:1016B0000FC080E40DC088E60BC080E309C082E261
:1016C00007C08AE205C082E303C088E101C080E070
:1016D0008DD207C0913011F084E101C080E1BA01E0
:1016E000A1D3882311F090E001C093E080E58093BE
:1016F000F10083E095C02DDE9CC0DADE9AC0CE01F9
:10170000059661E070E040E050E0E0D58091E800AF
:101710008B778093E800809183018F708093E9003C
:101720008091EC0081608093EC008091820188239D
:1017300011F091E013C08D81813021F0823021F4CD
:1017400089E303C088E301C088E7BE016F5F7F4F74
:10175000BAD2882311F493E001C090E080E5809331
:10176000F10086E08093F1009093F100992309F055
:101770005BC089819A81AB81BC819D01442755273B
:101780002093F1004DC08091F100833039F1843015
:1017900028F4813049F0823029F417C0843019F1DF
:1017A000853031F191E029C03091F1002091F100B4
:1017B0009091F1008091F10080936801909369010C
:1017C00020936A0130936B0117C09091F1008091D2
:1017D000F10080936C0190936D010EC08091F10037
:1017E00080936E0109C08091F10080936F0104C065
:1017F0008091F1008091F10090E08091E8008B777A
:101800008093E800809183018F708093E90080913C
:10181000EC0081608093EC0080E58093F10087E02C
:101820008093F1009093F1008091E8008E7780938F
:10183000E80029960FB6F894DEBF0FBECDBFCF915A
:10184000DF9108954D99FECF4D9BFECF4D99FECF70
:101850005B9A539A8091C9008F7E8093C9008091D2
:10186000C90088608093C90081E080938901089550
:1018700080918901882309F4E5DF80E04D99FECF4E
:101880004D9BFECF4D99FECF8F5F8C30B9F70895F9
:1018900010928901249A2C9880E991E00197F1F740
:1018A0008AB188628AB9529883E090E09093CD0023
:1018B0008093CC0088E08093C9008FE68093CA00B3
:1018C000D7DFD6CF109289018AB188628AB952983F
:1018D0005B9A80E991E00197F1F783E090E09093C3
:1018E000CD008093CC0088E08093C9008FE6809380
:1018F000CA00BEDFBDCF1F93182F809189018823B6
:1019000009F4A0DF8091C80085FFFCCF8091C8005A
:1019100080648093C8001093CE001F910895809139
:10192000C80086FFFCCF8091C80080648093C80007
:101930008091C900877F8093C9008091C900806130
:101940008093C90053985B98109289010895809103
:101950008901882309F0E3DF8091C80087FD03C077
:101960008AB58823C9F78091CE00089580918901B6
:10197000882309F0D4DF8091C800806C8093C80070
:101980001092C9001092CA008AB1877D8AB98BB1C2
:10199000837D8BB924982C980895809189018823A0
:1019A00009F0BDDF80EC8093C8001092C90010924E
:1019B000CA008AB1877D8AB98BB1837D8BB90895BE
:1019C000EF92FF920F931F937B018C01862F93DF81
:1019D000BB27A12F902F8F2D8EDFC801AA27BB27F1
:1019E0008ADFE12EFF24002711278E2D84DF1F912F
:1019F0000F91FF90EF90089590E0A0E0B0E020916B
:101A000068013091690140916A0150916B01822B0C
:101A1000932BA42BB52BBC01CD01D2CF8BE66BDF72
:101A20008FE0EADF80E267DF92DF982F8AB58823B4
:101A300019F097FDF7CF81E008957F928F929F92E2
:101A4000AF92BF92CF92DF92EF92FF920F931F93CC
:101A5000CF93DF93882E962E742EE601D22E20FF90
:101A600010C0DCDF882309F440C08CE444DF8AE046
:101A7000C3DF892D40DF8CE43EDF8BE0BDDF81E0FA
:101A80003ADFA114B104E9F0C9DF882371F18CE4D5
:101A900032DF8AE0B1DF882D2EDF8BE62CDFC80134
:101AA000B7018EDF80EA27DF8A2D815024DF84E6AC
:101AB00022DF899120DF0894A108B108A114B104A4
:101AC000C1F7D1FE10C0AADF882379F08CE413DFC0
:101AD0008AE092DF872D0FDF8CE40DDFC801B701AC
:101AE0006FDF80E008DF81E001C080E0DF91CF910F
:101AF0001F910F91FF90EF90DF90CF90BF90AF902C
:101B00009F908F907F900895CF92DF92EF92FF92F7
:101B10000F931F93D82E7A018B01C22E7FDF88236B
:101B200071F08CE4E8DE8AE067DF8D2DE4DE8CE482
:101B3000E2DEC801B70144DF8C2DDDDE81E01F91BC
:101B40000F91FF90EF90DF90CF900895CF92DF92AA
:101B5000EF92FF920F931F93CF93DF937B018C0142
:101B60006A01E9015BDF882369F18CE4C4DE8AE065
:101B700043DF83E4C0DEC230D105C8F08BE6BBDEB4
:101B8000C801B7011DDF80EAB6DE9E012150822F19
:101B9000B2DE84E2B0DE06C0DADEF60181936F01C8
:101BA000209769F08AB521978823B1F708C08CE0A7
:101BB000A2DEC801B70104DFCADEF60180838AB560
:101BC000811181E0DF91CF911F910F91FF90EF90F4
:101BD000DF90CF90089580E88EDEB9DE982F8AB529
:101BE000882319F091FFF7CF81E00895CF92DF921B
:101BF000EF92FF921F93182F6A017B010FDF88235A
:101C000009F45AC0103431F48CE475DE8AE0F4DE55
:101C100080E439C0103309F03DC08CE46CDE8AE00A
:101C2000EBDE86E368DE8CE466DE8BE0E5DE81E0F9
:101C300062DEF4DE882309F43FC08CE45CDE8AE0D7
:101C4000DBDE83E358DE8BE656DEC701B601B8DE85
:101C500080EA51DE80916C0181504DDE84E64BDEDE
:101C600010E003C080E047DE1F5F212F30E080914D
:101C70006C0190916D0128173907A0F38CE43BDECD
:101C80008AE0BADE80E337DE8CE435DE8BE0B4DE5A
:101C900081E00CC08CE42FDE8AE0AEDE812F2BDEEB
:101CA0008CE429DEC701B6018BDE80E024DE93DF01
:101CB000882319F081E001C080E01F91FF90EF9030
:101CC000DF90CF9008951F93CF93DF93182FEB01F0
:101CD000188219821A821B82A1DE882339F18CE4D2
:101CE0000ADE8AE089DE812F06DE8CE404DE8BE0EA
:101CF00083DE81E000DE6FDF8823C1F08FDE882382
:101D0000A9F08BE6F8DD84E077DE80EAF4DD82E09E
:101D1000F2DD84E2F0DD1BDE888319DE898317DEC5
:101D20008A838AB5882319F081E001C080E0DF91C1
:101D3000CF911F9108954FDF81ECDDDD80E0DBDD89
:101D400081E8D9DD04DE8823B9F727CEEF92FF9230
:101D50000F931F93DF93CF93CDB7DEB728970FB6BE
:101D6000F894DEBF0FBECDBFADDD81ECC4DD89E5EB
:101D7000C2DD82ECC0DD82E0BEDD80EEBCDD8E0126
:101D8000085F1F4F7E010894E11CF11CD701E0E7BA
:101D9000F1E088E001900D928150E1F7F801808137
:101DA000AADD015010400C171D0781F714DF28969B
:101DB0000FB6F894DEBF0FBECDBFCF91DF911F915C
:101DC0000F91FF90EF900895282F8F70806930E079
:101DD00020733070220F331F822B8DCD0F931F93F2
:101DE000182F092F88E687DD812F85DD89E683DDC1
:101DF000802F81DD1F910F91089520916F01822F17
:101E00008F70806130E020733070220F331F822B7F
:101E100072DD9DDD982F8AB5882319F097FDEDCFEF
:101E200081E008951F93CF93DF93182FEB01E5DF37
:101E3000882379F080916E01C7DF812F5CDDCE01B0
:101E40008160CCDF80E657DD80E055DDD6DF811193
:101E500081E0DF91CF911F910895EF92FF920F9350
:101E60001F93CF93DF937C018B01EA01C6DF8823A8
:101E700021F1C0FF06C0F801EC0FFD1F8FEF80833A
:101E8000219680916E01A0DF8DE135DDC701A6DFCF
:101E900010C0B3DF882389F084E62DDDF80180814E
:101EA0002ADD84E628DDF80181810E5F1F4F23DDE6
:101EB0002297209771F781E001C080E0DF91CF91F8
:101EC0001F910F91FF90EF900895EF92FF920F9363
:101ED0001F93CF93DF938C017B01EA018EDF882370
:101EE000B9F080916E0170DF80E005DDC80176DF1A
:101EF00006C084E200DD2BDDF70181937F0120978E
:101F000021F08AB521978823A1F78AB5811181E054
:101F1000DF91CF911F910F91FF90EF90089580E88E
:101F2000EADC15DD982F8AB5882319F091FFF7CFE9
:101F300081E00895F4DF80ECDEDC80E0DCDC80E82A
:101F4000DADC05DD8823B9F711CDEF92FF920F930C
:101F50001F93DF93CF93CDB7DEB728970FB6F894D2
:101F6000DEBF0FBECDBF94DC82ECC5DC82E0C3DCFB
:101F700080EEC1DC8E01085F1F4F7E010894E11CDA
:101F8000F11CD701E8E7F1E088E001900D92815063
:101F9000E1F7F8018081AFDC015010400C171D07FC
:101FA00081F7BDDF28960FB6F894DEBF0FBECDBF18
:101FB000CF91DF911F910F91FF90EF9008959C01B9
:101FC00040919201509193014617570718F4F90177
:101FD00090E03CC06115710511F0AB01F8CF809124
:101FE000E8008E778093E80040E050E0F0CF8EB3B9
:101FF000882309F440C0853009F43FC08091E8008F
:1020000083FD3DC08091E80082FD2FC08091E800F3
:1020100080FF1CC08091F200282F30E007C0819122
:102020008093F100415050402F5F3F4F41155105C3
:1020300019F02031310598F390E02031310509F491
:1020400091E08091E8008E778093E800411551057A
:1020500071F6992361F609C08EB3882361F085304B
:1020600061F08091E80083FD0AC08091E80082FF62
:10207000F3CF80E0089582E0089583E0089581E041
:1020800008959C0140919201509193014617570782
:1020900018F4F90190E03DC06115710511F0AB0134
:1020A000F8CF8091E8008E778093E80040E050E020
:1020B000F0CF8EB3882309F441C0853009F440C0C5
:1020C0008091E80083FD3EC08091E80082FD30C031
:1020D0008091E80080FF1DC08091F200282F30E041
:1020E00008C084918093F1003196415050402F5F99
:1020F0003F4F4115510519F02031310590F390E023
:102100002031310509F491E08091E8008E778093C9
:10211000E8004115510569F6992359F609C08EB3B7
:10212000882361F0853061F08091E80083FD0AC06A
:102130008091E80082FFF3CF80E0089582E0089567
:1021400083E0089581E00895EF92FF920F931F932B
:10215000CF93DF939C010091920110919301061798
:10216000170718F4790190E03EC06115710511F070
:102170008B01F8CF8091E8008E778093E80000E033
:1021800010E0F0CF8EB3882309F442C0853009F403
:1021900041C08091E80083FD3FC08091E80082FD4E
:1021A00031C08091E80080FF1EC08091F200C82FEE
:1021B000D0E00AC0C7019ED38093F1000894E11CCF
:1021C000F11C0150104021960115110519F0C03184
:1021D000D10580F390E0609709F491E08091E800E8
:1021E0008E778093E8000115110561F6992351F669
:1021F00009C08EB3882361F0853061F08091E800DA
:1022000083FD0AC08091E80082FFF3CF80E005C023
:1022100082E003C083E001C081E0DF91CF911F9194
:102220000F91FF90EF900895BF92CF92DF92EF92BF
:10223000FF920F931F93CF93DF938C01EB016A0101
:102240001CD1B82E8823B9F521970C0F1D1F21969C
:10225000C114D10439F0F60180819181C81BD90BDA
:10226000081B190BEE24FF2424C08091E80085FD93
:1022700016C08091E8008B778093E80027D3C114C3
:10228000D10449F0F601808191818E0D9F1D9183CB
:10229000808385E011C0F1D0882359F00DC0809172
:1022A000F100F80180830150104021970894E11C4F
:1022B000F11C2097D1F68B2DDF91CF911F910F91BB
:1022C000FF90EF90DF90CF90BF900895BF92CF9294
:1022D000DF92EF92FF920F931F93CF93DF93182F0C
:1022E000092F7B016A01C9D0B82E8823B1F5812F4F
:1022F000902F9C01E901C114D10439F0F6018081CD
:102300009181E81AF90AC80FD91F00E010E022C035
:102310008091E80085FD16C08091E8008B7780935E
:10232000E800D4D2C114D10449F0F6018081918132
:10233000800F911F9183808385E010C09ED08823F9
:1023400049F00CC08091F10089930894E108F108EC
:102350000F5F1F4FE114F104D9F68B2DDF91CF9160
:102360001F910F91FF90EF90DF90CF90BF90089555
:10237000BF92CF92DF92EF92FF920F931F93CF9372
:10238000DF93182F092F7B016A0177D0B82E88239D
:10239000B1F5812F902F9C01E901C114D10439F0CE
:1023A000F60180819181E81AF90AC80FD91F00E06F
:1023B00010E022C08091E80085FD16C08091E80001
:1023C0008E778093E80082D2C114D10449F0F601DF
:1023D00080819181800F911F9183808385E010C05F
:1023E0004CD0882349F00CC089918093F100089467
:1023F000E108F1080F5F1F4FE114F104D9F68B2DAE
:10240000DF91CF911F910F91FF90EF90DF90CF90D0
:10241000BF9008958F708093E9008091EB008160F8
:102420008093EB001092ED006093EC004093ED0080
:102430008091EE00881F8827881F089580918C0165
:1024400088238CF403C08EB38823B1F08091E80018
:1024500082FFF9CF8091E8008B778093E8000895A0
:102460008EB3882349F08091E80080FFF9CF8091F6
:10247000E8008E778093E80008954091E400509141
:10248000E50024E68091EC0080FF23C08091E80005
:1024900080FD1DC08EB3882311F482E0089585303D
:1024A00011F483E008958091EB0085FF02C081E084
:1024B00008958091E4009091E5008417950711F349
:1024C000222311F484E008952150AC01DBCF80E099
:1024D00008958091E80082FFDDCFF9CF3CD03ED057
:1024E0008091D8008F778093D8008091D800806841
:1024F0008093D8008091D8008F7D8093D80084E0AD
:1025000089BD86E089BD09B400FEFDCF1EBA1092D8
:102510008A0180E060E042E17DDF8091E1008E7F12
:102520008093E1008091E20081608093E2008091DD
:10253000E20088608093E2008091E0008E7F8093CB
:10254000E0000895E3E6F0E080818E7F808381E003
:1025500080938B01C3CF1092E20008951092E100A6
:1025600008951F920F920FB60F9211242F933F934D
:102570004F935F936F937F938F939F93AF93BF938B
:10258000EF93FF938091E10080FF17C08091E200FC
:1025900080FF13C08091E2008E7F8093E2008091E3
:1025A000E20080618093E2008091D8008062809395
:1025B000D80019BC1EBA0E9425018091E10084FF59
:1025C0002FC08091E20084FF2BC084E089BD86E0AB
:1025D00089BD09B400FEFDCF8091D8008F7D809326
:1025E000D8008091E1008F7E8093E1008091E2002D
:1025F0008F7E8093E2008091E20081608093E20010
:1026000080918A01882311F084E007C08091E30063
:1026100087FD02C081E001C083E08EBB0E942001E3
:102620008091E10083FF21C08091E20083FF1DC003
:102630008091E100877F8093E10082E08EBB109261
:102640008A018091E1008E7F8093E1008091E20019
:102650008E7F8093E2008091E20080618093E200AF
:1026600080E060E042E1D6DE30D1FF91EF91BF9192
:10267000AF919F918F917F916F915F914F913F911A
:102680002F910F900FBE0F901F9018951F93DF93FF
:10269000CF9300D00F92CDB7DEB7ECE8F1E0809198
:1026A000F100819381E0E439F807C9F70ED18091F8
:1026B000E80083FFF5C080918C0190918D019530E9
:1026C00009F46FC0963040F4913091F1913070F080
:1026D000933009F0E5C02CC0983009F4B3C09930AC
:1026E00009F4C2C0963009F0DBC07DC0803811F417
:1026F00090E014C0823809F0D3C0809190018F70AF
:102700008093E9008091EB0090E025E09695879515
:102710002A95E1F7982F91701092E9008091E800D6
:10272000877F8093E8009093F1001092F10095C0AC
:10273000882319F0823009F0B3C08F71823009F01C
:10274000AFC080918E01882331F5209190012F70C8
:1027500009F4A6C02093E9008091EB0080FF1BC024
:10276000933021F48091EB00806213C08091EB00E4
:1027700080618093EB0081E090E002C0880F991F98
:102780002A95E2F78093EA001092EA008091EB002C
:1027900088608093EB001092E9008091E800877FC9
:1027A0005FC0882309F07CC010918E011F77809153
:1027B000E3008078812B8093E3008091E800877F9D
:1027C0008093E8003BDE8091E80080FFFCCF8091A1
:1027D000E30080688093E300112311F482E001C0DC
:1027E00083E08EBB5DC08058823008F059C0809174
:1027F0008E0190918F0160919001AE014E5F5F4F0D
:102800009E012F5F3F4F0E942A01BC01009709F4EF
:1028100047C08091E800877F8093E80029812223C8
:1028200021F48A819B812DDC07C08A819B81213024
:1028300011F48ADC01C0C3DB8091E8008B778093C0
:10284000E8002EC0803861F58091E800877F809392
:10285000E80080918A018093F1008091E8008E77F2
:102860008093E800EBDD1CC08823D1F490918E01A9
:102870009230B0F48091E800877F8093E8009093D5
:102880008A01DCDD80918A01882331F48091E300A4
:1028900087FD02C081E001C084E08EBB0E9441013F
:1028A0008091E80083FF0AC08091E800877F8093D1
:1028B000E8008091EB0080628093EB000F900F9016
:1028C0000F90CF91DF911F91089508951F938EB3BC
:1028D000882371F01091E9008091EC001092E900DA
:1028E0008091E80083FF01C0D1DE1F701093E900E2
:1028F0001F910895F999FECF92BD81BDF89A99274D
:1029000080B50895262FF999FECF92BD81BDF89A22
:10291000019700B4021639F01FBA20BD0FB6F89423
:0C292000FA9AF99A0FBE0895F894FFCFC0
:10292C0009022000010100C0320904000002FF006E
:10293C0000000705000240000A0705020240000AD9
:10294C001C0330003000300032003000300030000A
:10295C0031003200330034003500000000004156D5
:10296C00524953505F4D4B32008001008101009061
:10297C0001009101019201299401219803069E0303
:10298C0001A10100A4030001C001000120003332A9
:10299C001289AB45CDD888FF1289AB45CDD888FFBD
:00000001FF
