:10000000F9C0000013C1000011C100000FC10000C1
:100010000DC100000BC1000009C1000007C10000B4
:1000200005C1000003C1000001C100000C940512CD
:10003000FDC00000FBC00000F9C000008AC700003E
:10004000F5C00000F3C00000F1C0000093C1000043
:10005000EDC00000EBC00000E9C00000E7C00000F8
:10006000E5C00000E3C00000E1C00000DFC0000008
:10007000DDC0000012011001FF000010EB0304219D
:10008000000201020301040309040C0341005400AF
:100090004D0045004C00000018034100560052007E
:1000A00049005300500020006D006B0049004900DA
:1000B000000009000A000A000B000C000D000D00F2
:1000C0000E000F00100010001200130013001400A7
:1000D00016001600180019001A001C001D001F0051
:1000E0002000220023002500270029002B002E00DD
:1000F00030003200340037003A003D004000430039
:1001000046004A004E00520055005A005E0063004F
:1001100068006D00730078007E0084008B00910001
:100120009900A000A900B100B900C300CC00D6001E
:10013000E100EC00F700040111011E012D013B015B
:100140004B015B016C017D019101A501BA01CF0159
:10015000E601FE01160231024C026A028802A80280
:10016000CA02ED021103380360038B03B803E703EF
:1001700018044B048104B904F50434057505B90568
:1001800001064E069D06EF064807A307040865080A
:10019000D0084009B6092B0AAB0A300BC30B510C2F
:1001A000EE0C8F0D400EF60EAF0F681047111412B3
:1001B000F512ED13E214F015F9161B185C19911ADB
:1001C000E51B251D831E0320AB21302332250F277D
:1001D000F128F82A1A2D492FA1311434A1364539B6
:1001E000173C1A3F34426045DF48704C40004101E3
:1001F0004243030011241FBECFEFD2E0DEBFCDBFCC
:1002000011E0A0E0B1E0E0EDF7E202C005900D9250
:10021000A038B107D9F711E0A0E8B1E001C01D9204
:10022000A339B107E1F750D00C94E613E9CE85B1BC
:100230008F71806C85B9089585B18F71806485B99F
:10024000089556C008958EB3843089F4C9D182E0F0
:100250008093E9008091E80082FF09C085B18F7129
:10026000806C85B99CD085B18F71806885B90895FF
:1002700082E060E842E30E945E1180FD02C090E4EB
:1002800001C090E885B18F71982B95B9089584B716
:10029000877F84BF88E10FB6F89480936000109246
:1002A00060000FBE80E090E020E80FB6F894209345
:1002B0006100809361000FBE84B1806E84B985B106
:1002C0008F7185B90C94F611E2DF82D185B18F71FF
:1002D000806485B97894489902C090E201C090E0AA
:1002E00085B18F7D982B95B9AEDF0E94B813F3CFFF
:1002F000DA01F9011082923049F0933069F09130BF
:1003000089F5E4E7F0E022E130E030C09083E0E0FE
:10031000F1E020E230E02AC0813059F0813028F04D
:10032000823059F08330F1F40EC0E6E8F0E08491B9
:1003300007C0EAE8F0E0849103C0E8E9F0E08491C6
:10034000282F30E013C080912001282F30E082E375
:1003500090E090932F0180932E0182E08083E0E271
:10036000F1E004C0E0E0F0E020E030E0ED93FC9349
:10037000C901089578941F920F920FB60F9211241D
:100380008F938AB5882321F08AB581508ABD01C038
:1003900015BC8F910F900FBE0F901F901895FF9274
:1003A0000F931F931091F10084E68ABD85E085BD0F
:1003B000143109F4CBC0153110F51A3009F4ADC071
:1003C0001B3068F4143038F4123008F054C0113087
:1003D00009F0D4C033C0163009F0D0C078C0113154
:1003E00009F4AFC0123120F4103109F0C7C0A7C022
:1003F000123109F4AEC0133109F0C0C0A4C01931E4
:1004000009F4ACC01A3168F4163109F49FC01631F2
:1004100008F499C0173109F4A1C0183109F0AEC031
:100420009AC01D3109F49DC01D3108F494C01035E7
:1004300009F49BC0113509F0A1C095C08091E80076
:100440008B778093E80082E08093E9008091EC0054
:1004500081608093EC001093F1001092F1008AE02B
:100460008093F1008EE391E06AE070E040E050E0BC
:100470000E940C1199C00091F100123011F0FF247C
:1004800002C0F090F1008091E8008B778093E80043
:1004900082E08093E9008091EC0081608093EC0021
:1004A0001093F100802FB5D0123041F481FF0DC0C0
:1004B0001092F100802F6F2DB4D076C080FF05C060
:1004C0001092F100802F9DD06DC080EC6BC084E84D
:1004D00091E064E070E040E050E00E94681080919C
:1004E000E8008B778093E80082E08093E9008091B8
:1004F000EC0081608093EC008091840190918501F3
:10050000A0918601B0918701B7FF03C081E080937D
:10051000830186E08093F1000FC08091E8008B7723
:100520008093E80082E08093E9008091EC00816094
:100530008093EC001093F1001092F10035C06DD45F
:1005400038C037D436C0812F04D333C0812F53D263
:1005500030C002D22EC0812FF7D02BC0812FAED059
:1005600028C05DD126C034D624C07AD722C080915D
:10057000E8008B778093E8000E9491118091F2004F
:100580008034A9F38091E8008B778093E80082E0C3
:100590008093E9008091EC0081608093EC001093DF
:1005A000F10089EC8093F1008091E8008E778093D0
:1005B000E80015BC0E94911182E08093E9008091CF
:1005C000EC008E7F8093EC001F910F91FF900895B7
:1005D0008BE987BD82E084BD80936E003AD0E9C488
:1005E0000895982FE9E4F1E08081981741F081E0C7
:1005F000E436F80711F03396F7CFE0E0F0E0CF01F2
:100600000895EFDFFC01009711F480E008958281E6
:100610000895E7DFFC01009711F480E008958181DF
:1006200008950F931F93182F062FDBDFFC0100970F
:1006300069F002831E3919F480E090E004C0183993
:1006400029F481E090E0602F0E94D4131F910F9154
:1006500008950F931F9380E090E00E94CC13182F11
:1006600081E090E00E94CC13082F1F3F21F08EE91B
:10067000B8DFFC0112830F3F21F088E9B2DFFC01F3
:1006800002831F910F910895282F40EA5FE003C075
:10069000CA010197F1F7222321F08AB5215088235E
:1006A000B9F70895982F80916701882329F09EBD9E
:1006B0000DB407FEFDCF0895892FBBC4DF92EF92E2
:1006C000FF920F931F93DF93CF9300D000D0CDB74D
:1006D000DEB7D82E8E010F5F1F4FC80164E070E0B7
:1006E00040E050E00E94BA108091E8008B77809340
:1006F000E80082E08093E9008091EC0081608093C3
:10070000EC0085E0E82EF12CEC0EFD1EF801819145
:100710008F01C8DF0E151F05C9F7D092F1001092A6
:10072000F1001092F1008091E8008E778093E8004C
:100730000F900F900F900F90CF91DF911F910F911D
:10074000FF90EF90DF900895BF92CF92DF92EF92EB
:10075000FF920F931F93DF93CF93CDB7DEB7299707
:100760000FB6F894DEBF0FBECDBFB82ECE010596F2
:1007700065E070E040E050E00E94BA108091E8002F
:100780008B778093E80082E08093E9008091EC0011
:1007900081608093EC008E010A5F1F4F7E010894F8
:1007A000E11CF11C9AE0C92ED12CCC0EDD1EF80103
:1007B000908180916701882331F09EBD0DB407FEC2
:1007C000FDCF8EB502C0892F34D4F70181937F010C
:1007D0000F5F1F4F0C151D0551F7B092F1001092DD
:1007E000F1008D81FE01E80FF11D80818093F10001
:1007F0001092F1008091E8008E778093E8002996AE
:100800000FB6F894DEBF0FBECDBFCF91DF911F9121
:100810000F91FF90EF90DF90CF90BF900895EF92EF
:10082000FF920F931F93DF93CF93CDB7DEB7C250E4
:10083000D1400FB6F894DEBF0FBECDBFCE010196FA
:1008400063E070E040E050E00E94BA1034E0E32E34
:10085000F12CEC0EFD1E6981C70170E040E050E014
:100860000E94BA108091E8008B778093E80082E0C4
:100870008093E9008091EC0081608093EC008DE131
:100880008093F1001092F10000E00BC089810817FD
:1008900028F4F701E00FF11D808101C080E002DF44
:1008A0000F5F8B81081790F310E024E0E22EF12C0B
:1008B000EC0EFD1E2CC0898190916701081778F419
:1008C000F701E00FF11D8081992331F08EBD0DB449
:1008D00007FEFDCF8EB501C0ACD30F5F0AC09923D0
:1008E00031F01EBC0DB407FEFDCF8EB502C080E016
:1008F000A0D38093F1008091E80085FD07C080912E
:10090000E8008E778093E8000E9491111F5F8A8132
:10091000181788F21092F1009091E8008091E80099
:100920008E778093E80095FD09C00E949111809117
:10093000E8008E778093E8000E949111CE5FDE4F31
:100940000FB6F894DEBF0FBECDBFCF91DF911F91E0
:100950000F91FF90EF900895EF92FF920F931F93E6
:10096000DF93CF9300D000D000D0CDB7DEB7CE015B
:10097000019666E070E040E050E00E94BA1080917D
:10098000E8008B778093E80082E08093E900809113
:10099000EC0081608093EC008E010D5F1F4F47E0FB
:1009A000E42EF12CEC0EFD1EF80181918F017ADE10
:1009B0000E151F05C9F78A81882321F4898164DE19
:1009C00090E002C061D3982F82E18093F100909370
:1009D000F1008091E8008E778093E80026960FB6AC
:1009E000F894DEBF0FBECDBFCF91DF911F910F9165
:1009F000FF90EF900895DF92EF92FF920F931F9375
:100A0000DF93CF9300D00F92CDB7DEB7F82ECE0193
:100A1000019663E070E040E050E00E94BA109981D6
:100A20008A8189839A838091E8008B778093E8009C
:100A300082E08093E9008091EC0081608093EC007B
:100A4000F092F1001092F10000E010E068E0D62E84
:100A5000EE24E39459C080918301882319F032D3A6
:100A6000109283018B811EDE80918401909185011B
:100A7000A0918601B0918701892F9A2FAB2FBB27B8
:100A800011DE809184010EDE80916701882331F0B0
:100A90001EBC0DB407FEFDCF8EB502C080E0C9D2EA
:100AA0008093F1008091E80085FD07C08091E80007
:100AB0008E778093E8000E94911124E1F21619F4D8
:100AC0008B818D258B8300FD03C086E1F816D1F460
:100AD0008091840190918501A0918601B091870158
:100AE0000196A11DB11D8093840190938501A0936F
:100AF0008601B093870126E1F21621F0892B11F4CB
:100B0000E09283010F5F1F4F89819A8108171907AF
:100B100008F4A1CF1092F1009091E8008091E800D4
:100B20008E778093E80095FD09C00E949111809115
:100B3000E8008E778093E8000E9491110F900F904B
:100B40000F90CF91DF911F910F91FF90EF90DF9069
:100B500008954F925F926F927F928F929F92AF9281
:100B6000BF92CF92DF92EF92FF920F931F93DF938A
:100B7000CF93CDB7DEB7C950D1400FB6F894DEBFE2
:100B80000FBECDBF182FCE01019669E070E040E0A6
:100B900050E00E94BA106A81798181E06130780763
:100BA00098F08091E8008B778093E80082E0809352
:100BB000E9008091EC0081608093EC001093F100DB
:100BC00080EC8093F100D8C07A836983CE010A96C5
:100BD00040E050E00E94BA1089819A810A968F7392
:100BE0009070892B39F48091E8008B778093E8002E
:100BF0000E9491118091E8008B778093E80082E059
:100C00008093E9008091EC0081608093EC001331C7
:100C100011F4888401C089846090840170908501FA
:100C2000EE24FF24FAE0AF2EB12CAC0EBD1ECC2476
:100C3000DD24E8E04E2E552453946DC0F5019080DC
:100C40000B8180918301882319F03CD2109283019B
:100C50008D8128DD8091840190918501A09186018C
:100C6000B0918701892F9A2FAB2FBB271BDD809175
:100C7000840118DD892D16DD133119F48D81842549
:100C80008D83E114F10481F4981471F0C0FE05C065
:100C9000133119F48F81886002C08F81877F8F8321
:100CA000E0908401F090850100FD12C0E114F10490
:100CB00021F403FD02C0097F0260802FB701482D97
:100CC0002C810F8108D2282F882361F5EE24FF2480
:100CD000C0FC02C01531C9F4809184019091850156
:100CE000A0918601B09187010196A11DB11D80934D
:100CF000840190938501A0938601B09387011331FD
:100D000021F4892B11F4509283010894A11CB11C89
:100D10000894C11CD11C89819A81C816D90608F48F
:100D20008DCF20E08B8187FF23C08E81BBDC872D98
:100D3000B9DC862DB7DC80E0B5DC8B8185FF06C091
:100D4000E114F10419F48F7C80618B838B81B701EE
:100D5000482D2C810F81BFD1282F133149F4809168
:100D6000840190918501892B19F481E0809383019E
:100D70001093F1002093F1008091E8008E7780932A
:100D8000E800C75FDE4F0FB6F894DEBF0FBECDBFE1
:100D9000CF91DF911F910F91FF90EF90DF90CF9057
:100DA000BF90AF909F908F907F906F905F904F908B
:100DB00008950F931F93DF93CF9300D0CDB7DEB785
:100DC000CE01019662E070E040E050E00E94BA106F
:100DD00008EE10E0F80180818B77808382E08093B9
:100DE000E900ECEEF0E080818160808389814CDC59
:100DF00080E0B8D1F2D08A8147DCE1EFF0E081E118
:100E000080831082F80180818E7780830F900F900D
:100E1000CF91DF911F910F9108958F929F92AF9282
:100E2000BF92CF92DF92EF92FF920F931F93DF93C7
:100E3000CF93CDB7DEB72F970FB6F894DEBF0FBEB6
:100E4000CDBFCE0105966BE070E040E050E00E941F
:100E5000BA108091E8008B778093E80082E080935D
:100E6000E9008091EC0081608093EC001092840195
:100E70001092850110928601109287018F8104DC07
:100E80007DD181E06FD18E81FFDBBCE08B2E912C78
:100E90008C0E9D1E5E010894A11CB11CA0E1CA2EFF
:100EA000D12CCC0EDD1E2AC08985EEDBF8019081A5
:100EB00080916701882331F09EBD0DB407FEFDCF00
:100EC0008EB502C0892FB5D0F70181937F010F5FE6
:100ED0001F4F0C151D0541F78B858823D1F0FE01AE
:100EE000E80FF11D90818A85981799F080E03AD13A
:100EF0008E81CADB81E036D18E81C6DB988599234D
:100F000051F08AB5882339F0915098878401750192
:100F1000CBCF90E001C090EC80E18093F100909302
:100F2000F1008091E8008E778093E8002F960FB64D
:100F3000F894DEBF0FBECDBFCF91DF911F910F910F
:100F4000FF90EF90DF90CF90BF90AF909F908F90E9
:100F500008951F920F920FB60F9211248F93199933
:100F600008C08091800187FF02C02A9A1BC02A987E
:100F700019C080918001880F809380018091810148
:100F800081508093810180918101882321F4109206
:100F9000810082E086BB1B9B05C08091800181603F
:100FA00080938001199A8F910F900FBE0F901F9020
:100FB00018953E9A10926F0010928500109284004E
:100FC00081E090E0909389008093880080E4809392
:100FD000800089E0809381000895809167018823D3
:100FE00049F084B1897F84B985B1867F85B91CBCFD
:100FF0001DBC089584B1897F84B985B1867F85B988
:10100000D8CF92E090936F001092850010928400E8
:10101000E82FF0E0EE0FFF1FEC55FF4F8591949104
:101020009093890080938800109280001092810034
:1010300008958093800188E08093810180918001F0
:1010400087FF02C02A9A01C02A9810928500109248
:1010500084008AE08093810080918101882319F0C7
:101060008AB58823C9F71092810080918001089584
:10107000982F80916701882329F09EBD0DB407FE4B
:10108000FDCF0895892FD5CF80EFF2DF80E0F0DF2C
:1010900080E0EEDF80916701882331F01EBC0DB443
:1010A00007FEFDCF8EB502C080E0C3DF80FF03C026
:1010B0008AB5882349F78AB5882311F481E8089511
:1010C00080E008958DE4D4DF80E0D2DF8091860156
:1010D000CFDF80E0CDCFEF92FF920F931F937B0184
:1010E000142F90E08E778830910581F18930910539
:1010F00034F48230910559F0049759F50BC08032D1
:10110000910541F08034910509F1409711F5822F46
:10111000BBDA1FC0802FACDF8F2DAADF8E2DA8DF9A
:1011200080916701882331F01EBC0DB407FEFDCF0E
:101130008EB502C080E07DDF811719F48AB588235F
:1011400049F78AB5882329F490E804C09DDF982FD9
:1011500001C090E084E68ABD892F1F910F91FF9016
:10116000EF900895882339F0249A8EE94ADA88238B
:1011700019F42C9A089524982C98089588E941DA56
:10118000E82F8730D8F481E080936701F0E0E451E4
:10119000FE4FE491E061209A289A84B1866084B978
:1011A00023982B9AE6FF03C08DB5816002C08DB5F0
:1011B0008E7F8DBD2098E064ECBD0895109267018C
:1011C00084B1866084B985B1896085B98E2F19CFC5
:1011D000DF93CF930F92CDB7DEB7CE01019661E0DA
:1011E00070E040E050E0C6D78091E8008B778093B4
:1011F000E80082E08093E9008091EC0081608093B8
:10120000EC0099819093820181E58093F100913007
:1012100011F480EC01C080E08093F1008091E8003F
:101220008E778093E8000F90CF91DF910895362F4D
:10123000272F692F782FC9010895AF92BF92CF92BF
:10124000DF92EF92FF920F931F93DF93CF93CDB76F
:10125000DEB7C850D1400FB6F894DEBF0FBECDBF89
:10126000CE01019668E070E040E050E083D76B81EA
:101270007C818D819E810F8118851F830887D7DF30
:101280006B837C838D839E83CE010996612F702FA3
:1012900040E050E06FD78F81988509968F739070EA
:1012A000892B39F48091E8008B778093E8000E94C5
:1012B00091118091E8008B778093E80082E0809321
:1012C000E9008091EC0081608093EC0080918201C4
:1012D000882379F589818330A9F0843028F481301E
:1012E00069F08230A9F40CC0853031F0853008F403
:1012F0004CC0863069F40AC088E048C044E209C0A6
:101300004CE207C045E383E366E305C04AE101C060
:101310004EE283E266E2EB80FC800D811E81AF80AD
:10132000B8842A8199E0C92ED12CCC0EDD1EF3D2CF
:1013300008C04F8158858B819C81BE01675F7F4FBC
:10134000EED4882311F090E001C093E080E5809313
:10135000F10084E08093F1009093F1008091E80027
:101360008E778093E800C85FDE4F0FB6F894DEBF3B
:101370000FBECDBFCF91DF911F910F91FF90EF90E6
:10138000DF90CF90BF90AF9008958CE44B815C814B
:101390006D817E81298526D3D4CFDF93CF93CDB7BE
:1013A000DEB7C750D1400FB6F894DEBF0FBECDBF39
:1013B000CE01019667E070E040E050E0DBD66A8144
:1013C0007B818C819D8133DF9B01AC016A837B83B0
:1013D0008C839D83BE81AF81AE83BF838091E80003
:1013E0008B778093E80082E08093E9008091EC00A5
:1013F00081608093EC0080918201FE013896882301
:1014000031F4CA01B901AF019D010ED304C0C90175
:10141000BF01AD01BCD4882311F493E001C090E07A
:1014200080E58093F10085E08093F1009093F100D6
:10143000992339F46E817F81CE01089640E050E017
:10144000EBD68091E8008E778093E800C95FDE4F8D
:101450000FB6F894DEBF0FBECDBFCF91DF910895D8
:10146000DF93CF93CDB7DEB729970FB6F894DEBFE1
:101470000FBECDBF9091F100943009F4B0C095300B
:1014800048F49230A1F1933008F04DC0913009F04A
:1014900040C10AC0963009F4A6C0963008F4A1C035
:1014A000973009F036C1E1C08091E8008B778093D6
:1014B000E80082E08093E9008091EC0081608093F5
:1014C000EC0080918201882311F4A2D305C0823000
:1014D00011F090E002C09BD4982F80E58093F1003A
:1014E00081E08093F10089278093F1000DC1809104
:1014F000E8008B778093E8009093E9008091EC00FE
:1015000081608093EC0080918201882311F475D36F
:1015100001C072D480E58093F10082E08093F100F5
:101520001092F100F1C0CE01059665E070E040E058
:1015300050E020D66E817F818885998578DEAB0169
:10154000BC014E835F83688779878091E8008B7741
:101550008093E80082E08093E9008091EC00816054
:101560008093EC00809182012D81882339F524300D
:10157000C1F0253038F4223071F0233080F421306E
:10158000D1F40BC0263089F0263068F0273079F08E
:10159000283089F40EC080E20FC080E40DC088E6D8
:1015A0000BC080E309C082E207C08AE205C082E383
:1015B00003C088E101C080E07BD207C0213011F078
:1015C00084E101C080E1BA018FD3882311F090E05B
:1015D00001C093E080E58093F10083E091C02DDEAF
:1015E00098C0DBDE96C0CE01059661E070E040E079
:1015F00050E0C0D58091E8008B778093E80082E0CE
:101600008093E9008091EC0081608093EC008091F0
:101610008201882311F091E013C08D81813021F087
:10162000823021F489E303C088E301C088E7BE016A
:101630006F5F7F4FAAD2882311F493E001C090E03E
:1016400080E58093F10086E08093F1009093F100B3
:10165000992309F059C089819A81AB81BC819D0190
:10166000442755272093F1004BC08091F10083302F
:1016700039F1843028F4813049F0823029F417C0E0
:10168000843019F1853031F191E029C03091F100B9
:101690002091F1009091F1008091F1008093680118
:1016A0009093690120936A0130936B0117C0909168
:1016B000F1008091F10080936C0190936D010EC058
:1016C0008091F10080936E0109C08091F1008093B8
:1016D0006F0104C08091F1008091F10090E0809151
:1016E000E8008B778093E80082E08093E9008091A6
:1016F000EC0081608093EC0080E58093F10087E04E
:101700008093F1009093F1008091E8008E778093B0
:10171000E80029960FB6F894DEBF0FBECDBFCF917B
:10172000DF9108954D99FECF4D9BFECF4D99FECF91
:101730005B9A539A8091C9008F7E8093C9008091F3
:10174000C90088608093C90081E080938801089572
:1017500080918801882309F4E5DF80E04D99FECF70
:101760004D9BFECF4D99FECF8F5F8C30B9F708951A
:1017700010928801249A2C9885E08A95F1F78AB115
:1017800088628AB952988FE190E09093CD0080935F
:10179000CC0088E08093C9008FE68093CA00D8DF30
:1017A000D7CF109288018AB188628AB952985B9A21
:1017B00085E08A95F1F78FE190E09093CD008093DA
:1017C000CC0088E08093C9008FE68093CA00C0DF18
:1017D000BFCF1F93182F80918801882309F4A2DFBF
:1017E0008091C80085FFFCCF8091C8008064809301
:1017F000C8001093CE001F9108958091C80086FF05
:10180000FCCF8091C80080648093C8008091C9009B
:10181000877F8093C9008091C90080618093C9004F
:1018200053985B98109288010895809188018823CD
:1018300009F0E3DF8091C80087FD03C08AB58823E3
:10184000C9F78091CE00089580918801882309F01E
:10185000D4DF8091C800806C8093C8001092C900CA
:101860001092CA008AB1877D8AB98BB1837D8BB90A
:1018700024982C98089580918801882309F0BDDF71
:1018800080EC8093C8001092C9001092CA008AB1FF
:10189000877D8AB98BB1837D8BB90895EF92FF92D2
:1018A0000F931F937B018C01862F93DFBB27A12F02
:1018B000902F8F2D8EDFC801AA27BB278ADFE12E4C
:1018C000FF24002711278E2D84DF1F910F91FF9099
:1018D000EF90089590E0A0E0B0E020916801309191
:1018E000690140916A0150916B01822B932BA42BCB
:1018F000B52BBC01CD01D2CF8BE66BDF8FE0EADFE9
:1019000080E267DF92DF982F8AB5882319F097FD70
:10191000F7CF81E008957F928F929F92AF92BF920E
:10192000CF92DF92EF92FF920F931F93CF93DF93AB
:10193000882E962E742EE601D22E20FF10C0DCDFFA
:10194000882309F440C08CE444DF8AE0C3DF892D9A
:1019500040DF8CE43EDF8BE0BDDF81E03ADFA114A5
:10196000B104E9F0C9DF882371F18CE432DF8AE049
:10197000B1DF882D2EDF8BE62CDFC801B7018EDFAB
:1019800080EA27DF8A2D815024DF84E622DF8991D7
:1019900020DF0894A108B108A114B104C1F7D1FE59
:1019A00010C0AADF882379F08CE413DF8AE092DF8D
:1019B000872D0FDF8CE40DDFC801B7016FDF80E0FA
:1019C00008DF81E001C080E0DF91CF911F910F918E
:1019D000FF90EF90DF90CF90BF90AF909F908F904F
:1019E0007F900895CF92DF92EF92FF920F931F9313
:1019F000D82E7A018B01C22E7FDF882371F08CE410
:101A0000E8DE8AE067DF8D2DE4DE8CE4E2DEC801EB
:101A1000B70144DF8C2DDDDE81E01F910F91FF9037
:101A2000EF90DF90CF900895CF92DF92EF92FF92E8
:101A30000F931F93CF93DF937B018C016A01E90120
:101A40005BDF882309F18CE4C4DE8AE043DF83E4B2
:101A5000C0DE8BE6BEDEC801B70120DF80EAB9DE5A
:101A60009E012150822FB5DE84E2B3DE04C0DDDEAC
:101A7000F60181936F01209721F08AB52197882381
:101A8000B1F78AB5811181E0DF91CF911F910F915C
:101A9000FF90EF90DF90CF90089580E89ADEC5DE4A
:101AA000982F8AB5882319F091FFF7CF81E0089528
:101AB000CF92DF92EF92FF921F93182F6A017B0162
:101AC0001BDF882309F45AC0103431F48CE481DE22
:101AD0008AE000DF80E439C0103309F03DC08CE4B7
:101AE00078DE8AE0F7DE86E374DE8CE472DE8BE07B
:101AF000F1DE81E06EDE00DF882309F43FC08CE474
:101B000068DE8AE0E7DE83E364DE8BE662DEC7013F
:101B1000B601C4DE80EA5DDE80916C01815059DE41
:101B200084E657DE10E003C080E053DE1F5F212F04
:101B300030E080916C0190916D0128173907A0F376
:101B40008CE447DE8AE0C6DE80E343DE8CE441DEDF
:101B50008BE0C0DE81E00CC08CE43BDE8AE0BADEC4
:101B6000812F37DE8CE435DEC701B60197DE80E0D9
:101B700030DE93DF882319F081E001C080E01F91FF
:101B8000FF90EF90DF90CF9008951F93CF93DF9356
:101B9000182FEB01188219821A821B82ADDE88236E
:101BA00039F18CE416DE8AE095DE812F12DE8CE4BA
:101BB00010DE8BE08FDE81E00CDE6FDF8823C1F06A
:101BC0009BDE8823A9F08BE604DE84E083DE80EAD6
:101BD00000DE82E0FEDD84E2FCDD27DE888325DE98
:101BE000898323DE8A838AB5882319F081E001C0C6
:101BF00080E0DF91CF911F9108954FDF81ECE9DD07
:101C000080E0E7DD81E8E5DD10DE8823B9F733CE3B
:101C1000EF92FF920F931F93DF93CF93CDB7DEB771
:101C200028970FB6F894DEBF0FBECDBFBADD81ECAA
:101C3000D0DD89E5CEDD82ECCCDD82E0CADD80EE50
:101C4000C8DD8E01085F1F4F7E010894E11CF11C66
:101C5000D701E0E7F1E088E001900D928150E1F7D3
:101C6000F8018081B6DD015010400C171D0781F787
:101C700014DF28960FB6F894DEBF0FBECDBFCF910C
:101C8000DF911F910F91FF90EF900895282F8F7093
:101C9000806930E020733070220F331F822B99CD82
:101CA0000F931F93182F092F88E693DD812F91DD65
:101CB00089E68FDD802F8DDD1F910F910895209192
:101CC0006F01822F8F70806130E020733070220F9F
:101CD000331F822B7EDDA9DD982F8AB5882319F06A
:101CE00097FDEDCF81E008951F93CF93DF93182FD9
:101CF000EB01E5DF882379F080916E01C7DF812F4A
:101D000068DDCE018160CCDF80E663DD80E061DDEF
:101D1000D6DF811181E0DF91CF911F910895EF927D
:101D2000FF920F931F93CF93DF937C018B01EA0106
:101D3000C6DF882321F1C0FF06C0F801EC0FFD1FAC
:101D40008FEF8083219680916E01A0DF8DE141DDD0
:101D5000C701A6DF10C0B3DF882389F084E639DD30
:101D6000F801808136DD84E634DDF80181810E5F83
:101D70001F4F2FDD2297209771F781E001C080E08F
:101D8000DF91CF911F910F91FF90EF900895EF9207
:101D9000FF920F931F93CF93DF938C017B01EA0196
:101DA0008EDF8823B9F080916E0170DF80E011DD55
:101DB000C80176DF06C084E20CDD37DDF7018193D0
:101DC0007F01209721F08AB521978823A1F78AB552
:101DD000811181E0DF91CF911F910F91FF90EF90E2
:101DE000089580E8F6DC21DD982F8AB5882319F064
:101DF00091FFF7CF81E00895F4DF80ECEADC80E02A
:101E0000E8DC81E8E6DC11DD8823B9F71DCDEF922F
:101E1000FF920F931F93DF93CF93CDB7DEB7289731
:101E20000FB6F894DEBF0FBECDBFA2DC82ECD1DCD2
:101E300082E0CFDC80EECDDC8E01085F1F4F7E019B
:101E40000894E11CF11CD701E8E7F1E088E001907B
:101E50000D928150E1F7F8018081BBDC0150104008
:101E60000C171D0781F7BDDF28960FB6F894DEBF6B
:101E70000FBECDBFCF91DF911F910F91FF90EF90DB
:101E800008959C0140919101509192014617570786
:101E900018F4F90190E03CC06115710511F0AB0137
:101EA000F8CF8091E8008E778093E80040E050E022
:101EB000F0CF8EB38823E9F18530E9F18091E80015
:101EC00083FF02C081E008958091E80082FD2BC06D
:101ED0008091E80080FF1CC08091F200282F30E044
:101EE00007C081918093F100415050402F5F3F4FD8
:101EF0004115510519F02031310598F390E020315A
:101F0000310509F491E08091E8008E778093E80034
:101F10004115510571F6992361F605C08EB38823EA
:101F200041F0853041F08091E80082FFF7CF80E0FA
:101F3000089582E0089583E008959C014091910105
:101F4000509192014617570718F4F90190E03FC0ED
:101F50006115710511F0AB01F8CF8091E8008E7723
:101F60008093E80040E050E0F0CF8EB3882309F47E
:101F70003FC0853009F43EC08091E80083FF02C075
:101F800081E008958091E80082FD2CC08091E800F6
:101F900080FF1DC08091F200282F30E008C084919E
:101FA0008093F1003196415050402F5F3F4F4115D3
:101FB000510519F02031310590F390E020313105C1
:101FC00009F491E08091E8008E778093E800411554
:101FD000510559F6992349F605C08EB3882341F07F
:101FE000853041F08091E80082FFF7CF80E00895CE
:101FF00082E0089583E00895EF92FF920F931F937C
:10200000CF93DF939C0100919101109192010617EB
:10201000170718F4790190E040C06115710511F0BF
:102020008B01F8CF8091E8008E778093E80000E084
:1020300010E0F0CF8EB3882309F440C0853009F456
:102040003FC08091E80083FF02C081E03AC08091E8
:10205000E80082FD2DC08091E80080FF1EC08091C5
:10206000F200C82FD0E00AC0C70196D38093F100D8
:102070000894E11CF11C0150104021960115110536
:1020800019F0C031D10580F390E0609709F491E038
:102090008091E8008E778093E8000115110551F6D4
:1020A000992341F605C08EB3882341F0853041F075
:1020B0008091E80082FFF7CF80E003C082E001C09A
:1020C00083E0DF91CF911F910F91FF90EF900895E2
:1020D000BF92CF92DF92EF92FF920F931F93CF9315
:1020E000DF938C01EB016A011CD1B82E8823B9F56E
:1020F00021970C0F1D1F2196C114D10439F0F60150
:1021000080819181C81BD90B081B190BEE24FF2479
:1021100024C08091E80085FD16C08091E8008B778F
:102120008093E80025D3C114D10449F0F6018081E1
:1021300091818E0D9F1D9183808385E011C0F1D028
:10214000882359F00DC08091F100F801808301507F
:10215000104021970894E11CF11C2097D1F68B2D9B
:10216000DF91CF911F910F91FF90EF90DF90CF9073
:10217000BF900895BF92CF92DF92EF92FF920F939C
:102180001F93CF93DF93182F092F7B016A01C9D0CA
:10219000B82E8823B1F5812F902F9C01E901C1143D
:1021A000D10439F0F60180819181E81AF90AC80F4B
:1021B000D91F00E010E022C08091E80085FD16C024
:1021C0008091E8008B778093E800D2D2C114D104CB
:1021D00049F0F60180819181800F911F9183808366
:1021E00085E010C09ED0882349F00CC08091F1009A
:1021F00089930894E108F1080F5F1F4FE114F1047F
:10220000D9F68B2DDF91CF911F910F91FF90EF9019
:10221000DF90CF90BF900895BF92CF92DF92EF9260
:10222000FF920F931F93CF93DF93182F092F7B01FA
:102230006A0177D0B82E8823B1F5812F902F9C01A9
:10224000E901C114D10439F0F60180819181E81AC5
:10225000F90AC80FD91F00E010E022C08091E80001
:1022600085FD16C08091E8008E778093E80080D2CB
:10227000C114D10449F0F60180819181800F911F32
:102280009183808385E010C04CD0882349F00CC036
:1022900089918093F1000894E108F1080F5F1F4FC6
:1022A000E114F104D9F68B2DDF91CF911F910F919D
:1022B000FF90EF90DF90CF90BF9008958F70809344
:1022C000E9008091EB0081608093EB001092ED00BB
:1022D0006093EC004093ED008091EE00881F88270A
:1022E000881F089580918B0188238CF403C08EB3DE
:1022F0008823B1F08091E80082FFF9CF8091E80057
:102300008B778093E80008958EB3882349F08091FD
:10231000E80080FFF9CF8091E8008E778093E80095
:1023200008954091E4005091E50024E68091EC008E
:1023300080FF23C08091E80080FD1DC08EB38823FC
:1023400011F482E00895853011F483E008958091BE
:10235000EB0085FF02C081E008958091E400909138
:10236000E5008417950711F3222311F484E0089502
:102370002150AC01DBCF80E008958091E80082FF1E
:10238000DDCFF9CF3CD03ED08091D8008F778093BD
:10239000D8008091D80080688093D8008091D800C0
:1023A0008F7D8093D80084E089BD86E089BD09B423
:1023B00000FEFDCF1EBA1092890180E060E042E18C
:1023C0007DDF8091E1008E7F8093E1008091E200CB
:1023D00081608093E2008091E20088608093E20057
:1023E0008091E0008E7F8093E0000895E3E6F0E0C6
:1023F00080818E7F808381E080938A01C3CF109299
:10240000E20008951092E10008951F920F920FB616
:102410000F9211242F933F934F935F936F937F936A
:102420008F939F93AF93BF93EF93FF938091E100BE
:1024300080FF17C08091E20080FF13C08091E2000E
:102440008E7F8093E2008091E20080618093E200C1
:102450008091D80080628093D80019BC1EBA0E9477
:102460001C018091E10084FF2DC08091E20084FF77
:1024700029C084E089BD86E089BD09B400FEFDCF96
:102480008091D8008F7D8093D8008091E1008F7E6D
:102490008093E1008091E2008F7E8093E200809142
:1024A000E20081608093E20080918901882331F409
:1024B0008091E30087FD02C081E001C084E08EBB13
:1024C0000E9417018091E10083FF21C08091E2000A
:1024D00083FF1DC08091E100877F8093E10082E04F
:1024E0008EBB109289018091E1008E7F8093E10084
:1024F0008091E2008E7F8093E2008091E200806113
:102500008093E20080E060E042E1D8DE30D1FF91CC
:10251000EF91BF91AF919F918F917F916F915F915B
:102520004F913F912F910F900FBE0F901F901895D4
:102530001F93DF93CF9300D00F92CDB7DEB7EBE8B8
:10254000F1E08091F100819381E0E339F807C9F768
:102550000ED18091E80083FFF5C080918B019091AE
:102560008C01953009F46FC0963040F4913091F1B0
:10257000913070F0933009F0E5C02CC0983009F428
:10258000B3C0993009F4C2C0963009F0DBC07DC0F9
:10259000803811F490E014C0823809F0D3C08091E3
:1025A0008F018F708093E9008091EB0090E025E02F
:1025B000969587952A95E1F7982F91701092E900EA
:1025C0008091E800877F8093E8009093F10010925B
:1025D000F10095C0882319F0823009F0B3C08F71E3
:1025E000823009F0AFC080918D01882331F52091B0
:1025F0008F012F7009F4A6C02093E9008091EB00B1
:1026000080FF1BC0933021F48091EB00806213C0E7
:102610008091EB0080618093EB0081E090E002C04C
:10262000880F991F2A95E2F78093EA001092EA003A
:102630008091EB0088608093EB001092E90080911C
:10264000E800877F5FC0882309F07CC010918D016E
:102650001F778091E3008078812B8093E300809145
:10266000E800877F8093E8003DDE8091E80080FFEE
:10267000FCCF8091E30080688093E300112311F484
:1026800082E001C083E08EBB5DC08058823008F0DC
:1026900059C080918D0190918E0160918F01AE01A2
:1026A0004E5F5F4F9E012F5F3F4F0E942101BC0193
:1026B000009709F447C08091E800877F8093E80085
:1026C0002981222321F48A819B8137DC07C08A81FA
:1026D0009B81213011F490DC01C0D3DB8091E800B4
:1026E0008B778093E8002EC0803861F58091E800F8
:1026F000877F8093E800809189018093F100809129
:10270000E8008E778093E800EDDD1CC08823D1F4CB
:1027100090918D019230B0F48091E800877F809392
:10272000E80090938901DEDD80918901882331F4EE
:102730008091E30087FD02C081E001C084E08EBB90
:102740000E9438018091E80083FF0AC08091E80070
:10275000877F8093E8008091EB0080628093EB009C
:102760000F900F900F90CF91DF911F9108950895D2
:102770001F938EB3882371F01091E9008091EC00D3
:102780001092E9008091E80083FF01C0D1DE1F7044
:102790001093E9001F910895F999FECF92BD81BD74
:1027A000F89A992780B50895262FF999FECF92BD02
:1027B00081BDF89A019700B4021639F01FBA20BD06
:1027C0000FB6F894FA9AF99A0FBE0895F894FFCFCD
:1027D00009022000010100C0320904000002FF00CC
:1027E00000000705820240000A0705020240000AB5
:1027F0001C03300030003000320030003000300068
:102800003100320033003400350000000000415632
:10281000524953505F4D4B320080010081010090BE
:1028200001009101019201309401219803069E0359
:1028300001A10100A4030001C00100012000333206
:102840001289AB45CDD888FF1289AB45CDD888FF1A
:00000001FF
