:100000000C9472000C948B000C948B000C948B005D
:100010000C948B000C948B000C948B000C948B0034
:100020000C948B000C948B000C948B000C948B0024
:100030000C948B000C948B000C948B000C948B0014
:100040000C948B000C948B000C948B000C948B0004
:100050000C948B000C948B000C948B000C948B00F4
:100060000C948B000C948B000C948B000C948B00E4
:100070000C948B000C948B000C948B000C948B00D4
:100080000C948B000C948B000C948B000C948B00C4
:100090000C948B000C948B000C948B000C948B00B4
:1000A0000C948B000C948B000C948B000C948B00A4
:1000B0000C948B000C948B000C948B000C948B0094
:1000C0000C948B000C948B000C948B000C948B0084
:1000D0000C948B000C948B000C948B000C948B0074
:1000E0000C948B0011241FBECFEFD1E2DEBFCDBF39
:1000F00000E00CBF12E0A0E0B2E0E0EFF1E000E0D1
:100100000BBF02C007900D92A030B107D9F70E9433
:100110008D000C94F6000C9400000F931F93CF9366
:10012000DF9380E090E00E94CD0080E29EE420E931
:1001300031E0F9013197F1F70197D9F780E890E0C4
:1001400060E870E040E850E020E830E00E94EE0017
:1001500080E69AEE20E931E0F9013197F1F7019755
:10016000D9F7C0E8D0E000E911E0CE0160E870E026
:1001700040E850E020E830E00E94EE00C73AD105A8
:100180001CF0C7EAD0E001C0219684EF91E0F801AD
:100190003197F1F70197D9F7E8CF91E894BD23E0C3
:1001A00025BD87BD90E894B916BC99EA9093A0004C
:1001B0002093A1008093A8008093AA008093AC00B4
:1001C0001092A9001092AB001092AD0088E38093CA
:1001D00001011092A4001092A500089587BD6093BC
:1001E000A8004093AA002093AC000895F894FFCF94
:00000001FF
