:100000000C9472000C948B000C948B000C948B005D
:100010000C948B000C948B000C948B000C948B0034
:100020000C948B000C948B000C948B000C948B0024
:100030000C948B000C948B000C948B000C948B0014
:100040000C948B000C948B000C948B000C948B0004
:100050000C948B000C948B000C948B000C948B00F4
:100060000C948B000C948B000C948B000C948B00E4
:100070000C948B000C948B000C948B000C948B00D4
:100080000C948B000C948B000C948B000C948B00C4
:100090000C948B000C948B000C948B000C948B00B4
:1000A0000C948B000C948B000C948B000C948B00A4
:1000B0000C948B000C948B000C948B000C948B0094
:1000C0000C948B000C948B000C948B000C948B0084
:1000D0000C948B000C948B000C948B000C948B0074
:1000E0000C948B0011241FBECFEFD1E2DEBFCDBF39
:1000F00000E00CBF12E0A0E0B2E0E8EEF1E000E0CA
:100100000BBF02C007900D92A030B107D9F70E9433
:100110008D000C94F2000C9400000F931F93CF936A
:10012000DF9380E090E00E94C90080E29EE420E935
:1001300031E0F9013197F1F70197D9F780E890E0C4
:1001400060E870E040E850E020E830E00E94EA001B
:1001500080E69AEE20E931E0F9013197F1F7019755
:10016000D9F7C0E8D0E000E41CE9CE0160E870E017
:1001700040E850E020E830E00E94EA00C43BD105AE
:100180001CF0C4EBD0E001C02196C8010197F1F743
:10019000ECCF91E894BD23E025BD87BD90E894B9EC
:1001A00016BC99EA9093A0002093A1008093A80028
:1001B0008093AA008093AC001092A9001092AB002B
:1001C0001092AD0088E3809301011092A400109278
:1001D000A500089587BD6093A8004093AA002093CE
:0801E000AC000895F894FFCF74
:00000001FF
