:100000000C9472000C9493000C9493000C94930045
:100010000C9493000C9493000C9493000C94930014
:100020000C9493000C9493000C9493000C94930004
:100030000C9493000C9493000C9493000C949300F4
:100040000C9493000C9488120C9493000C949300DD
:100050000C9493000C9493000C9493000C949300D4
:100060000C9493000C94C0010C9479010C949300AF
:100070000C9493000C9493000C9493000C949300B4
:100080000C9493000C9493000C9493000C949300A4
:100090000C9493000C9493000C9493000C94930094
:1000A0000C9493000C9493000C9493000C94930084
:1000B0000C9493000C9493000C9493000C94930074
:1000C0000C9493000C9493000C9493000C94930064
:1000D0000C9493000C9493000C9493000C94930054
:1000E0000C94930011241FBECFEFD1E2DEBFCDBF31
:1000F00000E00CBF12E0A0E0B2E0ECE3FCE200E0C4
:100100000BBF02C007900D92A035B107D9F718E0D8
:10011000A0E5B2E001C01D92A63DB107E1F70E9443
:1001200098000C941C160C9400000E94CF0F0895A8
:10013000EF92FF920F93DF93CF930F92CDB7DEB77D
:10014000CE01019660E570E041E050E00E94FE15AE
:1001500069816F5F698380E590E00E940E160E94BE
:100160001C0180E00E94151482E040E056E960E046
:1001700070E024E00E94F01482E00E9436140E9495
:10018000C2038CED90E060E072E045E550E020E0D5
:1001900030E003E0EE24FF240E94EB0983E00E949C
:1001A000E7120E94E40A80E090E00F90CF91DF9187
:1001B0000F91FF90EF9008951F9311E088EB9BE063
:1001C0000E94E70820910602309107024091080240
:1001D00050910902DA01C901880F991FAA1FBB1F9C
:1001E000820F931FA41FB51F8093060290930702EE
:1001F000A0930802B09309020E940E14813011F0FE
:10020000109350020E94E914813011F010935002B3
:100210000E942914813011F0109350020E9476023E
:10022000813011F01093500280915002882331F6F2
:1002300087E00E942401C2CF8FEF80930A0284B925
:1002400080910A0285B908951F93282F8830E8F419
:1002500081E090E002C0880F991F2A95E2F7182FDD
:100260000E94E00380910A02812329F080910A0212
:100270001095182303C080910A02182B10930A02CC
:1002800080910A0285B90E9422071F9108950F9359
:100290001F93282F062F8830D8F481E090E002C009
:1002A000880F991F2A95E2F7182F0E94E00301306A
:1002B00029F480910A021095182303C080910A0244
:1002C000182B10930A0280910A0285B90E94220716
:1002D0001F910F9108950FB6F8940F92E1ECF0E0A2
:1002E00080818F7D808380818F7780830F900FBE88
:1002F00008951F920F920FB60F920BB60F92112412
:100300002F933F934F935F936F937F938F939F931D
:10031000AF93BF93EF93FF93DF93CF930F920F921F
:10032000CDB7DEB78091530290915402BE016F5F4A
:100330007F4FAE014E5F5F4F0E94870C813021F4EA
:1003400089818093C60005C08091C1008F7D809314
:10035000C1000F900F90CF91DF91FF91EF91BF916E
:10036000AF919F918F917F916F915F914F913F914D
:100370002F910F900BBE0F900FBE0F901F901895EE
:100380001F920F920FB60F920BB60F9211242F935C
:100390003F934F935F936F937F938F939F93AF930D
:1003A000BF93EF93FF93DF93CF930F920F92CDB74D
:1003B000DEB71A828091C6008983809151029091A4
:1003C0005202BE016F5F7F4FAE014E5F5F4F20E074
:1003D0000E94D80C8A81882311F00E948B120F9002
:1003E0000F90CF91DF91FF91EF91BF91AF919F91CE
:1003F0008F917F916F915F914F913F912F910F90CE
:100400000BBE0F900FBE0F901F901895DF93CF93E8
:100410000F92CDB7DEB76983809153029091540259
:10042000BE016F5F7F4F20E00E94030E813011F00C
:1004300080E006C08091C10080628093C10081E0AD
:100440000F90CF91DF9108958091510290915202C7
:1004500020E00E94490D811181E00895DF92EF9222
:10046000FF920F931F937B018C01D42E0FB6F8944B
:100470000F92842F61E040E00E94F00E90935202B0
:10048000809351028D2D61E040E00E94F00E909328
:1004900054028093530294E0EE0CFF1C001F111FC6
:1004A0009A95D1F760E074E284EF90E0A80197019B
:1004B0000E94B81521503040404050402093C40065
:1004C000232F342F452F55272093C50088E980938B
:1004D000C10086E88093C2000F900FBE80E090E0DC
:1004E0001F910F91FF90EF90DF90089590E0809121
:1004F0005502882309F491E0892F0895F5E00F2E25
:10050000F6E01F2EF7E02F2EF8E03F2EF9E04F2EF9
:10051000FAE05F2EFBE06F2EFCE07F2EFDE08F2ED9
:10052000FEE09F2EFFE0AF2EF0E1BF2EF1E1CF2ED7
:10053000F2E1DF2EF3E1EF2EF4E1FF2E05E116E10B
:1005400027E138E149E15AE16BE17CE18DE19EE18F
:10055000AFE1B0E2E1E2F5E0F01100925502F6E021
:10056000F11100925502F7E0F21100925502F8E005
:10057000F31100925502F9E0F41100925502FAE0ED
:10058000F51100925502FBE0F61100925502FCE0D5
:10059000F71100925502FDE0F81100925502FEE0BD
:1005A000F91100925502FFE0FA1100925502F0E1B4
:1005B000FB1100925502F1E1FC1100925502F2E1AB
:1005C000FD1100925502F3E1FE1100925502F4E193
:1005D000FF1100925502F5E1F01300925502F6E189
:1005E000F11300925502F7E1F21300925502F8E17F
:1005F000F31300925502F9E1F41300925502FAE167
:10060000F51300925502FBE1F61300925502FCE14E
:10061000F71300925502FDE1F81300925502FEE136
:10062000F91300925502FFE1FA1300925502F0E22D
:10063000FB1300925502F1E2FE13009255025ECFC9
:10064000F1E00F2EF2E01F2EF3E02F2EF4E03F2E0C
:10065000F5E04F2EF6E05F2EF7E06F2EF8E07F2EEC
:10066000F9E08F2EFAE09F2EFBE0AF2EFCE0BF2ECC
:10067000FDE0CF2EFEE0DF2EFFE0EF2EF0E1FF2EBB
:1006800001E112E123E134E145E156E167E178E17E
:1006900089E19AE1ABE1BCE1EDE1F1E0F01100921A
:1006A0005502F2E0F11100925502F3E0F2110092CE
:1006B0005502F4E0F31100925502F5E0F4110092B6
:1006C0005502F6E0F51100925502F7E0F61100929E
:1006D0005502F8E0F71100925502F9E0F811009286
:1006E0005502FAE0F91100925502FBE0FA1100926E
:1006F0005502FCE0FB1100925502FDE0FC11009256
:100700005502FEE0FD1100925502FFE0FE1100923D
:100710005502F0E1FF1100925502F1E1F013009251
:100720005502F2E1F11300925502F3E1F213009247
:100730005502F4E1F31300925502F5E1F41300922F
:100740005502F6E1F51300925502F7E1F613009217
:100750005502F8E1F71300925502F9E1F8130092FF
:100760005502FAE1F91300925502FBE1FA130092E7
:100770005502FCE1FB1300925502FDE1FE130092CD
:1007800055025ECFEF92FF920F938EE792E06BE0FF
:1007900072E045E550E020E030E000E0EE24FF2488
:1007A0000E94EB0980E293E060E172E045E550E0F1
:1007B00020E030E00E94EB090F91FF90EF90089548
:1007C000809158028F5F8093580208950FB6F89475
:1007D0000F9220915B0230915C020F900FBEC90115
:1007E000089520915B0230915C02C90108958091C7
:1007F00061020895009721F480915602909157026A
:100800009C01275E3F4FC9010895809158028823BB
:1008100021F081E080935A02089510925A022091AB
:10082000590299E001C02150299FD0011124A959F2
:10083000BD4F8C918823B9F31196ED91FC911297DD
:100840000280F381E02D1296FC93EE931197CD0177
:100850000396E817F90731F48281938112969C93ED
:100860008E9311971196ED91FC9112978681978145
:100870009093570280935602209359020895FC01E9
:1008800080915F02808380915B0290915C029283F1
:1008900081830895FC01DB010FB6F8940F9240911B
:1008A0005B0250915C0290915F028081981729F061
:1008B0008181928148175907E0F4218132816D913D
:1008C0007C911197CA01821B930B8617970788F4B6
:1008D000241B350B260F371F2D933C9380915F020D
:1008E000808380915B0290915C029283818380E09F
:1008F00001C081E00F900FBE089581E080935A02FD
:100900000895E0915602F091570284859585A09153
:100910005602B0915702E0915602F0915702468973
:1009200024E030E0241B31091D963C932E931C9744
:100930000895009729F4E0915602F091570201C002
:10094000FC010FB6F8940F9285A1823011F080E07F
:1009500002C015A281E00F900FBE0895EF92FF92A2
:100960000F931F93CF93DF937B01EC012DA182E0C6
:100970008DA389A19AA1ABA1BCA10196A11DB11D16
:1009800089A39AA3ABA3BCA3213091F5809158020F
:100990008823A9F48E010E5F1F4FC8010E947D0FAE
:1009A0009E8980915902891710F49093590289E029
:1009B000989FC001112489599D4FB80105C0BE01FF
:1009C000645F7F4F81EA92E00E942C0FE091560213
:1009D000F09157029E898689891750F4E114F10439
:1009E00021F081E0F701808303C081E080935A0207
:1009F000DF91CF911F910F91FF90EF900895EF92AB
:100A0000FF920F931F93CF93DF93F801EC01011531
:100A1000110541F089A19AA1ABA1BCA1808391836A
:100A2000A283B3833DA182E08DA3223099F02330CD
:100A300018F4213019F505C02330E1F02430F1F429
:100A400015C089A19AA1ABA1BCA1842B952BA62B83
:100A5000B72B07C089A19AA1ABA1BCA10196A11D8A
:100A6000B11D89A39AA3ABA3BCA308C0323011F473
:100A700080E03AC049A35AA36BA37CA3313099F517
:100A8000809158028823A9F48E010E5F1F4FC80180
:100A90000E947D0F9E8980915902891710F49093CE
:100AA000590289E0989FC001112489599D4FB801CE
:100AB00005C0BE01645F7F4F81EA92E00E942C0F67
:100AC000E0915602F09157029E898689891758F461
:100AD000E114F10421F081E0F701808305C081E099
:100AE00080935A0201C081E0DF91CF911F910F9155
:100AF000FF90EF9008950F931F93CF93DF93FC0126
:100B0000706871836083C681D7810E947D0F8E01DA
:100B10000E5F1F4FC8010E947D0F9E898091590270
:100B2000891710F49093590289E0989FC00111240D
:100B300089599D4FB8010E942C0FE0915602F09107
:100B400057029E898689891710F080E003C081E0F2
:100B500080935A02DF91CF911F910F9108950F93C7
:100B60001F93CF93DF93DC011596ED91FC911697BF
:100B7000C681D7818E01045F1F4FC8010E947D0F7F
:100B8000809158028823A1F48E010E5F1F4FC80187
:100B90000E947D0F9E8980915902891710F49093CD
:100BA000590289E0989FC001112489599D4F02C0C4
:100BB00081EA92E0B8010E942C0FE0915602F09178
:100BC00057029E898689891710F080E003C081E072
:100BD00080935A02DF91CF911F910F910895CF9288
:100BE000DF92EF92FF920F931F93CF93DF93809149
:100BF0005802882309F0A6C000915B0210915C02A4
:100C00000F5F1F4F10935C0200935B0201151105EB
:100C100079F520919D0230919E0280919F029091E2
:100C2000A00290939E0280939D023093A002209395
:100C30009F0280915F028F5F80935F02E0919D022F
:100C4000F0919E028081882319F48FEF9FEF0CC0F2
:100C5000E0919D02F0919E020580F681E02D0680D4
:100C6000F781E02D8281938190935E0280935D02F3
:100C700080915D0290915E020817190708F44BC03D
:100C8000DD2449E0C42EE0919D02F0919E02808116
:100C9000882319F48FEF9FEF0EC0E0919D02F09131
:100CA0009E020580F681E02DC681D7818A819B81D5
:100CB0000817190728F490935E0280935D022CC0F8
:100CC00032E0E32EF12CEC0EFD1EC7010E947D0FD9
:100CD0008C899D89892B21F0CE010C960E947D0F75
:100CE0009E8980915902891710F4909359029C9D16
:100CF000C001112489599D4FB7010E942C0FE0912A
:100D00005602F09157029E898689981708F4BBCF46
:100D1000DD24D394B8CFDD24E0915602F091570240
:100D2000868990E0FC0123E0EE0FFF1F2A95E1F792
:100D3000E80FF91FE959FD4F8081823048F0DD242A
:100D4000D39406C0809160028F5F80936002DD249F
:100D500080915A02882311F0DD24D3948D2DDF91E8
:100D6000CF911F910F91FF90EF90DF90CF9008955A
:100D70000F931F93CF93DF93F801EC010FB6F89414
:100D80000F920115110541F089A19AA1ABA1BCA157
:100D900080839183A283B3833DA182E08DA322301F
:100DA00099F0233018F4213019F505C02330E1F013
:100DB0002430F1F415C089A19AA1ABA1BCA1842B68
:100DC000952BA62BB72B07C089A19AA1ABA1BCA1DB
:100DD0000196A11DB11D89A39AA3ABA3BCA308C012
:100DE000323011F480E027C049A35AA36BA37CA33F
:100DF000313001F58E010E5F1F4FC8010E947D0F3B
:100E00009E8980915902891710F49093590289E0C4
:100E1000989FC001112489599D4FB8010E942C0F41
:100E2000E0915602F09157029E898689891710F445
:100E30000E948B1281E00F900FBEDF91CF911F9126
:100E40000F910895EF92FF920F931F93CF93DF932B
:100E50000FB6F8940F9280915802815080935802F7
:100E600080915802882309F06CC080916102882328
:100E700009F467C0C0E0D0E059E0E52EFF24F39408
:100E800029C0E091A602F091A702C681D781CE01C8
:100E90000C960E947D0F8E010E5F1F4FC8010E94AD
:100EA0007D0F9E8980915902891710F49093590201
:100EB0009E9DC001112489599D4FB8010E942C0F9D
:100EC000E0915602F09157029E898689981710F09A
:100ED000F0925A028091A102882399F6CD2BD1F08D
:100EE000E0919D02F0919E028081882319F48FEF9A
:100EF0009FEF0CC0E0919D02F0919E020580F6816B
:100F0000E02D0680F781E02D8281938190935E022F
:100F100080935D0210916002112359F001E00E945C
:100F2000EF05882311F000935A021150C1F7109277
:100F3000600280915A02882321F00E948B1281E086
:100F400001C080E00F900FBEDF91CF911F910F91F4
:100F5000FF90EF9008950F931F93CF93DF93EC01D1
:100F600000915B0210915C028091560290915702B1
:100F700002960E947D0FC00FD11FE0915602F091A2
:100F80005702D383C283C017D10768F480919F02B0
:100F90009091A00260915602709157026E5F7F4F50
:100FA0000E944B0F17C080919D0290919E0260910C
:100FB0005602709157026E5F7F4F0E944B0F8091D7
:100FC0005D0290915E02C817D90720F4D0935E02AB
:100FD000C0935D02DF91CF911F910F9108956F92A1
:100FE0007F928F929F92AF92BF92CF92DF92EF92B9
:100FF000FF920F931F93CF93DF935B016C01390135
:101000004A01E8010FB6F8940F92E0915602F09170
:10101000570285A1823019F1E0915602F0915702F2
:1010200081A192A1A3A1B4A1A094B094C094D094A2
:101030008A219B21AC21BD2181A392A3A3A3B4A3A8
:10104000E0915602F091570281E085A3E114F1048A
:1010500031F0C70161E00E94AB070E948B120F9034
:101060000FBE0FB6F8940F92209761F0E0915602F0
:10107000F091570281A192A1A3A1B4A18883998381
:10108000AA83BB83E0915602F091570285A181307B
:1010900011F480E015C0E0915602F091570281A151
:1010A00092A1A3A1B4A1609470948094909486219D
:1010B0009721A821B92181A392A3A3A3B4A381E07E
:1010C000E0915602F091570215A20F900FBEDF91EA
:1010D000CF911F910F91FF90EF90DF90CF90BF9035
:1010E000AF909F908F907F906F9008951F93182FCF
:1010F0000FB6F8940F92E0915602F091570281A139
:1011000092A1A3A1B4A10097A105B10579F4E09142
:101110005602F091570281E085A36115710531F007
:10112000CB0161E00E94AB070E948B120F900FBEB3
:101130000FB6F8940F92E0915602F091570221A158
:1011400032A143A154A12115310541055105D9F022
:10115000112349F0E0915602F091570211A212A218
:1011600013A214A210C0E0915602F0915702215030
:1011700030404040504021A332A343A354A32F5FEB
:101180003F4F4F4F5F4FE0915602F091570215A22B
:101190000F900FBEB901CA011F9108950F931F93BD
:1011A0008A01E0915602F091570270687587648752
:1011B0006091560270915702645F7F4F0E942C0F1E
:1011C000C80161E00E94AB071F910F9108959C0137
:1011D000009769F0809158028F5F80935802C9018F
:1011E00060E00E94AB070E942207882311F40E944E
:1011F0008B120895FC01809158028F5F80935802F2
:1012000040915B0250915C0220813181620F731F1B
:101210004217530728F46217730728F080E008C0CC
:101220006217730720F080E04617570708F481E043
:1012300071836083882331F0CB01841B950B60E0C0
:101240000E94AB070E942207882311F40E948B1290
:1012500008950F931F938B0160915602709157026E
:10126000645F7F4F0E944B0FC80161E00E94AB0793
:101270001F910F910895F894109262020E942A1211
:1012800008950F931F932CC0809158028F5F809315
:1012900058021091AA020E942207112309F10FB6E9
:1012A000F8940F92E091AF02F091B002068117819D
:1012B000C80102960E947D0F809161028150809347
:1012C0006102809165028150809365020F900FBE8C
:1012D000F8018789908D0E946611C8010E946611ED
:1012E00080916502882381F680916702823010F038
:1012F0000E948B120E949500F3CF0F931F93CF9300
:10130000DF930FB6F8940F92009729F4C09156021C
:10131000D091570201C0EC018E010E5F1F4FC80132
:101320000E947D0F8C899D89892B21F0CE010C961E
:101330000E947D0F809166028F5F8093660280918C
:10134000560290915702C817D90759F48AEA92E0D9
:10135000B8010E942C0F809165028F5F8093650217
:1013600026C0809161028150809361028F89988D9F
:101370000E946611CE010E946611E0919D02F091DB
:101380009E028081882319F48FEF9FEF0CC0E091BB
:101390009D02F0919E020580F681E02D0680F78186
:1013A000E02D8281938190935E0280935D020F9085
:1013B0000FBE80916202882349F08091560290917D
:1013C0005702C817D90711F40E948B12DF91CF91F1
:1013D0001F910F9108954F925F926F927F928F921B
:1013E0009F92AF92BF92CF92DF92EF92FF920F93B4
:1013F0001F93CF93DF932C01162F972E6A0139018B
:101400005701CA010E9476117C01009799F086E28B
:1014100090E00E947611EC01009749F0F88EEF8A77
:10142000812F992D9C01F901DE0190E005C0C701D3
:101430000E9466118FEFB7C0808159968C9359979F
:101440008081882329F09F5F319611969830A1F70B
:1014500018A2043008F003E00E8B72E0872E912C66
:101460008C0E9D1EC4010E94280FCE010C960E9476
:10147000280FD987C88784E090E0801B91099D8759
:101480008C87DB8BCA8B19A21AA21BA21CA21DA2DD
:101490000894C108D108C7018C0D9D1DB201A3019C
:1014A0000E94A81199838883A114B10419F0F50151
:1014B000D183C0830FB6F8940F92809161028F5F41
:1014C000809361028091560290915702892BA9F571
:1014D000D0935702C0935602809161028130E9F5A2
:1014E00087E692E00E94180F80E792E00E94180FB2
:1014F00089E792E00E94180F82E892E00E94180F9C
:101500006BE8E62E62E0F62EC7010E94180F04E990
:1015100012E0C8010E94180F81EA92E00E94180FA1
:101520008AEA92E00E94180FF0929E02E0929D02D9
:101530001093A00200939F0210C080916202882342
:1015400061F4E0915602F091570296898E898917CD
:1015500020F0D0935702C0935602809166028F5FAD
:10156000809366029E8980915902891710F49093A6
:10157000590289E0989FC001112489599D4FB401F7
:101580000E942C0F0F900FBE80916202882351F0B1
:10159000E0915602F091570296898E89981710F4BF
:1015A0000E948B1281E0DF91CF911F910F91FF90EC
:1015B000EF90DF90CF90BF90AF909F908F907F90F3
:1015C0006F905F904F900895EF92FF920F9381E498
:1015D00099E065E172E045E550E020E030E000E0B0
:1015E000E3E6EE2EE2E0FE2E0E94EB09813081F46C
:1015F000F8948FEF9FEF90935E0280935D0281E0FD
:101600008093620210925C0210925B020E94F011C1
:101610000F91FF90EF9008950FB6F8940F92FC0190
:10162000828D0F900FBE0895FC010FB6F8940F92B3
:10163000928D0F900FBE838D891B0895FC01828DC2
:101640000895FC01828D90E0882309F491E0892FB0
:101650000895FC01928D20E0838D981709F421E014
:10166000822F08950F931F93CF93DF93EC01042FE4
:101670001A8D4C8D4423C1F10023B1F48C819D81DE
:1016800050E00E94F5158C8D2C813D81280F311D75
:101690003D832C838A819B812817390728F1888113
:1016A00099819D838C8320C08E819F8150E00E9410
:1016B000F5158C8D90E044275527481B590B8E81DA
:1016C0009F81840F951F9F838E8328813981821784
:1016D000930730F48A819B81840F951F9F838E83AB
:1016E000023011F4111111501F5F1A8F80E0DF9149
:1016F000CF911F910F910895FC01562FA72F248D94
:101700002223B9F086819781820F911D978386836A
:10171000228133818217930720F080819181978302
:101720008683448D66817781852F9A2F50E00E94B1
:10173000F51508950F931F93CF93DF93EC018A8DD6
:10174000882341F00E811F81CE010E947C0B1F83F4
:101750000E8381E0DF91CF911F910F9108950F9338
:101760001F93CF93DF93FB018A01EC018A8D8823BD
:1017700061F18C8D2E813F81280F311D3F832E8397
:101780008A819B812817390720F0888199819F835E
:101790008E838A8D81508A8F4C8D6E817F81CF019F
:1017A00050E00E94F515F8018081882369F488854E
:1017B000882351F0CE0108960E94A70F882321F0BC
:1017C00081E0F801808301C081E0DF91CF911F911A
:1017D0000F9108951F93CF93DF93142FEC019A8DEF
:1017E0008B8D981788F4CE0140E00E94320B1123B4
:1017F00059F48989882341F0CE0141960E94A70FB0
:10180000482F811141E0142F812FDF91CF911F913B
:101810000895CF93DF93FB01EC01F8948A8D882320
:1018200071F44115510541F06196CA01BE010E9453
:10183000AF1078948CEF2FC0789480E02CC078940F
:10184000F8948A8D882331F18C8D2E813F81280F69
:10185000311D3F832E838A819B812817390720F011
:10186000888199819F838E838A8D81508A8F4C8D48
:101870006E817F81CF0150E00E94F5158885882315
:1018800041F0CE0108960E94A70F882311F08BEF3C
:1018900001C081E07894DF91CF910895CF93DF93D9
:1018A000EC01F8940FB6F8940F928A8D9B8D0F90EF
:1018B0000FBE891771F44115510541F02896CA01F0
:1018C000BE010E94AF1078948CEF1BC0789480E02A
:1018D00018C07894F8948A8D891710F080E010C0B1
:1018E000CE0140E00E94320B8989882341F0CE016D
:1018F00041960E94A70F882311F08BEF01C081E071
:101900007894DF91CF9108950E9466110895EF9227
:10191000FF920F931F93CF93DF937A01EC011A8DFF
:10192000112311F480E01AC00D8D0E947C0B115020
:101930001A8F0F3F81F48885882379F0CE010896AD
:101940000E94AF05882349F0E114F10431F081E0F1
:10195000F701808303C00F5F0D8F81E0DF91CF918E
:101960001F910F91FF90EF900895CF93DF93EB01BC
:10197000FC01928D838D981710F080E016C0868D43
:101980009F5F928F8F3F71F48189882369F0CF0127
:1019900041960E94AF05882339F0209729F081E015
:1019A000888303C08F5F868F81E0DF91CF91089598
:1019B000EF92FF921F93CF93DF937A01EC019A8D00
:1019C0008B8D981720F0223011F080E01AC01E8D08
:1019D000CE01422F0E94320B1F3F81F48989882358
:1019E00079F0CE0141960E94AF05882349F0E114B9
:1019F000F10431F081E0F701808303C01F5F1E8F87
:101A000081E0DF91CF911F91FF90EF900895EF92C9
:101A1000FF921F93CF93DF93EC010FB6F8940F92D0
:101A20001E8D91E1E92EF12CEC0EFD1E0BC0898973
:101A3000882351F0C7010E94AF05882311F00E944E
:101A40007D04115011169CF38FEF8E8F0F900FBEF7
:101A50000FB6F8940F921D8D88E0E82EF12CEC0E55
:101A6000FD1E0BC08885882351F0C7010E94AF0579
:101A7000882311F00E947D04115011169CF38FEF02
:101A80008D8F0F900FBEDF91CF911F91FF90EF9040
:101A900008956F927F928F929F92AF92BF92CF9252
:101AA000DF92EF92FF920F931F93DF93CF9300D0BB
:101AB0000F920F92CDB7DEB74B015D834C83E22EC0
:101AC0008C0141E1A42EB12CA80EB91E20E06E01BC
:101AD0000894C11CD11C34E0632E712C6C0E7D1E49
:101AE00001C021E00FB6F8940F92F801F28CFF20AC
:101AF00011F1C680D780C801B4010E947C0BEE2092
:101B000049F4FA94F801F28E8085882381F0C801A7
:101B1000089607C0F801D782C6828189882339F0E8
:101B2000C5010E94AF05882311F00E948B120F900F
:101B30000FBE81E054C08C819D81892B21F40F90D0
:101B40000FBE80E04CC0222319F4C6010E943F045E
:101B50000F900FBE0E94E0030FB6F8940F92F801A9
:101B6000858D8F3F09F4158EF801868D8F3F09F41E
:101B7000168E0F900FBEC601B3010E944A0488233F
:101B8000F9F40FB6F8940F92F801828D0F900FBE02
:101B9000882381F46C817D81C5010E942909C801D7
:101BA0000E94070D0E942207882309F09ACF0E9405
:101BB0008B1297CFC8010E94070D0E94220791CF78
:101BC000C8010E94070D0E9422070FB6F8940F92D9
:101BD000F801828D0F900FBE882309F082CF0F90FD
:101BE0000F900F900F900F90CF91DF911F910F9159
:101BF000FF90EF90DF90CF90BF90AF909F908F902D
:101C00007F906F9008956F927F929F92AF92BF9254
:101C1000CF92DF92EF92FF920F931F93DF93CF93B8
:101C200000D00F920F92CDB7DEB76B015D834C836E
:101C3000922E8C0168E0E62EF12CE80EF91E20E0D1
:101C40005E010894A11CB11C54E0652E712C6C0E31
:101C50007D1E01C021E00FB6F8940F92F801928D1D
:101C6000838D981718F0F2E09F16C9F4C801B601E9
:101C7000492D0E94320B982FF8018189882339F071
:101C8000C80141960E94AF05882329F002C099231C
:101C900011F00E948B120F900FBE81E04CC08C811E
:101CA0009D81892B19F40F900FBE44C0222319F493
:101CB000C5010E943F040F900FBE0E94E0030FB6C3
:101CC000F8940F92F801858D8F3F09F4158EF80175
:101CD000868D8F3F09F4168E0F900FBEC501B3019C
:101CE0000E944A04882309F50FB6F8940F92F80170
:101CF000928D0F900FBEF801838D981781F46C813F
:101D00007D81C7010E942909C8010E94070D0E9418
:101D10002207882309F09ECF0E948B129BCFC80117
:101D20000E94070D0E94220795CFC8010E94070D4F
:101D30000E94220780E00F900F900F900F900F905D
:101D4000CF91DF911F910F91FF90EF90DF90CF9097
:101D5000BF90AF909F907F906F900895CF93DF9347
:101D6000EC010FB6F8940F92EC8D2B8DE29FC00121
:101D7000112448815981840F951F9B838A831A8E71
:101D80005D834C8330E021503040F0E02E9FC00155
:101D90002F9F900D3E9F900D1124480F591F5F8378
:101DA0004E838FEF8D8F8E8F662361F48885882315
:101DB00089F0CE0108960E94AF05882359F00E9451
:101DC0008B1208C0CE0108960E94180FCE014196D2
:101DD0000E94180F0F900FBE81E0DF91CF91089500
:101DE0000F931F93CF93DF93082F162F662319F4B9
:101DF00080E090E003C0689FC00111244F960E94CC
:101E00007611EC01009771F0112319F499838883FE
:101E100003C04F96998388830B8F1C8FCE0161E09E
:101E20000E94AE0ECE01DF91CF911F910F910895C8
:101E3000FC019C012D5F3F4F328321838FEF9FEF89
:101E40009483838336832583308727831082089584
:101E5000FC01118610860895AC01FC01A181B281BC
:101E6000FB01B383A28314968D919C911597958362
:101E700084831496ED91FC91159773836283159674
:101E80007C936E931497FB0151874087FA01808100
:101E90008F5F80830895CF93DF939C01EB0148818E
:101EA00059818FEF4F3F580721F4F901A781B08581
:101EB0000DC0D90113961296ED91FC911397808174
:101EC00091814817590710F0DF01F5CF1296ED9177
:101ED000FC911397FB83EA83D583C483BD83AC83D2
:101EE0001396DC93CE93129739872887F901808166
:101EF0008F5F8083DF91CF910895CF93DF93DC01D3
:101F00001896CD91DC91199712964D915C9113978B
:101F100014968D919C911597FA019583848314965C
:101F20002D913C911597F9015383428389819A81C0
:101F30008A179B0711F43A83298319961C921E92E3
:101F40001897888181508883DF91CF910895EF920F
:101F5000FF920F931F93DC011596ED91FC9116975C
:101F6000E680F7808701045F1F4FC8010E947D0F44
:101F700084EE92E0B8010E942C0F20E0E091B302C1
:101F8000F091B402D70156969C918689981708F073
:101F900021E0822F1F910F91FF90EF900895FF9203
:101FA0000F931F93CF93DF9399E0F92E21C0F894FC
:101FB000E091E902F091EA0206811781C8010C96CE
:101FC0000E947D0F7894E8012296CE010E947D0F39
:101FD000F80196898091B502891710F49093B502A3
:101FE0009F9DC001112484549D4FBE010E942C0F5F
:101FF0008091E4028823D9F60E94E6032091B6027C
:102000003091B702821B930B9093B9028093B80270
:1020100089E0F82E53C001969093BB028093BA02D8
:10202000215030403093B9022093B802892B09F037
:102030003EC02091E0023091E1028091E202909155
:10204000E3029093E1028093E0023093E302209355
:10205000E2022DC00580F681E02DC681D781209156
:10206000BA023091BB028A819B812817390730F16F
:10207000F8948E010E5F1F4FC8010E947D0F8C895E
:102080009D89892B21F0CE010C960E947D0F7894BA
:102090009E898091B502891710F49093B5029F9D97
:1020A000C001112484549D4FB8010E942C0FE0916F
:1020B000E002F091E1028081882361F62091B8026C
:1020C0003091B9028091BA029091BB02211531057D
:1020D00009F0A1CF9093B7028093B6029091B50218
:1020E00029E006C0992319F41092B50232C091502C
:1020F000929FD0011124A454BD4F8C91882391F359
:102100009093B5021196ED91FC9112970280F381A4
:10211000E02D1296FC93EE931197CD010396E817EC
:10212000F90731F48281938112969C938E931197D3
:102130001196ED91FC9112970680F781E02DF093B6
:10214000B402E093B30220813181CF016789F901A4
:102150001995DF91CF911F910F91FF9008950F93E3
:102160001F93CF93DF93EB010091BA021091BB0252
:10217000080F191F8091B3029091B40202960E9439
:102180007D0FE091B302F091B4021383028380913A
:10219000BA029091BB02BF016E5F7F4F081719070B
:1021A00028F48091E2029091E30204C08091E00261
:1021B0009091E1020E944B0F209749F06091B30289
:1021C0007091B402645F7F4FCE010E944B0FDF918C
:1021D000CF911F910F910895AF92BF92CF92DF924E
:1021E000EF92FF920F931F93CF93DF936C01B62E64
:1021F000A42E8AE190E00E947611EC01009711F480
:102200008FEF59C08091B3029091B402892B21F5D0
:10221000D093B402C093B3028CEB92E00E94180FEB
:1022200085EC92E00E94180F2EECE22E22E0F22EB6
:10223000C7010E94180F07ED12E0C8010E94180F95
:1022400084EE92E00E94180FF092E102E092E00228
:102250001093E3020093E202EB2CBB2011F0EE247A
:10226000E394198E188EEE8AAF8AFE01C192D19244
:102270008F01CF010E94280FCE010C960E94280FDB
:10228000D987C887DB8BCA8B82E090E08E199109D1
:102290009D878C879E898091B502891710F4909351
:1022A000B50289E0989FC001112484549D4FB80164
:1022B0000E942C0F81E0DF91CF911F910F91FF9031
:1022C000EF90DF90CF90BF90AF9008950895109257
:1022D000EE021092ED0208952BED35E08091ED02B3
:1022E0009091EE02281B390BC9010895CF93DF931B
:1022F000EC010E94E0038091EF029091F002892BA3
:1023000031F482EF92E09093F0028093EF022091FB
:10231000ED023091EE02CE01820F931F45E08B3D1E
:10232000940770F42817390758F4C091EF02D09140
:10233000F002C20FD31F9093EE028093ED0202C011
:10234000C0E0D0E00E942207CE01DF91CF91089536
:10235000FC0191E1908322E2229383E382936293D2
:102360007293129280E88293129282E0829383E0C9
:10237000829384E0829385E0829386E0829387E073
:10238000829388E0829389E0829380E182939293A2
:1023900082E1829383E1829384E1829385E1829357
:1023A00086E1829387E1829388E1829389E1829337
:1023B00080E2829381E28293229383E2829342932A
:1023C000529386E2829387E2829388E2829389E243
:1023D000829380E3829381E382933197CF010895C2
:1023E0001092890089EF809388008BE080938100B0
:1023F000EEE6F0E0808180618083A0915602B0918A
:102400005702CD91CDBFDD91DEBFFF91EF91DF91FE
:10241000CF91BF91AF919F918F917F916F915F917C
:102420004F913F912F911F910F91FF90EF90DF906F
:10243000CF90BF90AF909F908F907F906F905F9064
:102440004F903F902F901F900F900FBE0F900895C8
:1024500081E0089508950F920FB6F8940F921F929D
:1024600011242F923F924F925F926F927F928F92A0
:102470009F92AF92BF92CF92DF92EF92FF920F9313
:102480001F932F933F934F935F936F937F938F93FC
:102490009F93AF93BF93CF93DF93EF93FF93A0915D
:1024A0005602B09157020DB60D920EB60D920E94D3
:1024B000EF05882311F00E940504A0915602B09107
:1024C0005702CD91CDBFDD91DEBFFF91EF91DF913E
:1024D000CF91BF91AF919F918F917F916F915F91BC
:1024E0004F913F912F911F910F91FF90EF90DF90AF
:1024F000CF90BF90AF909F908F907F906F905F90A4
:102500004F903F902F901F900F900FBE0F90089507
:102510000E942B1218950F920FB6F8940F921F92EB
:1025200011242F923F924F925F926F927F928F92DF
:102530009F92AF92BF92CF92DF92EF92FF920F9352
:102540001F932F933F934F935F936F937F938F933B
:102550009F93AF93BF93CF93DF93EF93FF93A0919C
:102560005602B09157020DB60D920EB60D920E9412
:102570000504A0915602B0915702CD91CDBFDD91D7
:10258000DEBFFF91EF91DF91CF91BF91AF919F910E
:102590008F917F916F915F914F913F912F911F91FB
:1025A0000F91FF90EF90DF90CF90BF90AF909F90F2
:1025B0008F907F906F905F904F903F902F901F90E3
:1025C0000F900FBE0F90089580911A0208950F93F7
:1025D0001F93082F893008F008E081E061E040E0B7
:1025E0000E94F00E9093CE088093CD08892B89F03D
:1025F00010E007C083E593E160E0412F0E94EC10FA
:102600001F5F1017B8F38CE093E161E040E00E9497
:10261000EC101F910F9108950F931F93DF93CF93A9
:102620000F92CDB7DEB78C01FC01808D918DF1E06A
:10263000823C9F07B1F021E0833C920751F1892B46
:1026400061F58091CD089091CE08BE016F5F7F4FFC
:102650004FEF5FEF0E94090C8C3F71F482EC91E028
:102660000FC08091CD089091CE08BE016F5F7F4F63
:1026700040E050E00E94090C8B3F31F483EC91E084
:10268000F801918F808F09C0813019F010921A02E1
:10269000D8CF89810E942401D4CF0F90CF91DF91B0
:1026A0001F910F9108950F931F93DF93CF930F9274
:1026B000CDB7DEB769838C01FC01808D918DF1E08F
:1026C00082389F07F1F021E08338920718F4892BB4
:1026D00041F03EC0E1E083389E0739F186599140D0
:1026E000B9F58091CD089091CE08BE016F5F7F4F04
:1026F00040E050E00E944E0C8C3F71F482E891E083
:1027000024C08091CD089091CE08BE016F5F7F4FAD
:1027100040E050E00E944E0C8B3F19F483E891E0BA
:1027200014C0813011F010921A02E981F0E0EE0F2E
:10273000FF1FE55EFD4F80819181009721F060E0F1
:1027400070E00E94AF1086E991E0F801918F808FD0
:102750000F90CF91DF911F910F9108959F92AF92AB
:10276000BF92CF92DF92EF92FF920F931F93DF936E
:10277000CF9300D00F92CDB7DEB78C01EE24FF24AB
:102780009BE7A92EB12CC12CD12C9924939403C082
:1027900081E0E82EF12CA982BA82CB82DC82898189
:1027A0009A81AB81BC81895B9B46AC4FBF4F8983CB
:1027B0009A83AB83BC8369817A818B819C812DEF65
:1027C0003FEF4FEF5FEF0E94851569837A838B831C
:1027D0009C8369817A818B819C8127E030E040E095
:1027E00050E00E94DA15C901DA0189839A83AB832C
:1027F000BC8389819A81AB81BC818B519747AE4F55
:10280000BF4F31F6E114F10409F0C2CF0FB6F894CE
:102810000F92F80190820F900FBEBDCF8091CF082C
:102820001092CF08811181E00895EF92FF920F93EB
:10283000082F8EEA93E16BE272E045E550E02FEC61
:1028400038E0EE24FF240E94EB090F91FF90EF90F7
:1028500008958091D008882321F08091D1088111BA
:1028600081E01092D0081092D1080895EF92FF9263
:102870000F931F93182F8AE062E040E00E94F00E51
:102880009093D3088093D208892BB9F08FE994E113
:1028900063E372E045E550E022ED38E0012FEE24DD
:1028A000FF240E94EB0982E694E16BE372E045E5C8
:1028B00050E022ED38E00E94EB091F910F91FF904C
:1028C000EF900895CF92DF92EF92FF920F931F93B4
:1028D000DF93CF930F920F92CDB7DEB77C011A82B0
:1028E000198200E010E06E010894C11CD11C1FC0C9
:1028F000F70180819181B60140E050E020E00E9424
:10290000030E813011F001E011C0002351F40FB625
:10291000F8940F928091D1088F5F8093D1080F9027
:102920000FBE89819A8101969A8389831F5F133034
:10293000FCF283E090E00E94E70810E0D9CF9F927C
:10294000AF92BF92CF92DF92EF92FF920F931F93BD
:10295000DF93CF930F920F92CDB7DEB7982EC92E8B
:10296000DD24EE24FF245E010894A11CB11C23C0C9
:10297000F80180819181B50140E050E020E00E94A3
:10298000490D8130C1F429813A812E153F0519F096
:10299000DD24D3940CC0DD2051F40FB6F8940F92CF
:1029A0008091D0088F5F8093D0080F900FBE79017F
:1029B0000894E11CF11C092D1C2DF80180819181E6
:1029C0000E940C0B8823A1F68FEE9FEF0E94E70870
:1029D000F2CF8091D4081092D408811181E008953B
:1029E000EF92FF920F931F93182F2093D508CB01DE
:1029F000BA0148E10E942E02012F01508DE595E1B8
:102A000063E472E045E550E020E030E0EE24FF248E
:102A10000E94EB098AE195E169E472E045E550E046
:102A200020E030E0012F0E94EB091F910F91FF90F1
:102A3000EF900895EF92FF920F931F93DF93CF9340
:102A40000F92CDB7DEB700E07E010894E11CF11CC7
:102A500011E480E090E0B7014FEF5FEF0E942402A5
:102A6000882351F08981811711F011E009C080910C
:102A7000D5088F5F0E9424011F5F193551F710E0C0
:102A80008091D5088F5F60E00E944701113069F4A2
:102A900007C080E090E0B7014FEF5FEF0E94240293
:102AA00089818835B1F70F5FD3CF02308CF68091E2
:102AB000D4088F5F8093D408CBCF1F9311E40EC04E
:102AC00080E090E0612F40E050E00E9406028130FB
:102AD00021F48091D5080E9424011F5F193584F3E9
:102AE0008091D50860E00E9447010E94E6030396AA
:102AF00066E970E00E94A4158233910510F482E328
:102B000090E00E94E70811E4DBCF629FD001739F41
:102B1000F001829FE00DF11D649FE00DF11D929F79
:102B2000F00D839FF00D749FF00D659FF00D9927B8
:102B3000729FB00DE11DF91F639FB00DE11DF91FDC
:102B4000BD01CF0111240895AA1BBB1B51E107C091
:102B5000AA1FBB1FA617B70710F0A61BB70B881F2D
:102B6000991F5A95A9F780959095BC01CD010895BC
:102B7000A1E21A2EAA1BBB1BFD010DC0AA1FBB1F81
:102B8000EE1FFF1FA217B307E407F50720F0A21BF3
:102B9000B30BE40BF50B661F771F881F991F1A9460
:102BA00069F760957095809590959B01AC01BD018A
:102BB000CF01089597FB092E05260ED057FD04D0AE
:102BC000D7DF0AD0001C38F45095409530952195F8
:102BD0003F4F4F4F5F4F0895F6F790958095709552
:102BE00061957F4F8F4F9F4F0895FB01DC0102C01D
:102BF00001900D9241505040D8F70895DC01CB016F
:102C0000FC01F999FECF06C0F2BDE1BDF89A3196FC
:102C100000B40D9241505040B8F70895262FF9990D
:102C2000FECF1FBA92BD81BD20BD0FB6F894FA9AAF
:0C2C3000F99A0FBE01960895F894FFCFAA
:102C3C00436865636B0003000000FF526567310059
:102C4C00526567320049444C4500019600C800FAB1
:102C5C00002C015E019001C201F401496E744D61BA
:102C6C0074680051436F6E734E42005150726F6422
:102C7C004E4200434F4D547800434F4D5278000064
:00000001FF
