:100000000C9472000C9493000C9493000C94930045
:100010000C9493000C9493000C9493000C94930014
:100020000C9493000C9493000C9493000C94930004
:100030000C9493000C9493000C9493000C949300F4
:100040000C9493000C945D020C9493000C94930018
:100050000C9493000C9493000C9493000C949300D4
:100060000C9493000C9493000C9493000C949300C4
:100070000C9493000C9493000C9493000C949300B4
:100080000C9493000C9493000C9493000C949300A4
:100090000C94ED100C94A6100C9493000C94930007
:1000A0000C9493000C9493000C9493000C94930084
:1000B0000C9493000C9493000C9493000C94930074
:1000C0000C9493000C9493000C9493000C94930064
:1000D0000C9493000C9493000C9493000C94930054
:1000E0000C94930011241FBECFEFD1E2DEBFCDBF31
:1000F00000E00CBF14E0A0E0B2E0E4E3FFE400E0C5
:100100000BBF02C007900D92A034B107D9F715E0DC
:10011000A0E4B4E001C01D92A136B107E1F70E944E
:1001200026010C9498270C94000008950E94111B3E
:10013000892BE1F30E94431BF9CFAF92BF92CF927C
:10014000DF92EF92FF920F931F93DF93CF930F9263
:100150000F92CDB7DEB710924204109243040E9472
:1001600055089A838983F0E7AF2EF7E1BF2E11E09F
:100170006E010894C11CD11C8091400490914104EF
:10018000885B9B4074F40E94C3118091400490915D
:100190004104019690934104809340040E94081A00
:1001A00030C080E860E840E820E80E94091B109217
:1001B00042048091570590915805892B11F01093B6
:1001C00042041092430480E00E946D1F809142041B
:1001D0000E946D1F10924204809155059091560522
:1001E000892B11F0109342041092430480E00E9486
:1001F0006D1F809142040E946D1FB0924104A09235
:10020000400480914B0590914C05892BC9F0809159
:100210005B0590915C050E94070F86E990E060E025
:1002200072E048EE53E020E030E002E0EBE5EE2E35
:10023000E5E0FE2E0E94750F10924C0510924B05C2
:10024000C60163E270E00E94840E96CFEF92FF92A7
:100250000F9380E090E00E94E81A89E190E00E940C
:100260005B1F8DE990E064E072E048EE53E020E02F
:1002700030E003E0EE24FF240E94750F86E990E051
:1002800060E072E048EE53E020E030E002E0ABE5F1
:10029000EA2EA5E0FA2E0E94750F80E197E220E990
:1002A00031E0F9013197F1F70197D9F780E860E87B
:1002B00040E820E80E94091B8FEF9FEF20E931E022
:1002C000F9013197F1F70197D9F78FEA6FEA4FEA11
:1002D0002FEA0E94091B80E197E220E931E0F90151
:1002E0003197F1F70197D9F70E94701080E090E004
:1002F0000F91FF90EF900895FC0191E1908322E22D
:10030000229383E38293629372931292129280E813
:100310008293129282E0829383E0829384E08293BC
:1003200085E0829386E0829387E0829388E08293DF
:1003300089E0829380E18293929382E1829383E1C8
:10034000829384E1829385E1829386E1829387E1BF
:10035000829388E1829389E1829380E2829381E2B1
:100360008293229383E282934293529386E2829312
:1003700087E2829388E2829389E2829380E3829388
:1003800081E382933197CF0108951092890089EF1C
:10039000809388008BE080938100EFE6F0E080811D
:1003A00082608083A0914404B0914504CD91CDBF7B
:1003B000DD91DEBFFF91EF91DF91CF91BF91AF91C2
:1003C0009F918F917F916F915F914F913F912F916D
:1003D0001F910F91FF90EF90DF90CF90BF90AF9063
:1003E0009F908F907F906F905F904F903F902F9055
:1003F0001F900F900FBE0F90089581E0089508950B
:100400000F920FB6F8940F921F9211242F923F92E1
:100410004F925F926F927F928F929F92AF92BF9214
:10042000CF92DF92EF92FF920F931F932F933F9300
:100430004F935F936F937F938F939F93AF93BF93EC
:10044000CF93DF93EF93FF93A0914404B0914504C1
:100450000DB60D920EB60D920E94030B882311F07B
:100460000E947408A0914404B0914504CD91CDBF81
:10047000DD91DEBFFF91EF91DF91CF91BF91AF9101
:100480009F918F917F916F915F914F913F912F91AC
:100490001F910F91FF90EF90DF90CF90BF90AF90A2
:1004A0009F908F907F906F905F904F903F902F9094
:1004B0001F900F900FBE0F9008950E940002189594
:1004C0000F920FB6F8940F921F9211242F923F9221
:1004D0004F925F926F927F928F929F92AF92BF9254
:1004E000CF92DF92EF92FF920F931F932F933F9340
:1004F0004F935F936F937F938F939F93AF93BF932C
:10050000CF93DF93EF93FF93A0914404B091450400
:100510000DB60D920EB60D920E947408A09144047F
:10052000B0914504CD91CDBFDD91DEBFFF91EF913C
:10053000DF91CF91BF91AF919F918F917F916F91FB
:100540005F914F913F912F911F910F91FF90EF90ED
:10055000DF90CF90BF90AF909F908F907F906F90E3
:100560005F904F903F902F901F900F900FBE0F9075
:100570000895FC010FB6F8940F92208131816095A7
:10058000709562237323718360830F900FBEC9013E
:100590000895FC01808191810895BA010E94B902F9
:1005A0000895CF93DF93EC010E944F0806C08F811E
:1005B000988560E072E00E948F0A8A818823B9F7EB
:1005C000CE010E94A3110E943B0CDF91CF910895B0
:1005D000CF92DF92EF92FF920F931F93CF93DF930F
:1005E0008B01EC0185E0E82EF12CEC0EFD1E0E9443
:1005F0004F08EF81F88588819981802B912B998311
:10060000888300E010E024C0D280C3808081918183
:10061000BC016070AC0150702881398192FD05C029
:1006200024233523232B31F40FC02423352324170F
:10063000350751F470FF02C0042B152B68817981B6
:100640007260CF010E948F0A8D2D9C2D9C01F901B3
:10065000EE15FF05C9F600951095888199818023D4
:100660009123998388830E943B0C88819981DF9133
:10067000CF911F910F91FF90EF90DF90CF90089551
:10068000BA010E94E8020895AF92BF92CF92DF9222
:10069000EF92FF920F931F93CF93DF937B01A42ED2
:1006A000B22E68018C010E944F08F801208131812F
:1006B000C70182239323BB2021F4892B09F05AC060
:1006C00004C08E159F0509F455C0C114D10459F416
:1006D000E9011BC0C7018095909582239323F801FF
:1006E000918380834AC0AA2019F060E071E002C0C3
:1006F00060E070E0B11074606E297F29C801029635
:10070000A6010E94580EC0E0D0E00E943B0CCD280C
:1007100029F1882311F40E9460020E94F60891FDDD
:100720001BC00FB6F8940F92F80180819181970158
:1007300028233923BB2019F4232B19F50BC02E15C0
:100740003F0541F41EC0E094F094E822F922F8013C
:10075000F182E0820F900FBEEC01D070CE01DF91EC
:10076000CF911F910F91FF90EF90DF90CF90BF90AE
:10077000AF900895AA2009F0ADCFE901CC24DD2483
:10078000C4CFAA2001F7E6CF8F929F92AF92BF927B
:10079000CF92DF92EF92FF920F931F93CF93DF934D
:1007A000F82EE92E8B015A014901C82ED92E0E943C
:1007B0004F08F601C081D1818F2D9E2DB8010E9476
:1007C000E802C02BD12BC5018C239D238A159B05E4
:1007D00069F4950120953095F601808191818223FD
:1007E0009323918380838824992410C081149104D9
:1007F00051F0B5017560C6010296A4010E94580E21
:10080000C0E0D0E003C0F601C081D1810E943B0C62
:100810008928F9F0882311F40E9460020E94F608EA
:100820009C0191FD14C00FB6F8940F92F60120813F
:100830003181C501822393238A159B0531F4A0944D
:10084000B094A222B322B182A0820F900FBEE90120
:10085000D070CE01DF91CF911F910F91FF90EF905B
:10086000DF90CF90BF90AF909F908F900895CF93DF
:10087000DF938BE090E00E94B211EC01009731F021
:10088000FC0111921192CF010E944A04CE01DF9126
:10089000CF910895FC019C012D5F3F4F328321834E
:1008A0008FEF9FEF9483838336832583308727835D
:1008B00010820895FC01118610860895AC01FC0198
:1008C000A181B281FB01B383A28314968D919C9187
:1008D0001597958384831496ED91FC9115977383F6
:1008E000628315967C936E931497FB015187408722
:1008F000FA0180818F5F80830895CF93DF939C01FD
:10090000EB01488159818FEF4F3F580721F4F901DE
:10091000A781B0850DC0D90113961296ED91FC9177
:100920001397808191814817590710F0DF01F5CFA7
:100930001296ED91FC911397FB83EA83D583C483D0
:10094000BD83AC831396DC93CE93129739872887A7
:10095000F90180818F5F8083DF91CF910895CF93DC
:10096000DF93DC011896CD91DC91199712964D9189
:100970005C91139714968D919C911597FA0195832C
:10098000848314962D913C911597F90153834283EA
:1009900089819A818A179B0711F43A8329831996D2
:1009A0001C921E921897888181508883DF91CF9185
:1009B00008950FB6F8940F92FC01828D0F900FBE30
:1009C0000895FC010FB6F8940F92928D0F900FBE10
:1009D000838D891B0895FC01828D0895FC01828D11
:1009E00090E0882309F491E0892F0895FC01928D0D
:1009F00020E0838D981709F421E0822F08950E944A
:100A0000A3110895FC01562FA72F248D2223B9F09E
:100A100086819781820F911D9783868322813381FE
:100A20008217930720F08081918197838683448D7C
:100A300066817781852F9A2F50E00E948F27089535
:100A40000F931F93CF93DF93EC018A8D882341F09E
:100A50000E811F81CE010E9402051F830E8381E05B
:100A6000DF91CF911F910F910895EF92FF920F9315
:100A70001F93CF93DF937A01EC011A8D112311F4A8
:100A800080E01AC00D8D0E94020511501A8F0F3F91
:100A900081F48885882379F0CE0108960E94C30AE4
:100AA000882349F0E114F10431F081E0F7018083FB
:100AB00003C00F5F0D8F81E0DF91CF911F910F91E8
:100AC000FF90EF900895CF93DF93EB01FC01928D9F
:100AD000838D981710F080E016C0868D9F5F928FEF
:100AE0008F3F71F48189882369F0CF0141960E947C
:100AF000C30A882339F0209729F081E0888303C056
:100B00008F5F868F81E0DF91CF910895EF92FF9202
:100B10001F93CF93DF93EC010FB6F8940F921E8DC5
:100B200091E1E92EF12CEC0EFD1E0BC08989882382
:100B300051F0C7010E94C30A882311F00E94EC08FB
:100B4000115011169CF38FEF8E8F0F900FBE0FB6C2
:100B5000F8940F921D8D88E0E82EF12CEC0EFD1E0E
:100B60000BC08885882351F0C7010E94C30A8823DF
:100B700011F00E94EC08115011169CF38FEF8D8F2D
:100B80000F900FBEDF91CF911F91FF90EF900895CE
:100B90006F927F928F929F92AF92BF92CF92DF928D
:100BA000EF92FF920F931F93DF93CF9300D00F929A
:100BB0000F92CDB7DEB74B015D834C83E22E8C01E3
:100BC00041E1A42EB12CA80EB91E20E06E010894BC
:100BD000C11CD11C34E0632E712C6C0E7D1E01C033
:100BE00021E00FB6F8940F92F801F28CFF2061F12A
:100BF000C680D780C801B4010E940205EE2099F496
:100C0000FA94F801F28E80819181892B29F40E9457
:100C10000E09F80193838283F8018085882381F08F
:100C2000C801089607C0F801D782C6828189882347
:100C300039F0C5010E94C30A882311F00E946002A6
:100C40000F900FBE81E063C08C819D81892B21F4C0
:100C50000F900FBE80E05BC0222319F4C6010E94F2
:100C6000AE080F900FBE0E944F080FB6F8940F9277
:100C7000F801858D8F3F09F4158EF801868D8F3F21
:100C800009F4168E0F900FBEC601B3010E94B90879
:100C9000882371F50FB6F8940F92F801828D0F90AA
:100CA0000FBE8823F9F4F80180819181892B51F4DA
:100CB0000FB6F8940F92F801828193810E943D0A49
:100CC0000F900FBE6C817D81C5010E94B30EC801DB
:100CD0000E9486050E943B0C882309F081CF0E9468
:100CE00060027ECFC8010E9486050E943B0C78CF2F
:100CF000C8010E9486050E943B0C0FB6F8940F9223
:100D0000F801828D0F900FBE882309F069CF0F90F4
:100D10000F900F900F900F90CF91DF911F910F9137
:100D2000FF90EF90DF90CF90BF90AF909F908F900B
:100D30007F906F9008950F931F93CF93DF93EC01F3
:100D4000042F1A8D4C8D442361F488819981892B5D
:100D500009F03FC08A819B810E94080A1B821A8287
:100D600039C00023B1F48C819D8150E00E948F270F
:100D70008C8D2C813D81280F311D3D832C838A81F0
:100D80009B812817390728F1888199819D838C835D
:100D900020C08E819F8150E00E948F278C8D90E033
:100DA00044275527481B590B8E819F81840F951F1F
:100DB0009F838E83288139818217930730F48A813B
:100DC0009B81840F951F9F838E83023011F4111134
:100DD000115080E01F5F1A8FDF91CF911F910F910B
:100DE0000895EF92FF921F93CF93DF937A01EC0166
:100DF0009A8D8B8D981720F0223011F080E01AC068
:100E00001E8DCE01422F0E949B061F3F81F48989CF
:100E1000882379F0CE0141960E94C30A882349F0C5
:100E2000E114F10431F081E0F701808303C01F5F1A
:100E30001E8F81E0DF91CF911F91FF90EF90089579
:100E40006F927F929F92AF92BF92CF92DF92EF927A
:100E5000FF920F931F93DF93CF9300D00F920F92C7
:100E6000CDB7DEB76B015D834C83922E8C0168E0B9
:100E7000E62EF12CE80EF91E20E05E010894A11C7C
:100E8000B11C54E0652E712C6C0E7D1E01C021E05A
:100E90000FB6F8940F92F801928D838D981718F081
:100EA000F2E09F16C9F4C801B601492D0E949B06C5
:100EB000982FF8018189882339F0C80141960E9452
:100EC000C30A882329F002C0992311F00E9460020E
:100ED0000F900FBE81E04CC08C819D81892B19F44D
:100EE0000F900FBE44C0222319F4C5010E94AE0822
:100EF0000F900FBE0E944F080FB6F8940F92F801A2
:100F0000858D8F3F09F4158EF801868D8F3F09F48A
:100F1000168E0F900FBEC501B3010E94B908882339
:100F200009F50FB6F8940F92F801928D0F900FBE4D
:100F3000F801838D981781F46C817D81C7010E942F
:100F4000B30EC8010E9486050E943B0C882309F05D
:100F50009ECF0E9460029BCFC8010E9486050E941E
:100F60003B0C95CFC8010E9486050E943B0C80E097
:100F70000F900F900F900F900F90CF91DF911F91D6
:100F80000F91FF90EF90DF90CF90BF90AF909F9028
:100F90007F906F900895CF93DF93EC010FB6F89494
:100FA0000F92EC8D2B8DE29FC00111244881598155
:100FB000840F951F9B838A831A8E5D834C8330E058
:100FC00021503040F0E02E9FC0012F9F900D3E9F9A
:100FD000900D1124480F591F5F834E838FEF8D8F23
:100FE0008E8F662361F48885882389F0CE01089668
:100FF0000E94C30A882359F00E94600208C0CE01F3
:1010000008960E944A04CE0141960E944A040F901D
:101010000FBE81E0DF91CF9108950F931F93CF937F
:10102000DF93082F162F662319F480E090E003C0A9
:10103000689FC00111244F960E94B211EC010097E5
:1010400071F0112319F49983888303C04F96998313
:1010500088830B8F1C8FCE0161E00E94CB07CE01ED
:10106000DF91CF911F910F910895CF93DF93482F78
:1010700081E060E00E940D08EC01009761F01B82A6
:101080001A82198218821E8260E070E040E050E00F
:1010900020E00E942007CE01DF91CF91089580913A
:1010A00046048F5F8093460408950FB6F8940F921C
:1010B0002091490430914A040F900FBEC901089550
:1010C0002091490430914A04C901089580914F0448
:1010D0000895009721F480914404909145049C0167
:1010E000275E3F4FC901089580914604882321F06F
:1010F00081E08093480408951092480420914704A9
:1011000099E001C02150299FD0011124AB5ABB4F57
:101110008C918823B9F31196ED91FC91129702807E
:10112000F381E02D1296FC93EE931197CD01039677
:10113000E817F90731F48281938112969C938E937C
:1011400011971196ED91FC9112978681978190935A
:10115000450480934404209347040895FC01809142
:101160004D0480838091490490914A049283818345
:101170000895FC01DB010FB6F8940F9240914904E9
:1011800050914A0490914D048081981729F08181F3
:10119000928148175907E0F4218132816D917C9149
:1011A0001197CA01821B930B8617970788F4241B9B
:1011B000350B260F371F2D933C9380914D04808370
:1011C0008091490490914A049283818380E001C018
:1011D00081E00F900FBE089581E080934804089548
:1011E0002091440430914504C9010895E0914404DC
:1011F000F091450484859585A0914404B0914504FF
:10120000E0914404F0914504468924E030E0241B39
:1012100031091D963C932E931C97089580914404A8
:1012200090914504892B39F0E0914404F0914504F4
:1012300082A18F5F82A32091440430914504C901AB
:101240000895009729F4E0914404F091450401C009
:10125000FC010FB6F8940F9287A1823011F080E064
:1012600002C017A281E00F900FBE0895EF92FF9287
:101270000F931F93CF93DF937B01EC012FA182E0AB
:101280008FA38BA19CA1ADA1BEA10196A11DB11DF3
:101290008BA39CA3ADA3BEA3213091F580914604FE
:1012A0008823A9F48E010E5F1F4FC8010E94AF046E
:1012B0009E8980914704891710F49093470489E030
:1012C000989FC00111248B5A9B4FB80105C0BE01E5
:1012D000645F7F4F8FE894E00E945E04E0914404D5
:1012E000F09145049E898689891750F4E114F10430
:1012F00021F081E0F701808303C081E080934804FE
:10130000DF91CF911F910F91FF90EF900895EF9291
:10131000FF920F931F93CF93DF93F801EC01011518
:10132000110541F08BA19CA1ADA1BEA18083918349
:10133000A283B383EFA182E08FA322303105B9F0FD
:101340002330310520F42130310529F507C0233041
:101350003105E9F024303105F1F415C08BA19CA1D1
:10136000ADA1BEA1842B952BA62BB72B07C08BA1BB
:101370009CA1ADA1BEA10196A11DB11D8BA39CA3F3
:10138000ADA3BEA308C0E23011F480E03AC04BA385
:101390005CA36DA37EA3E13099F580914604882378
:1013A000A9F48E010E5F1F4FC8010E94AF049E89F1
:1013B00080914704891710F49093470489E0989F1F
:1013C000C00111248B5A9B4FB80105C0BE01645F58
:1013D0007F4F8FE894E00E945E04E0914404F09116
:1013E00045049E898689891758F4E114F10421F097
:1013F00081E0F701808305C081E08093480401C04B
:1014000081E0DF91CF911F910F91FF90EF900895B0
:101410000F931F93CF93DF93EC01009741F12AA123
:1014200021502AA39E8989A1981709F12223F9F452
:101430008E010E5F1F4FC8010E94AF0429A12E8BA1
:1014400084E090E0821B91099D878C8780914704FE
:10145000821710F42093470489E0289FC0011124CB
:101460008B5A9B4FB8010E945E0481E001C080E06E
:10147000DF91CF911F910F9108950F931F93CF93F9
:10148000DF93EC01009709F445C0E0914404F0912A
:1014900045049E8986899817E8F58C859D8597FD7A
:1014A0000BC0E0914404F0914504268984E090E06B
:1014B000821B91099D878C878E8929E0829FC001BC
:1014C00011248B5A9B4F2A853B8528173907E1F455
:1014D0008E010E5F1F4FC8010E94AF04E0914404CB
:1014E000F091450496899E8B80914704891710F4EA
:1014F0009093470489E0989FC00111248B5A9B4F19
:10150000B8010E945E0406C0E0914404F0914504D5
:1015100086898E8BDF91CF911F910F9108950F9344
:101520001F93CF93DF93FC01706871836083C68142
:10153000D7810E94AF048E010E5F1F4FC8010E9429
:10154000AF049E8980914704891710F49093470453
:1015500089E0989FC00111248B5A9B4FB8010E94CB
:101560005E04E0914404F09145049E8986898917C0
:1015700010F080E003C081E080934804DF91CF91B8
:101580001F910F9108950F931F93CF93DF93DC0169
:101590001596ED91FC911697C681D7818E01045F57
:1015A0001F4FC8010E94AF04809146048823A1F414
:1015B0008E010E5F1F4FC8010E94AF049E8980916B
:1015C0004704891710F49093470489E0989FC0015D
:1015D00011248B5A9B4F02C08FE894E0B8010E94FF
:1015E0005E04E0914404F09145049E898689891740
:1015F00010F080E003C081E080934804DF91CF9138
:101600001F910F910895CF92DF92EF92FF920F9367
:101610001F93CF93DF9380914604882309F0A6C0DF
:101620000091490410914A040F5F1F4F10934A0420
:10163000009349040115110579F520918B0430912F
:101640008C0480918D0490918E0490938C048093EF
:101650008B0430938E0420938D0480914D048F5F12
:1016600080934D04E0918B04F0918C048081882359
:1016700019F48FEF9FEF0CC0E0918B04F0918C0474
:101680000580F681E02D0680F781E02D828193812F
:1016900090934C0480934B0480914B0490914C04A4
:1016A0000817190708F44BC0DD2449E0C42EE09167
:1016B0008B04F0918C048081882319F48FEF9FEFC5
:1016C0000EC0E0918B04F0918C040580F681E02D32
:1016D000C681D7818A819B810817190728F49093C6
:1016E0004C0480934B042CC032E0E32EF12CEC0E22
:1016F000FD1EC7010E94AF048C899D89892B21F0B2
:10170000CE010C960E94AF049E89809147048917F0
:1017100010F4909347049C9DC00111248B5A9B4F59
:10172000B7010E945E04E0914404F09145049E8953
:101730008689981708F4BBCFDD24D394B8CFDD2475
:10174000E0914404F0914504868990E0FC0123E097
:10175000EE0FFF1F2A95E1F7E80FF91FEB5AFB4F39
:101760008081823048F0DD24D39406C080914E04FD
:101770008F5F80934E04DD2480914804882311F00C
:10178000DD24D3948D2DDF91CF911F910F91FF9088
:10179000EF90DF90CF9008950F931F93CF93DF9337
:1017A000F801EC010FB6F8940F920115110541F004
:1017B0008BA19CA1ADA1BEA180839183A283B383A1
:1017C000EFA182E08FA322303105B9F0233031053B
:1017D00020F42130310529F507C023303105E9F027
:1017E00024303105F1F415C08BA19CA1ADA1BEA19F
:1017F000842B952BA62BB72B07C08BA19CA1ADA149
:10180000BEA10196A11DB11D8BA39CA3ADA3BEA338
:1018100008C0E23011F480E027C04BA35CA36DA3A5
:101820007EA3E13001F58E010E5F1F4FC8010E94BB
:10183000AF049E8980914704891710F49093470460
:1018400089E0989FC00111248B5A9B4FB8010E94D8
:101850005E04E0914404F09145049E8986898917CD
:1018600010F40E94600281E00F900FBEDF91CF91D3
:101870001F910F910895EF92FF920F931F93CF93B3
:10188000DF930FB6F8940F928091460481508093B5
:10189000460480914604882309F06CC080914F046F
:1018A000882309F467C0C0E0D0E059E0E52EFF24AA
:1018B000F39429C0E0919404F0919504C681D781F6
:1018C000CE010C960E94AF048E010E5F1F4FC8011F
:1018D0000E94AF049E8980914704891710F4909369
:1018E00047049E9DC00111248B5A9B4FB8010E9452
:1018F0005E04E0914404F09145049E89868998171E
:1019000010F0F092480480918F04882399F6CD2B33
:10191000D1F0E0918B04F0918C048081882319F43C
:101920008FEF9FEF0CC0E0918B04F0918C04058049
:10193000F681E02D0680F781E02D828193819093DE
:101940004C0480934B0410914E04112359F001E094
:101950000E94030B882311F0009348041150C1F733
:1019600010924E0480914804882321F00E94600266
:1019700081E001C080E00F900FBEDF91CF911F91F9
:101980000F91FF90EF900895FF920F931F93CF93C5
:10199000DF93643008F063E00FB6F8940F9200977D
:1019A00029F4C0914404D091450401C0EC0129A15F
:1019B000261709F452C0261790F4809144049091A0
:1019C0004504C817D90711F4FF2413C0E09144045B
:1019D000F0914504FF248689681758F008C080916B
:1019E000440490914504FF24C817D90711F4FF243B
:1019F000F3943E89231709F46E8B69A38C859D852A
:101A000097FD06C084E090E0861B91099D878C8736
:101A100089E0389FC00111248B5A9B4F2A853B8552
:101A200028173907B1F48E010E5F1F4FC8010E94BD
:101A3000AF049E8980914704891710F4909347045E
:101A400089E0989FC00111248B5A9B4FB8010E94D6
:101A50005E04FF2011F00E9460020F900FBEDF9124
:101A6000CF911F910F91FF9008950F931F93CF93E4
:101A7000DF93EC010091490410914A0480914404E1
:101A80009091450402960E94AF04C00FD11FE091CF
:101A90004404F0914504D383C283C017D10768F48E
:101AA00080918D0490918E0460914404709145045E
:101AB0006E5F7F4F0E947D0417C080918B049091D0
:101AC0008C0460914404709145046E5F7F4F0E94C6
:101AD0007D0480914B0490914C04C817D90720F4E1
:101AE000D0934C04C0934B04DF91CF911F910F9181
:101AF00008956F927F928F929F92AF92BF92CF92F2
:101B0000DF92EF92FF920F931F93CF93DF935B01CE
:101B10006C0139014A01E8010FB6F8940F92E09187
:101B20004404F091450487A1823019F1E091440406
:101B3000F091450483A194A1A5A1B6A1A094B0946D
:101B4000C094D0948A219B21AC21BD2183A394A36E
:101B5000A5A3B6A3E0914404F091450481E087A3D6
:101B6000E114F10431F0C70161E00E94350D0E94DB
:101B700060020F900FBE0FB6F8940F92209761F09D
:101B8000E0914404F091450483A194A1A5A1B6A1DC
:101B900088839983AA83BB83E0914404F091450430
:101BA00087A1813011F480E015C0E0914404F091E8
:101BB000450483A194A1A5A1B6A1609470948094DA
:101BC000909486219721A821B92183A394A3A5A34A
:101BD000B6A381E0E0914404F091450417A20F9070
:101BE0000FBEDF91CF911F910F91FF90EF90DF908B
:101BF000CF90BF90AF909F908F907F906F900895FF
:101C00001F93182F0FB6F8940F92E0914404F091AF
:101C1000450483A194A1A5A1B6A10097A105B10592
:101C200079F4E0914404F091450481E087A36115C3
:101C3000710531F0CB0161E00E94350D0E94600218
:101C40000F900FBE0FB6F8940F92E0914404F091FC
:101C5000450423A134A145A156A121153105410513
:101C60005105D9F0112349F0E0914404F091450465
:101C700013A214A215A216A210C0E0914404F09180
:101C80004504215030404040504023A334A345A395
:101C900056A32F5F3F4F4F4F5F4FE0914404F091A9
:101CA000450417A20F900FBEB901CA011F910895F4
:101CB0000F931F938A01E0914404F09145047068EA
:101CC000758764876091440470914504645F7F4F19
:101CD0000E945E04C80161E00E94350D1F910F91C2
:101CE00008959C01009769F0809146048F5F80936E
:101CF0004604C90160E00E94350D0E943B0C882318
:101D000011F40E9460020895FC01809146048F5FE7
:101D1000809346044091490450914A0420813181C6
:101D2000620F731F4217530728F46217730728F0D6
:101D300080E008C06217730720F080E0461757075D
:101D400008F481E071836083882331F0CB01841B28
:101D5000950B60E00E94350D0E943B0C882311F426
:101D60000E94600208950F931F938B0160914404B9
:101D700070914504645F7F4F0E947D04C80161E05B
:101D80000E94350D1F910F910895F8941092500400
:101D90000E94FF0108950F931F932CC08091460469
:101DA0008F5F80934604109198040E943B0C11238E
:101DB00009F10FB6F8940F92E0919D04F0919E0402
:101DC00006811781C80102960E94AF0480914F04DA
:101DD000815080934F048091530481508093530429
:101DE0000F900FBEF8018789908D0E94A311C80142
:101DF0000E94A31180915304882381F68091550499
:101E0000823010F00E9460020E949500F3CF0F9381
:101E10001F93CF93DF930FB6F8940F92009729F496
:101E2000C0914404D091450401C0EC018E010E5FC5
:101E30001F4FC8010E94AF048C899D89892B21F016
:101E4000CE010C960E94AF04809154048F5F809362
:101E500054048091440490914504C817D90759F45B
:101E600088E994E0B8010E945E04809153048F5F7A
:101E70008093530426C080914F04815080934F0477
:101E80008F89988D0E94A311CE010E94A311E09129
:101E90008B04F0918C048081882319F48FEF9FEFDD
:101EA0000CC0E0918B04F0918C040580F681E02D4C
:101EB0000680F781E02D8281938190934C0480937A
:101EC0004B040F900FBE80915004882349F08091FD
:101ED000440490914504C817D90711F40E94600288
:101EE000DF91CF911F910F9108954F925F926F9262
:101EF0007F928F929F92AF92BF92CF92DF92EF929A
:101F0000FF920F931F93CF93DF932C01162F972EE1
:101F10006A0139015701CA010E94B2117C01009780
:101F200099F088E290E00E94B211EC01009749F02C
:101F3000F88EEF8A812F992D9C01F901DE0190E046
:101F400005C0C7010E94A3118FEFB9C080815996C7
:101F50008C9359978081882329F09F5F3196119641
:101F60009830A1F718A2043008F003E00E8B09A303
:101F70001AA272E0872E912C8C0E9D1EC4010E9425
:101F80005A04CE010C960E945A04D987C88784E06F
:101F900090E0801B91099D878C87DB8BCA8B1BA2ED
:101FA0001CA21DA21EA21FA20894C108D108C7012D
:101FB0008C0D9D1DB201A3010E947C019983888331
:101FC000A114B10419F0F501D183C0830FB6F894C0
:101FD0000F9280914F048F5F80934F04809144044F
:101FE00090914504892BA9F5D0934504C0934404EE
:101FF00080914F048130E9F585E594E00E944A0420
:102000008EE594E00E944A0487E694E00E944A0428
:1020100080E794E00E944A0469E7E62E64E0F62E29
:10202000C7010E944A0402E814E0C8010E944A0461
:102030008FE894E00E944A0488E994E00E944A04F0
:10204000F0928C04E0928B0410938E0400938D0424
:1020500010C080915004882361F4E0914404F09111
:10206000450496898E89891720F0D0934504C09342
:102070004404809154048F5F809354049E8980911E
:102080004704891710F49093470489E0989FC00192
:1020900011248B5A9B4FB4010E945E040F900FBE17
:1020A00080915004882351F0E0914404F09145045C
:1020B00096898E89981710F40E94600281E0DF9162
:1020C000CF911F910F91FF90EF90DF90CF90BF9035
:1020D000AF909F908F907F906F905F904F900895FA
:1020E000EF92FF920F938BEC9EE06CE072E045E57F
:1020F00050E020E030E000E0E1E5EE2EE4E0FE2EEE
:102100000E94750F813081F4F8948FEF9FEF9093C8
:102110004C0480934B0481E08093500410924A0455
:10212000109249040E94C5010F91FF90EF9008950D
:102130000FB6F8940F92E9ECF0E080818F7D8083F8
:1021400080818F7780830F900FBE08951F920F922A
:102150000FB60F920BB60F9211242F933F934F930C
:102160005F936F937F938F939F93AF93BF93EF93FF
:10217000FF93DF93CF930F920F92CDB7DEB780918D
:10218000A3049091A404BE016F5F7F4FAE014E5F28
:102190005F4F0E943505813021F489818093CE0004
:1021A00005C08091C9008F7D8093C9000F900F906A
:1021B000CF91DF91FF91EF91BF91AF919F918F915F
:1021C0007F916F915F914F913F912F910F900BBE37
:1021D0000F900FBE0F901F9018951F920F920FB681
:1021E0000F920BB60F9211242F933F934F935F934F
:1021F0006F937F938F939F93AF93BF93EF93FF93CF
:10220000DF93CF930F920F92CDB7DEB71A828091F2
:10221000CE0089838091A1049091A204BE016F5FDA
:102220007F4FAE014E5F5F4F20E00E94F1068A8132
:10223000882311F00E9460020F900F90CF91DF91E0
:10224000FF91EF91BF91AF919F918F917F916F918E
:102250005F914F913F912F910F900BBE0F900FBE4A
:102260000F901F901895DF93CF930F92CDB7DEB7E5
:1022700069838091A3049091A404BE016F5F7F4F96
:1022800020E00E942007813011F080E006C080919C
:10229000C90080628093C90081E00F90CF91DF91E7
:1022A00008958091A1049091A20420E00E94C805A5
:1022B000811181E00895DF92EF92FF920F931F93B7
:1022C0007B018C01D42E0FB6F8940F92842F61E01D
:1022D00040E00E940D089093A2048093A1048D2DEC
:1022E00061E040E00E940D089093A4048093A30451
:1022F00094E0EE0CFF1C001F111F9A95D1F760E0CF
:1023000074E284EF90E0A80197010E9431262150E9
:102310003040404050402093CC00232F342F452F95
:1023200055272093CD0088E98093C90086E88093E3
:10233000CA000F900FBE80E090E01F910F91FF90B8
:10234000EF90DF900895CF93DF93EC01009739F081
:102350000E944F08CE010E9437270E943B0CDF915C
:10236000CF9108950F931F938C010E944F08C801CD
:102370000E948A26182F092F0E943B0C812F902F34
:102380001F910F9108952F923F924F925F926F92FB
:102390007F928F929F92AF92BF92CF92DF92EF92F5
:1023A000FF920F931F93DF93CF93CDB7DEB7C05843
:1023B000D0400FB6F894DEBF0FBECDBFDE01119640
:1023C000E5E2F3E08CE001900D928150E1F7DE014F
:1023D0001D96E9E1F3E08CE001900D928150E1F768
:1023E000DE015996EDE0F3E08CE001900D92815012
:1023F000E1F7DE019596E1E0F3E08CE001900D92CB
:102400008150E1F7DE01D196E5EFF2E08CE001903A
:102410000D928150E1F7C0905905D0905A05C11432
:10242000D10449F0809157059091580501969093F9
:10243000580580935705E0902105F0902205009102
:10244000230510912405C801B70120914F05309153
:10245000500540915105509152050E94CA2288238F
:1024600061F4CD2851F08091550590915605019663
:10247000909356058093550508C0E0924F05F09261
:10248000500500935105109352056091A504709179
:10249000A6048091A7049091A8042AE939E141EDAE
:1024A00052E40E94FA22181664F48AE999E1A1ED37
:1024B000B2E48093A5049093A604A093A704B093DC
:1024C000A8046091A5047091A6048091A70490913E
:1024D000A8042DEC3CEC48E752EC0E942A23882308
:1024E00064F48DEC9CECA8E7B2EC8093A504909387
:1024F000A604A093A704B093A8046091A9047091C6
:10250000AA048091AB049091AC042AE939E141ED31
:1025100052E40E94FA22181664F48AE999E1A1EDC6
:10252000B2E48093A9049093AA04A093AB04B0935F
:10253000AC046091A9047091AA048091AB049091BD
:10254000AC042DEC3CEC48E752EC0E942A23882393
:1025500064F48DEC9CECA8E7B2EC8093A904909312
:10256000AA04A093AB04B093AC046091AD04709145
:10257000AE048091AF049091B0042AE939E141EDB5
:1025800052E40E94FA22181664F48AE999E1A1ED56
:10259000B2E48093AD049093AE04A093AF04B093E3
:1025A000B0046091AD047091AE048091AF0490913D
:1025B000B0042DEC3CEC48E752EC0E942A2388231F
:1025C00064F48DEC9CECA8E7B2EC8093AD0490939E
:1025D000AE04A093AF04B093B0046091B1047091C5
:1025E000B2048091B3049091B4042AE939E141ED39
:1025F00052E40E94FA22181664F48AE999E1A1EDE6
:10260000B2E48093B1049093B204A093B304B09366
:10261000B4046091B1047091B2048091B3049091BC
:10262000B4042DEC3CEC48E752EC0E942A238823AA
:1026300064F48DEC9CECA8E7B2EC8093B104909329
:10264000B204A093B304B093B40480913F05909179
:102650004005ED969FAF8EAFED97A0914305B091E9
:102660004405EB96BFAFAEAFEB97E0913D05F0911F
:102670003E05E996FFAFEEAFE99780914105909155
:102680004205E7969FAF8EAFE7978091C104909186
:10269000C204A091C304B091C404E5968CAF9DAF71
:1026A000AEAFBFAFE5978091A5049091A604A0912D
:1026B000A704B091A80421968CAF9DAFAEAFBFAF79
:1026C00021978091A9049091AA04A091AB04B091A4
:1026D000AC0425968CAF9DAFAEAFBFAF2597809170
:1026E000AD049091AE04A091AF04B091B0042996CE
:1026F0008CAF9DAFAEAFBFAF29978091B1049091E1
:10270000B204A091B304B091B4042D968CAF9DAFE8
:10271000AEAFBFAF2D978091C5049091C604A09134
:10272000C704B091C804E1968CAF9DAFAEAFBFAF08
:10273000E1978091C9049091CA04A091CB04B09113
:10274000CC04AD968CAF9DAFAEAFBFAFAD9791E36C
:10275000692E712C6C0E7D1E88249924AA24BB241A
:102760000F2EF0E02F2EF0E03F2EF0E04F2EF0E0A5
:102770005F2EF02DF501EB54FB4F80819181A281FA
:10278000B381C358DF4F88839983AA83BB83CD5716
:10279000D040F501E352FD4FBC01CD0120813181D4
:1027A000428153810E94C620D3016D937D938D9306
:1027B0009C931397B1E08B169104C1F0E2E08E1662
:1027C000910429F181149104F1F5ED968EAD9FAD40
:1027D000ED97892B31F4EB96AEADBFADEB97AB2BFC
:1027E00091F129AA3AAA4BAA5CAA2DC0E996EEADAE
:1027F000FFADE997EF2B31F4E7968EAD9FADE797EC
:10280000892B09F12DAA3EAA4FAA58AE1CC0E99601
:10281000AEADBFADE997AB2B91F4ED96EEADFFAD4C
:10282000ED97EF2B61F4E7968EAD9FADE797892B7F
:1028300031F4EB96AEADBFADEB97AB2B21F029AEEB
:102840003AAE4BAE5CAE01E010E00C0F1D1F0A0D5E
:102850001B1DF501E752FB4FD3016D917D918D91C9
:102860009C9120813181428153810E94F72029E28D
:102870003CE54FE85CE30E942421F501E353FB4F64
:1028800020813181428153810E94F720F8016083C9
:10289000718382839383F1E08F16910409F46AC0F7
:1028A00082E08816910409F4C6C08114910409F0ED
:1028B00022C1E5966CAD7DAD8EAD9FADE59720E074
:1028C00030E040E351EC0E9424217B018C012196F1
:1028D0006CAD7DAD8EAD9FAD219720E030E040E046
:1028E00050E00E9424219B01AC01C801B7010E9465
:1028F000F7207B018C0125966CAD7DAD8EAD9FAD33
:10290000259724EB39E545E75EEB0E9424219B01E6
:10291000AC01C801B7010E94F7207B018C01299608
:102920006CAD7DAD8EAD9FAD299720E030E040E0ED
:1029300050E00E9424219B01AC01C801B7010E9414
:10294000F7207B018C012D966CAD7DAD8EAD9FADDA
:102950002D9724EB39E545E75EE30E9424219B0196
:10296000AC01C801B7010E94F720698F7A8F8B8F65
:102970009C8FC1C0E1966CAD7DAD8EAD9FADE197F2
:1029800020E030E040E451EC0E9424217B018C01E6
:1029900021966CAD7DAD8EAD9FAD219724EB39E5D1
:1029A00045E75EE30E9424219B01AC01C801B70109
:1029B0000E94F7207B018C0125966CAD7DAD8EAD1C
:1029C0009FAD259720E030E040E050E00E942421B8
:1029D0009B01AC01C801B7010E94F7207B018C016B
:1029E00029966CAD7DAD8EAD9FAD299724EB39E571
:1029F00045E75EEB0E9424219B01AC01C801B701B1
:102A00000E94F7207B018C012D966CAD7DAD8EADC3
:102A10009FAD2D9720E030E040E050E00E9424215F
:102A20009B01AC01C801B7010E94F7206D8F7E8F1A
:102A30008F8F98A360C0AD966CAD7DAD8EAD9FAD10
:102A4000AD9720E030E040E551EC0E9424217B016D
:102A50008C0121966CAD7DAD8EAD9FAD219721E5AA
:102A60003BE64AE15DE30E9424219B01AC01C801E1
:102A7000B7010E94F7207B018C0125966CAD7DADDE
:102A80008EAD9FAD259721E53BE64AE15DEB0E94C7
:102A900024219B01AC01C801B7010E94F7207B01F2
:102AA0008C0129966CAD7DAD8EAD9FAD299721E54A
:102AB0003BE64AE15DE30E9424219B01AC01C80191
:102AC000B7010E94F7207B018C012D966CAD7DAD86
:102AD0008EAD9FAD2D9721E53BE64AE15DEB0E946F
:102AE00024219B01AC01C801B7010E94F72069A312
:102AF0007AA38BA39CA3E9E1F0E0EC0FFD1FEA0DA4
:102B0000FB1DD501AB51BB4F6081718182819381E7
:102B10002D913D914D915C910E94F72029E23CE579
:102B20004FE85CE30E942421F501EF50FB4F208128
:102B30003181428153810E94F7207B018C01E5E2C3
:102B4000F0E0EC0FFD1FEA0DFB1D608371838283B3
:102B500093838DE0C82ED12CCC0EDD1ECA0CDB1C5D
:102B6000F501EF5EFD4FC358DF4F688179818A819F
:102B70009B81CD57D04020813181428153810E9479
:102B800024219B01AC01C801B7010E94C620D601D7
:102B90006D937D938D939C9313970894811C911C46
:102BA000E4E0F0E0AE0EBF1E6E0E7F1EF3E08F1667
:102BB000910409F0DFCD8091B5049091B604A09105
:102BC000B704B091B804A9968CAF9DAFAEAFBFAFBC
:102BD000A9978091B9049091BA04A091BB04B091D7
:102BE000BC04A5968CAF9DAFAEAFBFAFA59780914B
:102BF000BD049091BE04A091BF04B091C004A19601
:102C00008CAF9DAFAEAFBFAFA1978D859E85AF85D1
:102C1000B8896D968CAF9DAFAEAFBFAF6D97898908
:102C20009A89AB89BC8969968CAF9DAFAEAFBFAFB7
:102C300069978D899E89AF89B88D65968CAF9DAF58
:102C4000AEAFBFAF659789819A81AB81BC81619638
:102C50008CAF9DAFAEAFBFAF61974D805E806F8090
:102C6000788489849A84AB84BC84CC24DD2491E06C
:102C7000C916D10409F4BEC0A2E0CA16D10424F4D6
:102C8000C114D10461F0B6C2B2E0CB16D10409F48C
:102C90005CC1E3E0CE16D10409F0ACC201C2A99632
:102CA0006CAD7DAD8EAD9FADA99720E030E040E0EA
:102CB00050E00E9424217B018C01A5966CAD7DAD76
:102CC0008EAD9FADA59729EC35E245E253EC0E940D
:102CD00024219B01AC01C801B7010E94F7207B01B0
:102CE0008C01A1966CAD7DAD8EAD9FADA1972BE40F
:102CF0003AE54FE553EC0E9424219B01AC01C80149
:102D0000B7010E94F7207B018C016D966CAD7DAD03
:102D10008EAD9FAD6D9720E030E040E050E00E9426
:102D200024219B01AC01C801B7010E94F7207B015F
:102D30008C0169966CAD7DAD8EAD9FAD69972FE826
:102D400034E240E352EC0E9424219B01AC01C80113
:102D5000B7010E94F7207B018C0165966CAD7DADBB
:102D60008EAD9FAD65972AEB3BE049E852EC0E949F
:102D700024219B01AC01C801B7010E94F7207B010F
:102D80008C0161966CAD7DAD8EAD9FAD619720E0FD
:102D900030E040E050E00E9424219B01AC01C801DA
:102DA000B7010E94F7207B018C01C301B2012DE81D
:102DB00038EF4CE553EC0E9424219B01AC01C80183
:102DC000B7010E94F7207B018C01C501B40120E00E
:102DD00030E04AE753EC0E9424219B01AC01C8017A
:102DE000B7010E94F72021966CAF7DAF8EAF9FAFE9
:102DF000219700C2A9966CAD7DAD8EAD9FADA99710
:102E000029EC35E245E253E40E9424217B018C0148
:102E1000A5966CAD7DAD8EAD9FADA59720E030E061
:102E200040E050E00E9424219B01AC01C801B701A1
:102E30000E94F7207B018C01A1966CAD7DAD8EAD1B
:102E40009FADA1972BE43AE54FE553E40E9424217E
:102E50009B01AC01C801B7010E94F7207B018C01E6
:102E60006D966CAD7DAD8EAD9FAD6D972FE834E264
:102E700040E352E40E9424219B01AC01C801B70148
:102E80000E94F7207B018C0169966CAD7DAD8EAD03
:102E90009FAD699720E030E040E050E00E9424219F
:102EA0009B01AC01C801B7010E94F7207B018C0196
:102EB00065966CAD7DAD8EAD9FAD65972AEB3BE021
:102EC00049E852E40E9424219B01AC01C801B701EA
:102ED0000E94F7207B018C0161966CAD7DAD8EADBB
:102EE0009FAD61972DE838EF4CE553E40E94242113
:102EF0009B01AC01C801B7010E94F7207B018C0146
:102F0000C301B20120E030E040E050E00E94242103
:102F10009B01AC01C801B7010E94F7207B018C0125
:102F2000C501B40120E030E04AE753E40E942421C7
:102F30009B01AC01C801B7010E94F72025966CAF38
:102F40007DAF8EAF9FAF259755C1A9966CAD7DAD76
:102F50008EAD9FADA99720E030E040E050E00E94A8
:102F600024217B018C01A5966CAD7DAD8EAD9FAD0E
:102F7000A59729EC35E245E253E40E9424219B0108
:102F8000AC01C801B7010E94F7207B018C01A1961A
:102F90006CAD7DAD8EAD9FADA1972BE43AE54FE5CD
:102FA00053EC0E9424219B01AC01C801B7010E948F
:102FB000F7207B018C016D966CAD7DAD8EAD9FAD24
:102FC0006D9720E030E040E050E00E9424219B011A
:102FD000AC01C801B7010E94F7207B018C01699602
:102FE0006CAD7DAD8EAD9FAD69972FE834E240E3C7
:102FF00052E40E9424219B01AC01C801B7010E9448
:10300000F7207B018C0165966CAD7DAD8EAD9FADDB
:1030100065972AEB3BE049E852EC0E9424219B0192
:10302000AC01C801B7010E94F7207B018C016196B9
:103030006CAD7DAD8EAD9FAD619720E030E040E09E
:1030400050E00E9424219B01AC01C801B7010E94FD
:10305000F7207B018C01C301B2012DE838EF4CE56C
:1030600053E40E9424219B01AC01C801B7010E94D6
:10307000F7207B018C01C501B40120E030E04AE774
:1030800053EC0E9424219B01AC01C801B7010E94AE
:10309000F72029966CAF7DAF8EAF9FAF2997AAC05E
:1030A000A9966CAD7DAD8EAD9FADA99729EC35E2AB
:1030B00045E253EC0E9424217B018C01A5966CAD66
:1030C0007DAD8EAD9FADA59720E030E040E050E0B3
:1030D0000E9424219B01AC01C801B7010E94F72086
:1030E0007B018C01A1966CAD7DAD8EAD9FADA1979E
:1030F0002BE43AE54FE553E40E9424219B01AC0107
:10310000C801B7010E94F7207B018C016D966CAD60
:103110007DAD8EAD9FAD6D972FE834E240E352EC6C
:103120000E9424219B01AC01C801B7010E94F72035
:103130007B018C0169966CAD7DAD8EAD9FAD6997BD
:1031400020E030E040E050E00E9424219B01AC01EF
:10315000C801B7010E94F7207B018C0165966CAD18
:103160007DAD8EAD9FAD65972AEB3BE049E852E41B
:103170000E9424219B01AC01C801B7010E94F720E5
:103180007B018C0161966CAD7DAD8EAD9FAD61977D
:103190002DE838EF4CE553EC0E9424219B01AC0153
:1031A000C801B7010E94F7207B018C01C301B20165
:1031B00020E030E040E050E00E9424219B01AC017F
:1031C000C801B7010E94F7207B018C01C501B40141
:1031D00020E030E04AE753E40E9424219B01AC0147
:1031E000C801B7010E94F7202D966CAF7DAF8EAF5E
:1031F0009FAF2D970894C11CD11CF4E0CF16D104C9
:1032000009F035CD2D968CAD9DADAEADBFAD2D97F2
:103210008093B1049093B204A093B304B093B40428
:1032200029968CAD9DADAEADBFAD29978093AD0411
:103230009093AE04A093AF04B093B00425968CADE8
:103240009DADAEADBFAD25978093A9049093AA0420
:10325000A093AB04B093AC0421968CAD9DADAEAD04
:10326000BFAD21978093A5049093A604A093A704D3
:10327000B093A80489A99AA9ABA9BCA98093D90441
:103280009093DA04A093DB04B093DC048DA99EA98B
:10329000AFA9B8AD8093DD049093DE04A093DF0462
:1032A000B093E00489AD9AADABADBCAD8093E104C1
:1032B0009093E204A093E304B093E40461968CAD90
:1032C0009DADAEADBFAD61978093CD049093CE041C
:1032D000A093CF04B093D0044092D1045092D20472
:1032E0006092D3047092D4048092D5049092D60454
:1032F000A092D704B092D804898D9A8DAB8DBC8DE5
:103300008093E5049093E604A093E704B093E80467
:103310008D8D9E8DAF8DB8A18093E9049093EA04C2
:10332000A093EB04B093EC0489A19AA1ABA1BCA13A
:103330008093ED049093EE04A093EF04B093F00417
:103340008DA19EA1AFA1B8A58093F1049093F20442
:10335000A093F304B093F40489A59AA5ABA5BCA5EA
:103360008093F5049093F604A093F704B093F804C7
:103370008DA59EA5AFA5B8A98093F9049093FA04F2
:10338000A093FB04B093FC046D968CAD9DADAEADE7
:10339000BFAD6D978093C1049093C204A093C30402
:1033A000B093C40469968CAD9DADAEADBFAD6997C9
:1033B0008093C5049093C604A093C704B093C80437
:1033C00065968CAD9DADAEADBFAD65978093C904DC
:1033D0009093CA04A093CB04B093CC04C058DF4FA1
:1033E0000FB6F894DEBF0FBECDBFCF91DF911F9116
:1033F0000F91FF90EF90DF90CF90BF90AF909F9094
:103400008F907F906F905F904F903F902F90089596
:103410002F923F924F925F926F927F928F929F92E4
:10342000AF92BF92CF92DF92EF92FF920F931F93D2
:10343000DF93CF93CDB7DEB728970FB6F894DEBFF2
:103440000FBECDBF8E010F5F1F4F88E0F8011192B4
:103450008A95E9F76091A5047091A6048091A7046C
:103460009091A8042091A9043091AA044091AB0442
:103470005091AC040E94F7202091AD043091AE042D
:103480004091AF045091B0040E94F7202091B10404
:103490003091B2044091B3045091B4040E94F720DB
:1034A0009B01AC016091FD047091FE048091FF04CA
:1034B000909100050E94C62020E030E040E85EE3E5
:1034C0000E9424214B015C016DE3E62E65E0F62E9F
:1034D00055EAC52E54E0D52E40EA242E312C31E099
:1034E000632E712C21EE422E512CF7011182108295
:1034F000C501B401F60120813181428153810E94CE
:10350000F72020E030E849ED53E40E94F7202CE951
:1035100032EA43E25EE30E9424212BE734E945EFDF
:1035200052E40E94F7200E94E823F801718360832F
:10353000623E71051CF05182408206C0603A7105FE
:1035400034F4F80131822082F7017182608282E0D6
:1035500090E0E80EF91EE4E0F0E0CE0EDF1E0E5F14
:103560001F4FF5E4EF16F5E0FF0609F0BECF80919E
:10357000530590915405892B39F080E887BD8093DD
:10358000A8008093AA0009C0898187BD8B818093A0
:10359000A8008D818093AA008F818093AC0028962B
:1035A0000FB6F894DEBF0FBECDBFCF91DF911F9154
:1035B0000F91FF90EF90DF90CF90BF90AF909F90D2
:1035C0008F907F906F905F904F903F902F900895D5
:1035D00091E894BD23E025BD87BD90E894B916BC61
:1035E00099EA9093A0002093A1008093A800809373
:1035F000AA008093AC001092A9001092AB00109228
:10360000AD0088E3809301011092A4001092A50000
:10361000089587BD6093A8004093AA002093AC0052
:10362000089520E030E08091C00087FFFCCF8091BA
:10363000C6008F3F21F52130310519F021E030E03F
:10364000F2CF8091C00087FFFCCF8091C6008F3FF2
:1036500039F481E090E090935405809353050CC0B9
:103660008091C00087FFFCCF8091C6008E3F39F467
:10367000109254051092530521E030E002C020E082
:1036800030E0C90108952F923F924F925F926F925E
:103690007F928F929F92AF92BF92CF92DF92EF92E2
:1036A000FF920F931F93DF93CF93CDB7DEB7699748
:1036B0000FB6F894DEBF0FBECDBFFE01319682E19A
:1036C000DF011D928A95E9F79E012D5E3F4F8091A3
:1036D000C00087FFFCCF8091C6008193E217F307FB
:1036E000B1F710924C0510924B0599808A807B802F
:1036F0006C805D804E80BF81B98F388429842A8593
:10370000288F6B856F8B8C858E8B9D859D8BAE8571
:10371000AC8BBF85BB8BE62CFF2400E010E087015B
:10372000FF24EE24852D90E0A0E0B0E0BA2FA92F71
:10373000982F8827E82AF92A0A2B1B2B842D90E042
:10374000A0E0B0E0E82AF92A0A2B1B2B292D30E053
:1037500040E050E0A90133272227882D90E0A0E027
:10376000B0E0BA2FA92F982F8827282B392B4A2B66
:103770005B2B872D90E0A0E0B0E0282B392B4A2B63
:103780005B2BE20EF31E041F151F698D262F30E000
:1037900040E050E0A90133272227832D90E0A0E0EC
:1037A000B0E0BA2FA92F982F8827282B392B4A2B26
:1037B0005B2B822D90E0A0E0B0E0282B392B4A2B28
:1037C0005B2BE20EF31E041F151F888D282F30E09F
:1037D00040E050E0A901332722276F89862F90E02F
:1037E000A0E0B0E0BA2FA92F982F8827282B392BDB
:1037F0004A2B5B2B6E89862F90E0A0E0B0E0282B4F
:10380000392B4A2B5B2BE20EF31E041F151F8D89EB
:10381000282F30E040E050E0A901332722276C89AF
:10382000862F90E0A0E0B0E0BA2FA92F982F88272C
:10383000282B392B4A2B5B2B6B89862F90E0A0E03D
:10384000B0E0282B392B4A2B5B2BE20EF31E041F12
:10385000151FFFEFAF2EFFEFBF2EFFEFCF2ED12CA6
:10386000AE20BF20C022D122288930E040E050E0C5
:10387000A90133272227898990E0A0E0B0E0BA2F80
:10388000A92F982F8827282B392B4A2B5B2B8A8925
:1038900090E0A0E0B0E0282B392B4A2B5B2BA20E46
:1038A000B31EC41ED51E80E090E0A0E0B7E0E82281
:1038B000F9220A231B23E12EFF2400271127AE0C37
:1038C000BF1CC01ED11E9FEFA9169FEFB9069FEF28
:1038D000C90690E0D90609F0D5C297FC03C021E0E3
:1038E00030E002C02FEF3FEFB901882777FD8095C8
:1038F000982F0E948A237B018C01692D70E0660F4E
:10390000771F7070282D221F2227221F30E0622B84
:10391000732B882777FD8095982F0E948A239B011F
:10392000AC01C801B7010E94242120E030E048EC3E
:1039300052E40E941E226093B5047093B6048093F3
:10394000B7049093B804C82CDD2486FC03C021E0A2
:1039500030E002C02FEF3FEFB901882777FD809557
:10396000982F0E948A237B018C01CC0CDD1CCC0C8F
:10397000DD1CAFEFCA22DD24872D829586958695C2
:10398000837090E0C82AD92AB601882777FD8095F0
:10399000982F0E948A239B01AC01C801B7010E94A5
:1039A000242120E030E048EC52E40E941E22609383
:1039B000B9047093BA048093BB049093BC04C72CE1
:1039C000DD2475FC03C021E030E002C02FEF3FEFA3
:1039D000B901882777FD8095982F0E948A237B0163
:1039E0008C0133E0CC0CDD1C3A95E1F7BFEFCB2224
:1039F000DD24862D82958695877090E0C82AD92A85
:103A0000B601882777FD8095982F0E948A239B0115
:103A1000AC01C801B7010E94242120E030E04AEF48
:103A200053E40E941E226093BD047093BE048093F1
:103A3000BF049093C004C62CDD2464FC03C021E0C5
:103A400030E002C02FEF3FEFB901882777FD809566
:103A5000982F0E948A237B018C0125E0CC0CDD1C71
:103A60002A95E1F780EE91E0C822D922852D86952E
:103A70008695869590E0C82AD92AB601882777FDD1
:103A80008095982F0E948A239B01AC01C801B70141
:103A90000E94242120E030E048EC52E40E941E22E3
:103AA00060930105709302058093030590930405CC
:103AB000C52CDD2452FC03C021E030E002C02FEF12
:103AC0003FEFB901882777FD8095982F0E948A23C0
:103AD0007B018C01D694DC2CCC24D794C794A0E82D
:103AE000B1E0CA22DB22842D869590E0C82AD92A2B
:103AF000B601882777FD8095982F0E948A239B0125
:103B0000AC01C801B7010E94242120E030E048EC5C
:103B100052E40E941E22609305057093060580936F
:103B200007059093080540FC03C021E030E002C087
:103B30002FEF3FEFB901882777FD8095982F0E94DE
:103B40008A237B018C01B98D6B2F70E0660F771F84
:103B5000232D221F2227221F30E0622B732B882760
:103B600077FD8095982F0E948A239B01AC01C801A4
:103B7000B7010E94242120E030E048EC52E40E948A
:103B80001E226093090570930A0580930B0590939C
:103B90000C05C32CDD2436FC03C021E030E002C05C
:103BA0002FEF3FEFB901882777FD8095982F0E946E
:103BB0008A237B018C01B3E0CC0CDD1CBA95E1F7C4
:103BC00088EF91E0C822D922822D82958695877050
:103BD00090E0C82AD92AB601882777FD8095982FCA
:103BE0000E948A239B01AC01C801B7010E942421D5
:103BF00020E030E048EC52E40E941E2260930D0564
:103C000070930E0580930F0590931005C22CDD2450
:103C100024FC03C021E030E002C02FEF3FEFB901E8
:103C2000882777FD8095982F0E948A237B018C013D
:103C3000A5E0CC0CDD1CAA95E1F7A0EEB1E0CA220C
:103C4000DB22888D86958695869590E0C82AD92AAC
:103C5000B601882777FD8095982F0E948A239B01C3
:103C6000AC01C801B7010E94242120E030E048ECFB
:103C700052E40E941E2260931105709312058093F6
:103C8000130590931405B88DCB2EDD24B2FD03C02F
:103C900021E030E002C02FEF3FEFB901882777FD28
:103CA0008095982F0E948A237B018C01D694DC2C6E
:103CB000CC24D794C79480E891E0C822D9228F8978
:103CC000869590E0C82AD92AB601882777FD809585
:103CD000982F0E948A239B01AC01C801B7010E9462
:103CE000242120E030E048EC52E40E941E22609340
:103CF00015057093160580931705909318059F89F5
:103D000090FD03C021E030E002C02FEF3FEFB9018A
:103D1000882777FD8095982F0E948A237B018C014C
:103D2000AE896A2F70E0660F771F660F771F2D89A7
:103D3000229526952695237030E0622B732B8827D9
:103D400077FD8095982F0E948A239B01AC01C801C2
:103D5000B7010E94242120E030E048EC52E40E94A8
:103D60001E226093190570931A0580931B0590938A
:103D70001C05BD89CB2EDD24B5FD03C021E030E05C
:103D800002C02FEF3FEFB901882777FD8095982F6C
:103D90000E948A237B018C0175E0CC0CDD1C7A9596
:103DA000E1F780EE93E0C822D9228C89869586952A
:103DB000869590E0C82AD92AB601882777FD809594
:103DC000982F0E948A239B01AC01C801B7010E9471
:103DD000242120E030E048EC52E40E941E2260934F
:103DE0001D0570931E0580931F0590932005EC8898
:103DF000E2FC03C021E030E002C02FEF3FEFB90149
:103E0000882777FD8095982F0E948A235B016C019B
:103E1000FE2CEE24A0E0B3E0EA22FB22BB898B2F2C
:103E200090E0E82AF92A0027F7FC0095102FC80136
:103E3000B7010E948A239B01AC01C601B5010E9413
:103E4000242120E030E048EC52E40E941E226093DE
:103E500021057093220580932305909324052AE081
:103E600037ED4FE151E40E945A2318163CF081E0EF
:103E700090E090935A058093590504C010925A051A
:103E80001092590569960FB6F894DEBF0FBECDBFEC
:103E9000CF91DF911F910F91FF90EF90DF90CF9026
:103EA000BF90AF909F908F907F906F905F904F905A
:103EB0003F902F9008959093C5008093C40088E1AF
:103EC0008093C1008EE08093C20008958091C0006D
:103ED00087FFFCCF8091C6000895982F8091C00085
:103EE00085FFFCCF9093C6000895089580917900D6
:103EF00090E00895A0E0B0E0E0E8FFE10C945326E4
:103F0000DC012B01FA019C91923008F439C1EB01DC
:103F10008881823008F433C1943069F4843009F028
:103F20002FC111969C9111978981981709F428C186
:103F3000A1E3B3E025C1843009F421C18230A9F4A2
:103F4000923009F01DC19A01AD0188E0EA010990A3
:103F5000AE01E90109929E018150C1F7E201898118
:103F600011969C918923818308C1923009F407C17D
:103F700012962D903C901397EB018A819B811496A9
:103F8000AD90BD90CD90DC901797EC80FD800E81B8
:103F90001F819101281B390BB90137FF04C0662727
:103FA0007727621B730B603271050CF061C012162B
:103FB00013066CF537014801062E04C096948794C9
:103FC000779467940A94D2F721E030E040E050E023
:103FD00004C0220F331F441F551F6A95D2F721508A
:103FE0003040404050402E213F2140235123211595
:103FF00031054105510521F021E030E040E050E07D
:1040000079018A01E628F728082919293CC0232BC1
:10401000D1F1260E371E35014601062E04C09694B6
:104020008794779467940A94D2F721E030E040E0D7
:1040300050E004C0220F331F441F551F6A95D2F76A
:1040400021503040404050402A213B214C215D21ED
:10405000211531054105510521F021E030E040E016
:1040600050E059016A01A628B728C828D9280BC0F2
:10407000821593052CF01C01AA24BB24650103C002
:10408000EE24FF24870111969C91D20111968C9108
:10409000981709F445C0992339F0A80197012A1906
:1040A0003B094C095D0906C0A60195012E193F097F
:1040B000400B510B57FD08C01182338222822483AA
:1040C0003583468357831DC081E0818333822282FA
:1040D00088279927DC01821B930BA40BB50B8483E3
:1040E0009583A683B7830DC0220F331F441F551F2E
:1040F00024833583468357838281938101979383F9
:1041000082832481358146815781DA01C901019773
:10411000A109B1098F5F9F4FAF4FBF4328F30BC079
:10412000918333822282EA0CFB1C0C1D1D1DE4824C
:10413000F5820683178383E080832481358146815D
:10414000578157FF1AC0C901AA2797FDA095BA2F1A
:1041500081709070A070B0705695479537952795EF
:10416000822B932BA42BB52B84839583A683B783B3
:1041700082819381019693838283DF0101C0D20102
:10418000CD01CDB7DEB7E2E10C946F26A0E2B0E03E
:10419000ECECF0E20C945F2669837A838B839C833A
:1041A0002D833E834F835887E9E0EE2EF12CEC0EF1
:1041B000FD1ECE010196B7010E9460258E010F5EA3
:1041C0001F4FCE010596B8010E9460258A8991E0B3
:1041D00089278A8BC701B801AE01475E5F4F0E94F5
:1041E0007A1F0E948B24A096E6E00C947B26A0E226
:1041F000B0E0EDEFF0E20C945F2669837A838B8365
:104200009C832D833E834F835887F9E0EF2EF12C5A
:10421000EC0EFD1ECE010196B7010E9460258E01B5
:104220000F5E1F4FCE010596B8010E946025C701A1
:10423000B801AE01475E5F4F0E947A1F0E948B2437
:10424000A096E6E00C947B26A0E2B0E0EAE2F1E280
:104250000C94532669837A838B839C832D833E83BE
:104260004F835887CE010196BE01675F7F4F0E9442
:104270006025CE010596BE016F5E7F4F0E946025CE
:104280009985923088F089898230C8F0943019F489
:10429000823051F404C0843029F4923081F481E3F7
:1042A00093E0C6C0923049F420E09A858A89981339
:1042B00021E02A87CE010996BBC0823049F420E074
:1042C0009A858A89981321E02A8BCE014196B0C045
:1042D0002D843E844F8458886D887E888F88988C82
:1042E000EE24FF248701AA24BB24650140E050E0AE
:1042F00060E070E0E0E0F0E0C10181709070892B37
:10430000E9F0E60CF71C081D191D9A01AB012A0DF6
:104310003B1D4C1D5D1D80E090E0A0E0B0E0E61488
:10432000F7040805190520F481E090E0A0E0B0E072
:10433000BA01A901480F591F6A1F7B1FAA0CBB1C99
:10434000CC1CDD1C97FE08C081E090E0A0E0B0E04E
:10435000A82AB92ACA2ADB2A3196E032F10549F0A7
:10436000660C771C881C991C5694479437942794A4
:10437000C3CFFA85EA892B893C898B859C85280FD8
:10438000391F2E5F3F4F17C0CA0181709070892B73
:1043900061F016950795F794E79480E090E0A0E02F
:1043A000B0E8E82AF92A0A2B1B2B769567955795D2
:1043B00047952F5F3F4F77FDE7CF0CC0440F551F48
:1043C000661F771F17FD4160EE0CFF1C001F111FB9
:1043D00021503040403090E0590790E0690790E468
:1043E000790760F32B8F3C8FDB01CA018F779070C8
:1043F000A070B07080349105A105B10561F447FD4E
:104400000AC0E114F1040105110529F0405C5F4F79
:104410006F4F7F4F40781A8EFE1711F081E08A8F20
:104420004D8F5E8F6F8F78A383E0898FCE01499681
:104430000E948B24A096E2E10C946F26A8E1B0E0E4
:10444000E4E2F2E20C945B2669837A838B839C839B
:104450002D833E834F835887B9E0EB2EF12CEC0E71
:10446000FD1ECE010196B7010E9460258E010F5EF0
:104470001F4FCE010596B8010E9460252985223084
:1044800008F47EC03989323010F4B8017CC08A85C6
:104490009A8989278A87243011F0223031F4231732
:1044A00009F06EC061E373E06EC0343039F41D86EC
:1044B0001E861F86188A1C861B8604C0323021F493
:1044C00084E08987B7015FC02B853C858B899C89F7
:1044D000281B390B3C872B87ED84FE840F851889B8
:1044E000AD88BE88CF88D88CEA14FB040C051D0566
:1044F00040F4EE0CFF1C001F111F215030403C8780
:104500002B8720E030E040E050E080E090E0A0E049
:10451000B0E460E070E0EA14FB040C051D0540F017
:10452000282B392B4A2B5B2BEA18FB080C091D0999
:10453000B695A79597958795EE0CFF1C001F111F48
:104540006F5F7F4F6F31710531F7DA01C9018F77E6
:104550009070A070B07080349105A105B10561F430
:1045600027FD0AC0E114F1040105110529F0205CC2
:104570003F4F4F4F5F4F20782D873E874F87588B97
:10458000BE01675F7F4FCB010E948B246896EAE0F3
:104590000C947726A8E1B0E0E0EDF2E20C945F26FF
:1045A00069837A838B839C832D833E834F835887D3
:1045B00089E0E82EF12CEC0EFD1ECE010196B7012C
:1045C0000E9460258E010F5E1F4FCE010596B80137
:1045D0000E9460258985823040F08989823028F0E8
:1045E000C701B8010E94D82501C081E06896E6E0C5
:1045F0000C947B26A8E1B0E0E0E0F3E20C945F26A7
:1046000069837A838B839C832D833E834F83588772
:1046100089E0E82EF12CEC0EFD1ECE010196B701CB
:104620000E9460258E010F5E1F4FCE010596B801D6
:104630000E9460258985823040F08989823028F087
:10464000C701B8010E94D82501C08FEF6896E6E047
:104650000C947B26A8E1B0E0E0E3F3E20C945F2643
:1046600069837A838B839C832D833E834F83588712
:1046700089E0E82EF12CEC0EFD1ECE010196B7016B
:104680000E9460258E010F5E1F4FCE010596B80176
:104690000E9460258985823040F08989823028F027
:1046A000C701B8010E94D82501C081E06896E6E004
:1046B0000C947B26A8E1B0E0E0E6F3E20C945F26E0
:1046C00069837A838B839C832D833E834F835887B2
:1046D00089E0E82EF12CEC0EFD1ECE010196B7010B
:1046E0000E9460258E010F5E1F4FCE010596B80116
:1046F0000E9460258985823040F08989823028F0C7
:10470000C701B8010E94D82501C081E06896E6E0A3
:104710000C947B26A8E0B0E0E0E9F3E20C945C2680
:104720009B01AC0183E08983DA01C9018827B7FDC9
:1047300083959927AA27BB27B82E21153105410556
:10474000510519F482E089833AC08823A9F020300A
:1047500080E0380780E0480780E8580729F460E0E7
:1047600070E080E09FEC30C0EE24FF248701E21A65
:10477000F30A040B150B02C079018A018EE1C82EE1
:10478000D12CDC82CB82ED82FE820F831887C80198
:10479000B7010E943C2401971816190684F4082ECC
:1047A00004C0EE0CFF1C001F111F0A94D2F7ED820B
:1047B000FE820F831887C81AD90ADC82CB82BA829C
:1047C000CE0101960E948B242896E9E00C9478266D
:1047D000ACE0B0E0EEEEF3E20C94632669837A83FA
:1047E0008B839C83CE010196BE016B5F7F4F0E943D
:1047F00060258D81823061F1823050F1843021F466
:104800008E81882351F12EC02F81388537FD20C03D
:104810006E812F3131051CF06623F9F023C08EE143
:1048200090E0821B930B29853A854B855C8504C0FB
:1048300056954795379527958A95D2F76623B1F017
:1048400050954095309521953F4F4F4F5F4F0EC08B
:1048500020E030E040E050E009C02FEF3FEF4FEFA5
:104860005FE704C020E030E040E050E8B901CA0151
:104870002C96E2E00C947F26EF92FF920F931F9309
:104880007B018C0180E0E81680E0F80681E00807F3
:1048900080E0180788F48FEFE816F1040105110590
:1048A00031F028F088E090E0A0E0B0E017C080E0B0
:1048B00090E0A0E0B0E012C080E0E81680E0F806EA
:1048C00080E0080781E0180728F088E190E0A0E088
:1048D000B0E004C080E190E0A0E0B0E020E230E091
:1048E00040E050E0281B390B4A0B5B0B04C01695C7
:1048F0000795F794E7948A95D2F7F701E75CFC4FA8
:104900008081281B310941095109C9011F910F916B
:10491000FF90EF900895DF92EF92FF920F931F9315
:10492000FC01E480F58006811781D180808182308E
:1049300048F480E090E0A0E1B0E0E82AF92A0A2BF0
:104940001B2BA5C0843009F49FC0823021F4EE24D3
:10495000FF24870105C0E114F1040105110519F4D4
:10496000E0E0F0E096C0628173819FEF62387907E2
:104970000CF05BC022E83FEF261B370B2A313105D4
:104980002CF020E030E040E050E02AC0B801A70160
:10499000022E04C076956795579547950A94D2F7ED
:1049A00081E090E0A0E0B0E004C0880F991FAA1F4A
:1049B000BB1F2A95D2F70197A109B1098E219F212A
:1049C000A023B1230097A105B10521F081E090E07B
:1049D000A0E0B0E09A01AB01282B392B4A2B5B2BCE
:1049E000DA01C9018F779070A070B07080349105A2
:1049F000A105B10539F427FF09C0205C3F4F4F4F97
:104A00005F4F04C0215C3F4F4F4F5F4FE0E0F0E04D
:104A10002030A0E03A07A0E04A07A0E45A0710F0CF
:104A2000E1E0F0E079018A0127C06038710564F5A2
:104A3000FB01E158FF4FD801C7018F779070A0703C
:104A4000B07080349105A105B10539F4E7FE0DC0C1
:104A500080E490E0A0E0B0E004C08FE390E0A0E04C
:104A6000B0E0E80EF91E0A1F1B1F17FF05C01695C0
:104A70000795F794E794319687E016950795F79494
:104A8000E7948A95D1F705C0EE24FF248701EFEF64
:104A9000F0E06E2F679566276795902F9F77D794E4
:104AA000DD24D7948E2F8695492F462B582F5D29CC
:104AB000B701CA011F910F91FF90EF90DF90089509
:104AC000FC01DB01408151812281622F6F7770E010
:104AD000221F2227221F9381892F880F822B282FA4
:104AE00030E0991F9927991F11969C9311972115D2
:104AF0003105A9F5411551056105710511F482E0F3
:104B000037C082E89FEF13969C938E9312979A0179
:104B1000AB0167E0220F331F441F551F6A95D1F781
:104B200083E08C930DC0220F331F441F551F129634
:104B30008D919C911397019713969C938E93129746
:104B4000203080E0380780E0480780E4580758F3B9
:104B500014962D933D934D935C93179708952F3F93
:104B6000310579F4411551056105710519F484E0A9
:104B70008C93089564FF03C081E08C9312C01C9253
:104B800010C02F57304013963C932E93129783E01A
:104B90008C9387E0440F551F661F771F8A95D1F7C6
:104BA000706414964D935D936D937C93179708955D
:104BB0001F93DC01FB019C91923008F447C0808177
:104BC000823008F443C0943051F411961C91843023
:104BD00099F58181682F70E0611B71093FC08430B5
:104BE00021F0923031F48230B9F18181882389F14A
:104BF0002DC011961C9111978230F1F08181181708
:104C0000D9F412962D913C9113978281938182174A
:104C1000930794F028173907BCF014968D919D9155
:104C20000D90BC91A02D2481358146815781281794
:104C300039074A075B0718F4112341F00AC08217AD
:104C40009307A407B50740F4112319F061E070E061
:104C500005C06FEF7FEF02C060E070E0CB011F91F5
:104C60000895A1E21A2EAA1BBB1BFD010DC0AA1FAD
:104C7000BB1FEE1FFF1FA217B307E407F50720F0C5
:104C8000A21BB30BE40BF50B661F771F881F991F40
:104C90001A9469F760957095809590959B01AC0189
:104CA000BD01CF0108952F923F924F925F926F9274
:104CB0007F928F929F92AF92BF92CF92DF92EF92AC
:104CC000FF920F931F93CF93DF93CDB7DEB7CA1B2D
:104CD000DB0B0FB6F894DEBF0FBECDBF19942A8848
:104CE000398848885F846E847D848C849B84AA8400
:104CF000B984C884DF80EE80FD800C811B81AA818D
:104D0000B981CE0FD11D0FB6F894DEBF0FBECDBF57
:104D1000ED010895CF93DF93BC018230910510F42B
:104D200062E070E0A0915F05B0916005ED01E0E008
:104D3000F0E040E050E021C0888199818617970714
:104D400069F48A819B81309719F09383828304C030
:104D50009093600580935F05FE0134C06817790762
:104D600038F44115510519F08417950708F4AC0182
:104D7000FE018A819B819C01E9012097E9F641159A
:104D80005105A9F1CA01861B970B049708F4BA01D3
:104D9000E0E0F0E02AC08D919C911197841795076F
:104DA000F9F46417750781F412968D919C9113970D
:104DB000309719F09383828304C0909360058093A9
:104DC0005F05FD0132964FC0CA01861B970BFD019E
:104DD000E80FF91F6193719302978D939C9343C0E1
:104DE000FD01828193819C01D9011097A1F68091E8
:104DF0005D0590915E05892B41F480913B04909173
:104E00003C0490935E0580935D0540913D04509174
:104E10003E044115510541F44DB75EB78091390408
:104E200090913A04481B590B20915D0530915E0525
:104E300024173507B0F4CA01821B930B8617970716
:104E400080F0AB014E5F5F4F8417950750F0420F23
:104E5000531F50935E0540935D05F9016193719373
:104E600002C0E0E0F0E0CF01DF91CF910895CF9351
:104E7000DF93009709F450C0EC0122971B821A823D
:104E8000A0915F05B0916005109709F140E050E0F6
:104E9000AC17BD0708F1BB83AA83FE0121913191B4
:104EA000E20FF31FAE17BF0779F48D919C91119714
:104EB000280F391F2E5F3F4F3983288312968D911B
:104EC0009C9113979B838A834115510571F4D0936C
:104ED0006005C0935F0520C012968D919C91139739
:104EE000AD01009711F0DC01D3CFFA01D383C28367
:104EF00021913191E20FF31FCE17DF0769F488810A
:104F00009981280F391F2E5F3F4FFA01318320838B
:104F10008A819B8193838283DF91CF910895FB01E6
:104F2000DC0102C001900D9241505040D8F7089525
:044F3000F894FFCF23
:104F3400436F6D00436F6E74726F6C0049444C454F
:104F440000000030C1000040C1000050C10000005A
:104F540000B45975BE00000000B459753EB45975CB
:104F64003E00000000B45975BE00000000516B1AE9
:104F74003D516B1ABD516B1A3D516B1ABD000000B7
:104F840000C92525C34B5A5FC3000000008F24309D
:104F9400C2BA0B89C2C9252543000000004B5A5FE1
:104FA400438F24304200000000BA0B894200000005
:104FB40000C92525434B5A5FC3000000008F2430ED
:104FC40042BA0B89C2C92525C3000000004B5A5FB1
:104FD400438F2430C200000000BA0B894200000055
:104FE400008DF85CC300007AC38DF85C43000000B8
:104FF4000000007A43000000008DF85C4300007A52
:10500400C38DF85CC30000000000007A4300000078
:105014000000000000CDCC4C3D9A993141AF00AF67
:1050240000AF00AF0000000000000000000000001E
:10503400000000000000000000000000000000006C
:10504400000000000000000000000000000000005C
:10505400000000000000000000000000000000004C
:10506400000000000000000000000102020303032E
:1050740003040404040404040405050505050505E6
:1050840005050505050505050506060606060606C5
:1050940006060606060606060606060606060606AC
:1050A4000606060606060606060707070707070795
:1050B400070707070707070707070707070707077C
:1050C400070707070707070707070707070707076C
:1050D400070707070707070707070707070707075C
:1050E4000707070707070707070808080808080845
:1050F400080808080808080808080808080808082C
:10510400080808080808080808080808080808081B
:10511400080808080808080808080808080808080B
:1051240008080808080808080808080808080808FB
:1051340008080808080808080808080808080808EB
:1051440008080808080808080808080808080808DB
:1051540008080808080808080808080808080808CB
:10516400080808080808080808200061050000006D
:00000001FF
