:100000000C9472000C9493000C9493000C94930045
:100010000C9493000C9493000C9493000C94930014
:100020000C9493000C9493000C9493000C94930004
:100030000C9493000C9493000C9493000C949300F4
:100040000C9493000C9444120C9493000C94930021
:100050000C9493000C9493000C9493000C949300D4
:100060000C9493000C9493000C9493000C949300C4
:100070000C9493000C9493000C9493000C949300B4
:100080000C9493000C9493000C9493000C949300A4
:100090000C947B010C9434010C9493000C94930009
:1000A0000C9493000C9493000C9493000C94930084
:1000B0000C9493000C9493000C9493000C94930074
:1000C0000C9493000C9493000C9493000C94930064
:1000D0000C9493000C9493000C9493000C94930054
:1000E0000C94930011241FBECFEFD1E2DEBFCDBF31
:1000F00000E00CBF12E0A0E0B2E0EAE9F5E200E0C7
:100100000BBF02C007900D92A831B107D9F718E0D4
:10011000A8E1B2E001C01D92A439B107E1F70E9445
:10012000B3000C94CB120C94000081E08EB90895BA
:100130001F93CF93DF9311E0C0E9D1E01EB988E8A7
:1001400093E1FE013197F1F70197D9F71EB888E8DE
:1001500093E1FE013197F1F70197D9F784E690E03A
:100160000E94A208EBCFEF92FF920F9388E990E0F4
:1001700060E072E04AEA50E020E030E003E0EE2484
:10018000FF240E94A6098FEF8DB91EB888E893E17D
:1001900020E931E0F9013197F1F70197D9F70E9491
:1001A0009F0A80E090E00F91FF90EF9008958FEF0D
:1001B0008093080284B98091080285B908951F933D
:1001C000282F8830E8F481E090E002C0880F991F62
:1001D0002A95E2F7182F0E949B0380910802812341
:1001E00029F0809108021095182303C0809108021D
:1001F000182B109308028091080285B90E94DD0631
:100200001F9108950F931F93282F062F8830D8F43D
:1002100081E090E002C0880F991F2A95E2F7182F1D
:100220000E949B03013029F4809108021095182345
:1002300003C080910802182B1093080280910802D5
:1002400085B90E94DD061F910F9108950FB6F894AD
:100250000F92E9ECF0E080818F7D808380818F7741
:1002600080830F900FBE08951F920F920FB60F92CA
:100270000BB60F9211242F933F934F935F936F937D
:100280007F938F939F93AF93BF93EF93FF93DF93EE
:10029000CF930F920F92CDB7DEB780911A02909153
:1002A0001B02BE016F5F7F4FAE014E5F5F4F0E942A
:1002B000420C813021F489818093CE0005C0809169
:1002C000C9008F7D8093C9000F900F90CF91DF916F
:1002D000FF91EF91BF91AF919F918F917F916F911E
:1002E0005F914F913F912F910F900BBE0F900FBEDA
:1002F0000F901F9018951F920F920FB60F920BB68A
:100300000F9211242F933F934F935F936F937F939B
:100310008F939F93AF93BF93EF93FF93DF93CF930D
:100320000F920F92CDB7DEB71A828091CE008983EB
:100330008091180290911902BE016F5F7F4FAE014C
:100340004E5F5F4F20E00E94930C8A81882311F05A
:100350000E9447120F900F90CF91DF91FF91EF9184
:10036000BF91AF919F918F917F916F915F914F91CD
:100370003F912F910F900BBE0F900FBE0F901F90CB
:100380001895DF93CF930F92CDB7DEB76983809135
:100390001A0290911B02BE016F5F7F4F20E00E9406
:1003A000BE0D813011F080E006C08091C9008062EE
:1003B0008093C90081E00F90CF91DF9108958091E3
:1003C00018029091190220E00E94040D811181E031
:1003D0000895DF92EF92FF920F931F937B018C01A0
:1003E000D42E0FB6F8940F92842F61E040E00E9463
:1003F000AB0E90931902809318028D2D61E040E0BE
:100400000E94AB0E90931B0280931A0294E0EE0CB4
:10041000FF1C001F111F9A95D1F760E074E284EF72
:1004200090E0A80197010E94A01221503040404066
:1004300050402093CC00232F342F452F5527209355
:10044000CD0088E98093C90086E88093CA000F90A8
:100450000FBE80E090E01F910F91FF90EF90DF9032
:10046000089590E080911C02882309F491E0892F7F
:100470000895F5E00F2EF6E01F2EF7E02F2EF8E09E
:100480003F2EF9E04F2EFAE05F2EFBE06F2EFCE0EE
:100490007F2EFDE08F2EFEE09F2EFFE0AF2EF0E1DD
:1004A000BF2EF1E1CF2EF2E1DF2EF3E1EF2EF4E1EA
:1004B000FF2E05E116E127E138E149E15AE16BE160
:1004C0007CE18DE19EE1AFE1B0E2E1E2F5E0F01127
:1004D00000921C02F6E0F11100921C02F7E0F2110A
:1004E00000921C02F8E0F31100921C02F9E0F411F2
:1004F00000921C02FAE0F51100921C02FBE0F611DA
:1005000000921C02FCE0F71100921C02FDE0F811C1
:1005100000921C02FEE0F91100921C02FFE0FA11A9
:1005200000921C02F0E1FB1100921C02F1E1FC11AF
:1005300000921C02F2E1FD1100921C02F3E1FE1197
:1005400000921C02F4E1FF1100921C02F5E1F0138D
:1005500000921C02F6E1F11300921C02F7E1F21383
:1005600000921C02F8E1F31300921C02F9E1F4136B
:1005700000921C02FAE1F51300921C02FBE1F61353
:1005800000921C02FCE1F71300921C02FDE1F8133B
:1005900000921C02FEE1F91300921C02FFE1FA1323
:1005A00000921C02F0E2FB1300921C02F1E2FE1327
:1005B00000921C025ECFF1E00F2EF2E01F2EF3E05E
:1005C0002F2EF4E03F2EF5E04F2EF6E05F2EF7E001
:1005D0006F2EF8E07F2EF9E08F2EFAE09F2EFBE0E1
:1005E000AF2EFCE0BF2EFDE0CF2EFEE0DF2EFFE0C1
:1005F000EF2EF0E1FF2E01E112E123E134E145E1CC
:1006000056E167E178E189E19AE1ABE1BCE1EDE136
:10061000F1E0F01100921C02F2E0F11100921C02D4
:10062000F3E0F21100921C02F4E0F31100921C02BC
:10063000F5E0F41100921C02F6E0F51100921C02A4
:10064000F7E0F61100921C02F8E0F71100921C028C
:10065000F9E0F81100921C02FAE0F91100921C0274
:10066000FBE0FA1100921C02FCE0FB1100921C025C
:10067000FDE0FC1100921C02FEE0FD1100921C0244
:10068000FFE0FE1100921C02F0E1FF1100921C023B
:10069000F1E1F01300921C02F2E1F11300921C024E
:1006A000F3E1F21300921C02F4E1F31300921C0236
:1006B000F5E1F41300921C02F6E1F51300921C021E
:1006C000F7E1F61300921C02F8E1F71300921C0206
:1006D000F9E1F81300921C02FAE1F91300921C02EE
:1006E000FBE1FA1300921C02FCE1FB1300921C02D6
:1006F000FDE1FE1300921C025ECFEF92FF920F937A
:1007000089E392E069E072E045E550E020E030E006
:1007100000E0EE24FF240E94A6098BED92E06EE03B
:1007200072E045E550E020E030E00E94A6090F911C
:10073000FF90EF90089580911F028F5F80931F02BA
:1007400008950FB6F8940F9220912202309123025F
:100750000F900FBEC901089520912202309123020B
:10076000C9010895809128020895009721F480918D
:100770001D0290911E029C01275E3F4FC901089502
:1007800080911F02882321F081E080932102089547
:10079000109221022091200299E001C02150299F4E
:1007A000D0011124A25DBD4F8C918823B9F311961D
:1007B000ED91FC9112970280F381E02D1296FC934B
:1007C000EE931197CD010396E817F90731F4828172
:1007D000938112969C938E9311971196ED91FC91B3
:1007E00012978681978190931E0280931D02209319
:1007F00020020895FC0180912602808380912202CC
:1008000090912302928381830895FC01DB010FB64E
:10081000F8940F9240912202509123029091260267
:100820008081981729F08181928148175907E0F457
:10083000218132816D917C911197CA01821B930BAA
:100840008617970788F4241B350B260F371F2D9327
:100850003C93809126028083809122029091230212
:100860009283818380E001C081E00F900FBE0895E4
:1008700081E0809321020895E0911D02F0911E0213
:1008800084859585A0911D02B0911E02E0911D0204
:10089000F0911E02468924E030E0241B31091D96A8
:1008A0003C932E931C970895009729F4E0911D0224
:1008B000F0911E0201C0FC010FB6F8940F9285A1C1
:1008C000823011F080E002C015A281E00F900FBECF
:1008D0000895EF92FF920F931F93CF93DF937B01C5
:1008E000EC012DA182E08DA389A19AA1ABA1BCA1AD
:1008F0000196A11DB11D89A39AA3ABA3BCA321306E
:1009000091F580911F028823A9F48E010E5F1F4F7D
:10091000C8010E94380F9E8980912002891710F427
:100920009093200289E0989FC0011124825D9D4F21
:10093000B80105C0BE01645F7F4F88E692E00E9467
:10094000E70EE0911D02F0911E029E8986898917AB
:1009500050F4E114F10421F081E0F701808303C039
:1009600081E080932102DF91CF911F910F91FF9041
:10097000EF900895EF92FF920F931F93CF93DF9321
:10098000F801EC010115110541F089A19AA1ABA173
:10099000BCA180839183A283B3833DA182E08DA318
:1009A000223099F0233018F4213019F505C0233096
:1009B000E1F02430F1F415C089A19AA1ABA1BCA14A
:1009C000842B952BA62BB72B07C089A19AA1ABA18D
:1009D000BCA10196A11DB11D89A39AA3ABA3BCA381
:1009E00008C0323011F480E03AC049A35AA36BA387
:1009F0007CA3313099F580911F028823A9F48E01E0
:100A00000E5F1F4FC8010E94380F9E8980912002FF
:100A1000891710F49093200289E0989FC001112457
:100A2000825D9D4FB80105C0BE01645F7F4F88E6BF
:100A300092E00E94E70EE0911D02F0911E029E8955
:100A40008689891758F4E114F10421F081E0F70157
:100A5000808305C081E08093210201C081E0DF91A5
:100A6000CF911F910F91FF90EF9008950F931F93D7
:100A7000CF93DF93FC01706871836083C681D78157
:100A80000E94380F8E010E5F1F4FC8010E94380F61
:100A90009E8980912002891710F49093200289E0AA
:100AA000989FC0011124825D9D4FB8010E94E70EFE
:100AB000E0911D02F0911E029E898689891710F02F
:100AC00080E003C081E080932102DF91CF911F91EC
:100AD0000F9108950F931F93CF93DF93DC01159629
:100AE000ED91FC911697C681D7818E01045F1F4F4F
:100AF000C8010E94380F80911F028823A1F48E0143
:100B00000E5F1F4FC8010E94380F9E8980912002FE
:100B1000891710F49093200289E0989FC001112456
:100B2000825D9D4F02C088E692E0B8010E94E70E08
:100B3000E0911D02F0911E029E898689891710F0AE
:100B400080E003C081E080932102DF91CF911F916B
:100B50000F910895CF92DF92EF92FF920F931F9320
:100B6000CF93DF9380911F02882309F0A6C00091E4
:100B70002202109123020F5F1F4F10932302009354
:100B800022020115110579F5209164023091650268
:100B9000809166029091670290936502809364024F
:100BA0003093670220936602809126028F5F8093C4
:100BB0002602E0916402F09165028081882319F495
:100BC0008FEF9FEF0CC0E0916402F0916502058009
:100BD000F681E02D0680F781E02D8281938190934C
:100BE0002502809324028091240290912502081707
:100BF000190708F44BC0DD2449E0C42EE0916402DB
:100C0000F09165028081882319F48FEF9FEF0EC069
:100C1000E0916402F09165020580F681E02DC681C5
:100C2000D7818A819B810817190728F490932502A0
:100C3000809324022CC032E0E32EF12CEC0EFD1E3A
:100C4000C7010E94380F8C899D89892B21F0CE0124
:100C50000C960E94380F9E8980912002891710F40B
:100C6000909320029C9DC0011124825D9D4FB7018D
:100C70000E94E70EE0911D02F0911E029E89868976
:100C8000981708F4BBCFDD24D394B8CFDD24E091CE
:100C90001D02F0911E02868990E0FC0123E0EE0F18
:100CA000FF1F2A95E1F7E80FF91FE25DFD4F8081F4
:100CB000823048F0DD24D39406C0809127028F5FF4
:100CC00080932702DD2480912102882311F0DD2406
:100CD000D3948D2DDF91CF911F910F91FF90EF90C5
:100CE000DF90CF9008950F931F93CF93DF93F80178
:100CF000EC010FB6F8940F920115110541F089A18E
:100D00009AA1ABA1BCA180839183A283B3833DA1AF
:100D100082E08DA3223099F0233018F4213019F5A8
:100D200005C02330E1F02430F1F415C089A19AA167
:100D3000ABA1BCA1842B952BA62BB72B07C089A1F7
:100D40009AA1ABA1BCA10196A11DB11D89A39AA333
:100D5000ABA3BCA308C0323011F480E027C049A384
:100D60005AA36BA37CA3313001F58E010E5F1F4F98
:100D7000C8010E94380F9E8980912002891710F4C3
:100D80009093200289E0989FC0011124825D9D4FBD
:100D9000B8010E94E70EE0911D02F0911E029E89AB
:100DA0008689891710F40E94471281E00F900FBEC8
:100DB000DF91CF911F910F910895EF92FF920F93C2
:100DC0001F93CF93DF930FB6F8940F9280911F0279
:100DD000815080931F0280911F02882309F06CC00C
:100DE00080912802882309F467C0C0E0D0E059E070
:100DF000E52EFF24F39429C0E0916D02F0916E027C
:100E0000C681D781CE010C960E94380F8E010E5FED
:100E10001F4FC8010E94380F9E89809120028917B8
:100E200010F4909320029E9DC0011124825D9D4F7D
:100E3000B8010E94E70EE0911D02F0911E029E890A
:100E40008689981710F0F092210280916802882319
:100E500099F6CD2BD1F0E0916402F091650280818A
:100E6000882319F48FEF9FEF0CC0E0916402F0919A
:100E700065020580F681E02D0680F781E02D8281F4
:100E800093819093250280932402109127021123CD
:100E900059F001E00E94AA05882311F00093210275
:100EA0001150C1F71092270280912102882321F06E
:100EB0000E94471281E001C080E00F900FBEDF91D9
:100EC000CF911F910F91FF90EF9008950F931F9373
:100ED000CF93DF93EC0100912202109123028091C5
:100EE0001D0290911E0202960E94380FC00FD11F62
:100EF000E0911D02F0911E02D383C283C017D10777
:100F000068F4809166029091670260911D02709171
:100F10001E026E5F7F4F0E94060F17C08091640211
:100F20009091650260911D0270911E026E5F7F4F6D
:100F30000E94060F8091240290912502C817D907BC
:100F400020F4D0932502C0932402DF91CF911F910A
:100F50000F9108956F927F928F929F92AF92BF925E
:100F6000CF92DF92EF92FF920F931F93CF93DF9375
:100F70005B016C0139014A01E8010FB6F8940F9248
:100F8000E0911D02F0911E0285A1823019F1E091DD
:100F90001D02F0911E0281A192A1A3A1B4A1A0946F
:100FA000B094C094D0948A219B21AC21BD2181A30F
:100FB00092A3A3A3B4A3E0911D02F0911E0281E0CD
:100FC00085A3E114F10431F0C70161E00E946607D6
:100FD0000E9447120F900FBE0FB6F8940F92209701
:100FE00061F0E0911D02F0911E0281A192A1A3A1E6
:100FF000B4A188839983AA83BB83E0911D02F091F9
:101000001E0285A1813011F480E015C0E0911D021F
:10101000F0911E0281A192A1A3A1B4A16094709449
:101020008094909486219721A821B92181A392A32D
:10103000A3A3B4A381E0E0911D02F0911E0215A2CA
:101040000F900FBEDF91CF911F910F91FF90EF9006
:10105000DF90CF90BF90AF909F908F907F906F90D8
:1010600008951F93182F0FB6F8940F92E0911D0268
:10107000F0911E0281A192A1A3A1B4A10097A105A4
:10108000B10579F4E0911D02F0911E0281E085A383
:101090006115710531F0CB0161E00E9466070E9485
:1010A00047120F900FBE0FB6F8940F92E0911D02F9
:1010B000F0911E0221A132A143A154A121153105B5
:1010C00041055105D9F0112349F0E0911D02F0913D
:1010D0001E0211A212A213A214A210C0E0911D02BE
:1010E000F0911E02215030404040504021A332A3D5
:1010F00043A354A32F5F3F4F4F4F5F4FE0911D021B
:10110000F0911E0215A20F900FBEB901CA011F91E6
:1011100008950F931F938A01E0911D02F0911E0222
:1011200070687587648760911D0270911E02645F0C
:101130007F4F0E94E70EC80161E00E9466071F9181
:101140000F9108959C01009769F080911F028F5FB5
:1011500080931F02C90160E00E9466070E94DD06BD
:10116000882311F40E9447120895FC0180911F0208
:101170008F5F80931F0240912202509123022081B1
:101180003181620F731F4217530728F462177307E8
:1011900028F080E008C06217730720F080E046174F
:1011A000570708F481E071836083882331F0CB0115
:1011B000841B950B60E00E9466070E94DD06882371
:1011C00011F40E94471208950F931F938B016091B1
:1011D0001D0270911E02645F7F4F0E94060FC801BE
:1011E00061E00E9466071F910F910895F894109294
:1011F00029020E94E61108950F931F932CC080913D
:101200001F028F5F80931F02109171020E94DD0602
:10121000112309F10FB6F8940F92E0917602F09144
:10122000770206811781C80102960E94380F8091CB
:10123000280281508093280280912C028150809353
:101240002C020F900FBEF8018789908D0E9421110A
:10125000C8010E94211180912C02882381F680917F
:101260002E02823010F00E9447120E949500F3CFA8
:101270000F931F93CF93DF930FB6F8940F920097BD
:1012800029F4C0911D02D0911E0201C0EC018E0113
:101290000E5F1F4FC8010E94380F8C899D89892BD2
:1012A00021F0CE010C960E94380F80912D028F5FA5
:1012B00080932D0280911D0290911E02C817D907BC
:1012C00059F481E792E0B8010E94E70E80912C0268
:1012D0008F5F80932C0226C08091280281508093DA
:1012E00028028F89988D0E942111CE010E94211120
:1012F000E0916402F09165028081882319F48FEFF8
:101300009FEF0CC0E0916402F09165020580F681C8
:10131000E02D0680F781E02D828193819093250254
:10132000809324020F900FBE80912902882349F0F8
:1013300080911D0290911E02C817D90711F40E94D6
:101340004712DF91CF911F910F9108954F925F92B5
:101350006F927F928F929F92AF92BF92CF92DF92C5
:10136000EF92FF920F931F93CF93DF932C01162FD1
:10137000972E6A0139015701CA010E9431117C017F
:10138000009799F086E290E00E943111EC010097FD
:1013900049F0F88EEF8A812F992D9C01F901DE0129
:1013A00090E005C0C7010E9421118FEFB7C0808176
:1013B00059968C9359978081882329F09F5F3196A5
:1013C00011969830A1F718A2043008F003E00E8BB4
:1013D00072E0872E912C8C0E9D1EC4010E94E30E9C
:1013E000CE010C960E94E30ED987C88784E090E076
:1013F000801B91099D878C87DB8BCA8B19A21AA24F
:101400001BA21CA21DA20894C108D108C7018C0D03
:101410009D1DB201A3010E94631199838883A114C9
:10142000B10419F0F501D183C0830FB6F8940F927F
:10143000809128028F5F8093280280911D029091F5
:101440001E02892BA9F5D0931E02C0931D02809124
:1014500028028130E9F58EE292E00E94D30E87E304
:1014600092E00E94D30E80E492E00E94D30E89E4C1
:1014700092E00E94D30E62E5E62E62E0F62EC701EE
:101480000E94D30E0BE512E0C8010E94D30E88E63D
:1014900092E00E94D30E81E792E00E94D30EF09278
:1014A0006502E0926402109367020093660210C026
:1014B00080912902882361F4E0911D02F0911E02BF
:1014C00096898E89891720F0D0931E02C0931D0241
:1014D00080912D028F5F80932D029E898091200242
:1014E000891710F49093200289E0989FC00111247D
:1014F000825D9D4FB4010E94E70E0F900FBE809158
:101500002902882351F0E0911D02F0911E02968974
:101510008E89981710F40E94471281E0DF91CF91D5
:101520001F910F91FF90EF90DF90CF90BF90AF9001
:101530009F908F907F906F905F904F900895EF9263
:10154000FF920F938CEF98E063E172E045E550E085
:1015500020E030E000E0EAE2EE2EE2E0FE2E0E9423
:10156000A609813081F4F8948FEF9FEF90932502C4
:101570008093240281E0809329021092230210922A
:1015800022020E94AC110F91FF90EF9008950FB6C8
:10159000F8940F92FC01828D0F900FBE0895FC010C
:1015A0000FB6F8940F92928D0F900FBE838D891B0A
:1015B0000895FC01828D0895FC01828D90E08823BE
:1015C00009F491E0892F0895FC01928D20E0838D2C
:1015D000981709F421E0822F08950F931F93CF935A
:1015E000DF93EC01042F1A8D4C8D4423C1F10023AD
:1015F000B1F48C819D8150E00E94C2128C8D2C81AF
:101600003D81280F311D3D832C838A819B812817C2
:10161000390728F1888199819D838C8320C08E8130
:101620009F8150E00E94C2128C8D90E04427552784
:10163000481B590B8E819F81840F951F9F838E833A
:10164000288139818217930730F48A819B81840F26
:10165000951F9F838E83023011F4111111501F5F6B
:101660001A8F80E0DF91CF911F910F910895FC01B7
:10167000562FA72F248D2223B9F086819781820FC0
:10168000911D97838683228133818217930720F0EF
:101690008081918197838683448D66817781852FB0
:1016A0009A2F50E00E94C21208950F931F93CF9378
:1016B000DF93EC018A8D882341F00E811F81CE01DA
:1016C0000E94370B1F830E8381E0DF91CF911F9122
:1016D0000F9108950F931F93CF93DF93FB018A011E
:1016E000EC018A8D882361F18C8D2E813F81280F3A
:1016F000311D3F832E838A819B812817390720F073
:10170000888199819F838E838A8D81508A8F4C8DA9
:101710006E817F81CF0150E00E94C212F80180816A
:10172000882369F48885882351F0CE0108960E94A9
:10173000620F882321F081E0F801808301C081E0FD
:10174000DF91CF911F910F9108951F93CF93DF9356
:10175000142FEC019A8D8B8D981788F4CE0140E000
:101760000E94ED0A112359F48989882341F0CE01A2
:1017700041960E94620F482F811141E0142F812F62
:10178000DF91CF911F910895CF93DF93FB01EC017F
:10179000F8948A8D882371F44115510541F06196C2
:1017A000CA01BE010E946A1078948CEF2FC0789411
:1017B00080E02CC07894F8948A8D882331F18C8D48
:1017C0002E813F81280F311D3F832E838A819B818B
:1017D0002817390720F0888199819F838E838A8D0D
:1017E00081508A8F4C8D6E817F81CF0150E00E94A5
:1017F000C2128885882341F0CE0108960E94620FAC
:10180000882311F08BEF01C081E07894DF91CF91B4
:101810000895CF93DF93EC01F8940FB6F8940F92EC
:101820008A8D9B8D0F900FBE891771F4411551055C
:1018300041F02896CA01BE010E946A1078948CEF8C
:101840001BC0789480E018C07894F8948A8D89172A
:1018500010F080E010C0CE0140E00E94ED0A8989BE
:10186000882341F0CE0141960E94620F882311F037
:101870008BEF01C081E07894DF91CF9108950E94B1
:1018800021110895EF92FF920F931F93CF93DF934F
:101890007A01EC011A8D112311F480E01AC00D8D2C
:1018A0000E94370B11501A8F0F3F81F488858823CF
:1018B00079F0CE0108960E946A05882349F0E11468
:1018C000F10431F081E0F701808303C00F5F0D8FD9
:1018D00081E0DF91CF911F910F91FF90EF900895DC
:1018E000CF93DF93EB01FC01928D838D981710F05D
:1018F00080E016C0868D9F5F928F8F3F71F4818943
:10190000882369F0CF0141960E946A05882339F047
:10191000209729F081E0888303C08F5F868F81E064
:10192000DF91CF910895EF92FF921F93CF93DF93B2
:101930007A01EC019A8D8B8D981720F0223011F0EE
:1019400080E01AC01E8DCE01422F0E94ED0A1F3F7B
:1019500081F48989882379F0CE0141960E946A0535
:10196000882349F0E114F10431F081E0F70180832C
:1019700003C01F5F1E8F81E0DF91CF911F91FF9009
:10198000EF900895EF92FF921F93CF93DF93EC01B6
:101990000FB6F8940F921E8D91E1E92EF12CEC0E0A
:1019A000FD1E0BC08989882351F0C7010E946A057A
:1019B000882311F00E943804115011169CF38FEF08
:1019C0008E8F0F900FBE0FB6F8940F921D8D88E08A
:1019D000E82EF12CEC0EFD1E0BC08885882351F0FB
:1019E000C7010E946A05882311F00E943804115033
:1019F00011169CF38FEF8D8F0F900FBEDF91CF915B
:101A00001F91FF90EF9008956F927F928F929F9217
:101A1000AF92BF92CF92DF92EF92FF920F931F93FC
:101A2000DF93CF9300D00F920F92CDB7DEB74B016B
:101A30005D834C83E22E8C0141E1A42EB12CA80ED3
:101A4000B91E20E06E010894C11CD11C34E0632E45
:101A5000712C6C0E7D1E01C021E00FB6F8940F9220
:101A6000F801F28CFF2011F1C680D780C801B401C3
:101A70000E94370BEE2049F4FA94F801F28E80852B
:101A8000882381F0C801089607C0F801D782C68272
:101A90008189882339F0C5010E946A05882311F0E5
:101AA0000E9447120F900FBE81E054C08C819D812F
:101AB000892B21F40F900FBE80E04CC0222319F433
:101AC000C6010E94FA030F900FBE0E949B030FB63F
:101AD000F8940F92F801858D8F3F09F4158EF80167
:101AE000868D8F3F09F4168E0F900FBEC601B3018D
:101AF0000E9405048823F9F40FB6F8940F92F801B8
:101B0000828D0F900FBE882381F46C817D81C50189
:101B10000E94E408C8010E94C20C0E94DD068823CE
:101B200009F09ACF0E94471297CFC8010E94C20CB9
:101B30000E94DD0691CFC8010E94C20C0E94DD0602
:101B40000FB6F8940F92F801828D0F900FBE882384
:101B500009F082CF0F900F900F900F900F90CF91C0
:101B6000DF911F910F91FF90EF90DF90CF90BF908A
:101B7000AF909F908F907F906F9008956F927F921B
:101B80009F92AF92BF92CF92DF92EF92FF920F930C
:101B90001F93DF93CF9300D00F920F92CDB7DEB794
:101BA0006B015D834C83922E8C0168E0E62EF12C54
:101BB000E80EF91E20E05E010894A11CB11C54E05F
:101BC000652E712C6C0E7D1E01C021E00FB6F894BD
:101BD0000F92F801928D838D981718F0F2E09F16FE
:101BE000C9F4C801B601492D0E94ED0A982FF801E9
:101BF0008189882339F0C80141960E946A058823AB
:101C000029F002C0992311F00E9447120F900FBED5
:101C100081E04CC08C819D81892B19F40F900FBEFF
:101C200044C0222319F4C5010E94FA030F900FBE8D
:101C30000E949B030FB6F8940F92F801858D8F3F99
:101C400009F4158EF801868D8F3F09F4168E0F90DA
:101C50000FBEC501B3010E940504882309F50FB624
:101C6000F8940F92F801928D0F900FBEF801838DBA
:101C7000981781F46C817D81C7010E94E408C80136
:101C80000E94C20C0E94DD06882309F09ECF0E94AC
:101C900047129BCFC8010E94C20C0E94DD0695CF5F
:101CA000C8010E94C20C0E94DD0680E00F900F90D8
:101CB0000F900F900F90CF91DF911F910F91FF9098
:101CC000EF90DF90CF90BF90AF909F907F906F90FC
:101CD0000895CF93DF93EC010FB6F8940F92EC8D3B
:101CE0002B8DE29FC001112448815981840F951FDB
:101CF0009B838A831A8E5D834C8330E02150304071
:101D0000F0E02E9FC0012F9F900D3E9F900D11245B
:101D1000480F591F5F834E838FEF8D8F8E8F662301
:101D200061F48885882389F0CE0108960E946A05AF
:101D3000882359F00E94471208C0CE0108960E94DD
:101D4000D30ECE0141960E94D30E0F900FBE81E0BC
:101D5000DF91CF9108950F931F93CF93DF93082FB7
:101D6000162F662319F480E090E003C0689FC0013D
:101D700011244F960E943111EC01009771F011234C
:101D800019F49983888303C04F96998388830B8FB6
:101D90001C8FCE0161E00E94690ECE01DF91CF91D0
:101DA0001F910F910895FC019C012D5F3F4F3283DD
:101DB00021838FEF9FEF948383833683258330873E
:101DC000278310820895FC01118610860895AC01C6
:101DD000FC01A181B281FB01B383A28314968D9192
:101DE0009C911597958384831496ED91FC9115979A
:101DF0007383628315967C936E931497FB015187CE
:101E00004087FA0180818F5F80830895CF93DF93AD
:101E10009C01EB01488159818FEF4F3F580721F416
:101E2000F901A781B0850DC0D90113961296ED91E5
:101E3000FC911397808191814817590710F0DF01B9
:101E4000F5CF1296ED91FC911397FB83EA83D5832E
:101E5000C483BD83AC831396DC93CE9312973987EA
:101E60002887F90180818F5F8083DF91CF9108956A
:101E7000CF93DF93DC011896CD91DC9119971296E0
:101E80004D915C91139714968D919C911597FA0141
:101E90009583848314962D913C911597F901538372
:101EA000428389819A818A179B0711F43A83298397
:101EB00019961C921E921897888181508883DF9111
:101EC000CF910895EF92FF920F931F93DC01159627
:101ED000ED91FC911697E680F7808701045F1F4F14
:101EE000C8010E94380F8BEA92E0B8010E94E70E09
:101EF00020E0E0917A02F0917B02D70156969C9106
:101F00008689981708F021E0822F1F910F91FF908A
:101F1000EF900895FF920F931F93CF93DF9399E073
:101F2000F92E21C0F894E091B002F091B10206813F
:101F30001781C8010C960E94380F7894E801229608
:101F4000CE010E94380FF801968980917C02891792
:101F500010F490937C029F9DC00111248D579D4FDA
:101F6000BE010E94E70E8091AB028823D9F60E9441
:101F7000A10320917D0230917E02821B930B9093EE
:101F8000800280937F0289E0F82E53C001969093DF
:101F9000820280938102215030403093800220934E
:101FA0007F02892B09F03EC02091A7023091A80240
:101FB0008091A9029091AA029093A8028093A7020F
:101FC0003093AA022093A9022DC00580F681E02D4E
:101FD000C681D78120918102309182028A819B81C2
:101FE0002817390730F1F8948E010E5F1F4FC80192
:101FF0000E94380F8C899D89892B21F0CE010C9687
:102000000E94380F78949E8980917C02891710F481
:1020100090937C029F9DC00111248D579D4FB80164
:102020000E94E70EE091A702F091A8028081882328
:1020300061F620917F02309180028091810290911F
:1020400082022115310509F0A1CF90937E02809381
:102050007D0290917C0229E006C0992319F4109228
:102060007C0232C09150929FD0011124AD57BD4FD8
:102070008C91882391F390937C021196ED91FC91C1
:1020800012970280F381E02D1296FC93EE93119744
:10209000CD010396E817F90731F4828193811296F6
:1020A0009C938E9311971196ED91FC911297068057
:1020B000F781E02DF0937B02E0937A022081318159
:1020C000CF016789F9011995DF91CF911F910F9188
:1020D000FF9008950F931F93CF93DF93EB0100912F
:1020E000810210918202080F191F80917A0290914B
:1020F0007B0202960E94380FE0917A02F0917B02F7
:10210000138302838091810290918202BF016E5FEE
:102110007F4F0817190728F48091A9029091AA020D
:1021200004C08091A7029091A8020E94060F2097F8
:1021300049F060917A0270917B02645F7F4FCE011B
:102140000E94060FDF91CF911F910F910895AF92DA
:10215000BF92CF92DF92EF92FF920F931F93CF9394
:10216000DF936C01B62EA42E8AE190E00E9431111B
:10217000EC01009711F48FEF59C080917A02909191
:102180007B02892B21F5D0937B02C0937A0283E8EE
:1021900092E00E94D30E8CE892E00E94D30E25E9D3
:1021A000E22E22E0F22EC7010E94D30E0EE912E0C9
:1021B000C8010E94D30E8BEA92E00E94D30EF092E7
:1021C000A802E092A7021093AA020093A902EB2CA6
:1021D000BB2011F0EE24E394198E188EEE8AAF8A9C
:1021E000FE01C192D1928F01CF010E94E30ECE0178
:1021F0000C960E94E30ED987C887DB8BCA8B82E0DE
:1022000090E08E1991099D878C879E8980917C0230
:10221000891710F490937C0289E0989FC0011124E3
:102220008D579D4FB8010E94E70E81E0DF91CF915D
:102230001F910F91FF90EF90DF90CF90BF90AF90E4
:10224000089508951092B5021092B40208952BEDEE
:1022500035E08091B4029091B502281B390BC90179
:102260000895CF93DF93EC010E949B038091B60207
:102270009091B702892B31F489EB92E09093B702E9
:102280008093B6022091B4023091B502CE01820F44
:10229000931F45E08B3D940770F42817390758F4D5
:1022A000C091B602D091B702C20FD31F9093B5026E
:1022B0008093B40202C0C0E0D0E00E94DD06CE01EF
:1022C000DF91CF910895FC0191E1908322E2229366
:1022D00083E38293629372931292129280E88293C4
:1022E000129282E0829383E0829384E0829385E07D
:1022F000829386E0829387E0829388E0829389E0EC
:10230000829380E18293929382E1829383E182932C
:1023100084E1829385E1829386E1829387E18293CF
:1023200088E1829389E1829380E2829381E28293C1
:10233000229383E282934293529386E2829387E2CE
:10234000829388E2829389E2829380E3829381E39D
:1023500082933197CF0108951092890089EF80937D
:1023600088008BE080938100EFE6F0E0808180615F
:102370008083A0911D02B0911E02CD91CDBFDD9151
:10238000DEBFFF91EF91DF91CF91BF91AF919F9110
:102390008F917F916F915F914F913F912F911F91FD
:1023A0000F91FF90EF90DF90CF90BF90AF909F90F4
:1023B0008F907F906F905F904F903F902F901F90E5
:1023C0000F900FBE0F90089581E0089508950F9229
:1023D0000FB6F8940F921F9211242F923F924F92B2
:1023E0005F926F927F928F929F92AF92BF92CF92A5
:1023F000DF92EF92FF920F931F932F933F934F9390
:102400005F936F937F938F939F93AF93BF93CF937C
:10241000DF93EF93FF93A0911D02B0911E020DB6C2
:102420000D920EB60D920E94AA05882311F00E940B
:10243000C003A0911D02B0911E02CD91CDBFDD91D0
:10244000DEBFFF91EF91DF91CF91BF91AF919F914F
:102450008F917F916F915F914F913F912F911F913C
:102460000F91FF90EF90DF90CF90BF90AF909F9033
:102470008F907F906F905F904F903F902F901F9024
:102480000F900FBE0F9008950E94E71118950F92BC
:102490000FB6F8940F921F9211242F923F924F92F1
:1024A0005F926F927F928F929F92AF92BF92CF92E4
:1024B000DF92EF92FF920F931F932F933F934F93CF
:1024C0005F936F937F938F939F93AF93BF93CF93BC
:1024D000DF93EF93FF93A0911D02B0911E020DB602
:1024E0000D920EB60D920E94C003A0911D02B091F4
:1024F0001E02CD91CDBFDD91DEBFFF91EF91DF9147
:10250000CF91BF91AF919F918F917F916F915F918B
:102510004F913F912F911F910F91FF90EF90DF907E
:10252000CF90BF90AF909F908F907F906F905F9073
:102530004F903F902F901F900F900FBE0F900895D7
:10254000A1E21A2EAA1BBB1BFD010DC0AA1FBB1FB7
:10255000EE1FFF1FA217B307E407F50720F0A21B29
:10256000B30BE40BF50B661F771F881F991F1A9496
:1025700069F760957095809590959B01AC01BD01C0
:10258000CF010895FB01DC0102C001900D92415082
:0A2590005040D8F70895F894FFCFEB
:10259A0054657374696E6700FF526567310052654E
:0825AA0067320049444C450072
:00000001FF
